{
  "contracts/DisputeResolution.sol": {
    "DisputeResolutionV2": {
      "abi": [
        {
          "inputs": [
            {
              "internalType": "address",
              "name": "_usdcToken",
              "type": "address"
            }
          ],
          "stateMutability": "nonpayable",
          "type": "constructor"
        },
        {
          "anonymous": false,
          "inputs": [
            {
              "indexed": true,
              "internalType": "uint256",
              "name": "id",
              "type": "uint256"
            },
            {
              "indexed": true,
              "internalType": "address",
              "name": "from",
              "type": "address"
            },
            {
              "indexed": false,
              "internalType": "uint256",
              "name": "amount",
              "type": "uint256"
            }
          ],
          "name": "DepositMade",
          "type": "event"
        },
        {
          "anonymous": false,
          "inputs": [
            {
              "indexed": true,
              "internalType": "uint256",
              "name": "id",
              "type": "uint256"
            }
          ],
          "name": "DisputeCancelled",
          "type": "event"
        },
        {
          "anonymous": false,
          "inputs": [
            {
              "indexed": true,
              "internalType": "uint256",
              "name": "id",
              "type": "uint256"
            },
            {
              "indexed": false,
              "internalType": "address",
              "name": "party1",
              "type": "address"
            },
            {
              "indexed": false,
              "internalType": "address",
              "name": "party2",
              "type": "address"
            },
            {
              "indexed": false,
              "internalType": "string",
              "name": "ipfsHash",
              "type": "string"
            }
          ],
          "name": "DisputeCreated",
          "type": "event"
        },
        {
          "anonymous": false,
          "inputs": [
            {
              "indexed": true,
              "internalType": "uint256",
              "name": "id",
              "type": "uint256"
            },
            {
              "indexed": false,
              "internalType": "string",
              "name": "resolutionIPFS",
              "type": "string"
            }
          ],
          "name": "DisputeResolved",
          "type": "event"
        },
        {
          "anonymous": false,
          "inputs": [
            {
              "indexed": true,
              "internalType": "uint256",
              "name": "id",
              "type": "uint256"
            }
          ],
          "name": "DisputeUpdated",
          "type": "event"
        },
        {
          "anonymous": false,
          "inputs": [
            {
              "indexed": true,
              "internalType": "uint256",
              "name": "id",
              "type": "uint256"
            },
            {
              "indexed": true,
              "internalType": "address",
              "name": "party",
              "type": "address"
            }
          ],
          "name": "MediatorConfirmed",
          "type": "event"
        },
        {
          "anonymous": false,
          "inputs": [
            {
              "indexed": true,
              "internalType": "uint256",
              "name": "id",
              "type": "uint256"
            },
            {
              "indexed": false,
              "internalType": "address",
              "name": "mediator",
              "type": "address"
            }
          ],
          "name": "MediatorSet",
          "type": "event"
        },
        {
          "inputs": [
            {
              "internalType": "uint256",
              "name": "id",
              "type": "uint256"
            }
          ],
          "name": "cancelDispute",
          "outputs": [],
          "stateMutability": "nonpayable",
          "type": "function"
        },
        {
          "inputs": [
            {
              "internalType": "uint256",
              "name": "id",
              "type": "uint256"
            },
            {
              "internalType": "address",
              "name": "_mediator",
              "type": "address"
            }
          ],
          "name": "confirmMediator",
          "outputs": [],
          "stateMutability": "nonpayable",
          "type": "function"
        },
        {
          "inputs": [
            {
              "internalType": "address",
              "name": "_otherParty",
              "type": "address"
            },
            {
              "internalType": "string",
              "name": "_problemIPFS",
              "type": "string"
            }
          ],
          "name": "createDispute",
          "outputs": [
            {
              "internalType": "uint256",
              "name": "",
              "type": "uint256"
            }
          ],
          "stateMutability": "nonpayable",
          "type": "function"
        },
        {
          "inputs": [
            {
              "internalType": "uint256",
              "name": "id",
              "type": "uint256"
            },
            {
              "internalType": "uint256",
              "name": "amount",
              "type": "uint256"
            }
          ],
          "name": "deposit",
          "outputs": [],
          "stateMutability": "nonpayable",
          "type": "function"
        },
        {
          "inputs": [],
          "name": "disputeCount",
          "outputs": [
            {
              "internalType": "uint256",
              "name": "",
              "type": "uint256"
            }
          ],
          "stateMutability": "view",
          "type": "function"
        },
        {
          "inputs": [
            {
              "internalType": "uint256",
              "name": "",
              "type": "uint256"
            },
            {
              "internalType": "uint256",
              "name": "",
              "type": "uint256"
            }
          ],
          "name": "disputePartiesView",
          "outputs": [
            {
              "internalType": "address",
              "name": "",
              "type": "address"
            }
          ],
          "stateMutability": "view",
          "type": "function"
        },
        {
          "inputs": [
            {
              "internalType": "uint256",
              "name": "id",
              "type": "uint256"
            }
          ],
          "name": "getDispute",
          "outputs": [
            {
              "internalType": "address[2]",
              "name": "parties",
              "type": "address[2]"
            },
            {
              "internalType": "address",
              "name": "mediator",
              "type": "address"
            },
            {
              "internalType": "string",
              "name": "problemIPFS",
              "type": "string"
            },
            {
              "internalType": "string",
              "name": "resolutionIPFS",
              "type": "string"
            },
            {
              "internalType": "uint256",
              "name": "totalLockedAmount",
              "type": "uint256"
            },
            {
              "internalType": "enum DisputeResolutionV2.DisputeStatus",
              "name": "status",
              "type": "uint8"
            },
            {
              "internalType": "bool",
              "name": "paid1",
              "type": "bool"
            },
            {
              "internalType": "bool",
              "name": "paid2",
              "type": "bool"
            },
            {
              "internalType": "bool",
              "name": "confirmed1",
              "type": "bool"
            },
            {
              "internalType": "bool",
              "name": "confirmed2",
              "type": "bool"
            }
          ],
          "stateMutability": "view",
          "type": "function"
        },
        {
          "inputs": [
            {
              "internalType": "uint256",
              "name": "id",
              "type": "uint256"
            },
            {
              "internalType": "string",
              "name": "_resolutionIPFS",
              "type": "string"
            }
          ],
          "name": "resolveDispute",
          "outputs": [],
          "stateMutability": "nonpayable",
          "type": "function"
        },
        {
          "inputs": [],
          "name": "usdcToken",
          "outputs": [
            {
              "internalType": "contract IERC20",
              "name": "",
              "type": "address"
            }
          ],
          "stateMutability": "view",
          "type": "function"
        }
      ],
      "evm": {
        "bytecode": {
          "linkReferences": {},
          "object": "60806040523480156200001157600080fd5b5060405162003282380380620032828339818101604052810190620000379190620000e8565b806000806101000a81548173ffffffffffffffffffffffffffffffffffffffff021916908373ffffffffffffffffffffffffffffffffffffffff160217905550506200011a565b600080fd5b600073ffffffffffffffffffffffffffffffffffffffff82169050919050565b6000620000b08262000083565b9050919050565b620000c281620000a3565b8114620000ce57600080fd5b50565b600081519050620000e281620000b7565b92915050565b6000602082840312156200010157620001006200007e565b5b60006200011184828501620000d1565b91505092915050565b613158806200012a6000396000f3fe608060405234801561001057600080fd5b50600436106100935760003560e01c8063cf51b45d11610066578063cf51b45d14610120578063df02935c1461013c578063e2bbb15814610158578063e3a96cbd14610174578063ead3489a146101ad57610093565b806311eac85514610098578063602ee025146100b657806370fd07cc146100d2578063a28889e114610102575b600080fd5b6100a06101dd565b6040516100ad9190611fc6565b60405180910390f35b6100d060048036038101906100cb919061205f565b610201565b005b6100ec60048036038101906100e7919061209f565b61088f565b6040516100f991906120ee565b60405180910390f35b61010a6108dd565b6040516101179190612118565b60405180910390f35b61013a60048036038101906101359190612198565b6108e3565b005b610156600480360381019061015191906121f8565b610c43565b005b610172600480360381019061016d919061209f565b6111ee565b005b61018e600480360381019061018991906121f8565b6117a7565b6040516101a49a999897969594939291906123f2565b60405180910390f35b6101c760048036038101906101c2919061249d565b611be7565b6040516101d49190612118565b60405180910390f35b60008054906101000a900473ffffffffffffffffffffffffffffffffffffffff1681565b816002600082815260200190815260200160002060000160006002811061022b5761022a6124fd565b5b0160009054906101000a900473ffffffffffffffffffffffffffffffffffffffff1673ffffffffffffffffffffffffffffffffffffffff163373ffffffffffffffffffffffffffffffffffffffff1614806102fb5750600260008281526020019081526020016000206000016001600281106102aa576102a96124fd565b5b0160009054906101000a900473ffffffffffffffffffffffffffffffffffffffff1673ffffffffffffffffffffffffffffffffffffffff163373ffffffffffffffffffffffffffffffffffffffff16145b61033a576040517f08c379a000000000000000000000000000000000000000000000000000000000815260040161033190612578565b60405180910390fd5b60006002600085815260200190815260200160002090506001600481111561036557610364612360565b5b8160080160009054906101000a900460ff16600481111561038957610388612360565b5b146103c9576040517f08c379a00000000000000000000000000000000000000000000000000000000081526004016103c0906125e4565b60405180910390fd5b600073ffffffffffffffffffffffffffffffffffffffff168160050160009054906101000a900473ffffffffffffffffffffffffffffffffffffffff1673ffffffffffffffffffffffffffffffffffffffff16148061047757508273ffffffffffffffffffffffffffffffffffffffff168160050160009054906101000a900473ffffffffffffffffffffffffffffffffffffffff1673ffffffffffffffffffffffffffffffffffffffff16145b6104b6576040517f08c379a00000000000000000000000000000000000000000000000000000000081526004016104ad90612650565b60405180910390fd5b806000016000600281106104cd576104cc6124fd565b5b0160009054906101000a900473ffffffffffffffffffffffffffffffffffffffff1673ffffffffffffffffffffffffffffffffffffffff168373ffffffffffffffffffffffffffffffffffffffff161415801561058e57508060000160016002811061053c5761053b6124fd565b5b0160009054906101000a900473ffffffffffffffffffffffffffffffffffffffff1673ffffffffffffffffffffffffffffffffffffffff168373ffffffffffffffffffffffffffffffffffffffff1614155b6105cd576040517f08c379a00000000000000000000000000000000000000000000000000000000081526004016105c4906126e2565b60405180910390fd5b828160050160006101000a81548173ffffffffffffffffffffffffffffffffffffffff021916908373ffffffffffffffffffffffffffffffffffffffff16021790555060018160030160003373ffffffffffffffffffffffffffffffffffffffff1673ffffffffffffffffffffffffffffffffffffffff16815260200190815260200160002060006101000a81548160ff0219169083151502179055503373ffffffffffffffffffffffffffffffffffffffff16847fb9860328d5325ca7d8f3f5fc1040667291a244d3862e6b2810e6f59685a9568f60405160405180910390a3837f29a00cd7b143153a043355a38ed7fa14305cd81468035c2e2e389897f38980d860405160405180910390a2806003016000826000016000600281106106f8576106f76124fd565b5b0160009054906101000a900473ffffffffffffffffffffffffffffffffffffffff1673ffffffffffffffffffffffffffffffffffffffff1673ffffffffffffffffffffffffffffffffffffffff16815260200190815260200160002060009054906101000a900460ff1680156107f1575080600301600082600001600160028110610786576107856124fd565b5b0160009054906101000a900473ffffffffffffffffffffffffffffffffffffffff1673ffffffffffffffffffffffffffffffffffffffff1673ffffffffffffffffffffffffffffffffffffffff16815260200190815260200160002060009054906101000a900460ff165b156108895760028160080160006101000a81548160ff0219169083600481111561081e5761081d612360565b5b0217905550837fbdec1f29ca9b6d70a64bdf26a79d961feb840a8d6fae08f502d436fd481c9efe8460405161085391906120ee565b60405180910390a2837f29a00cd7b143153a043355a38ed7fa14305cd81468035c2e2e389897f38980d860405160405180910390a25b50505050565b600360205281600052604060002081815481106108ab57600080fd5b906000526020600020016000915091509054906101000a900473ffffffffffffffffffffffffffffffffffffffff1681565b60015481565b826002600082815260200190815260200160002060050160009054906101000a900473ffffffffffffffffffffffffffffffffffffffff1673ffffffffffffffffffffffffffffffffffffffff163373ffffffffffffffffffffffffffffffffffffffff1614610988576040517f08c379a000000000000000000000000000000000000000000000000000000000815260040161097f9061274e565b60405180910390fd5b6000600260008681526020019081526020016000209050600260048111156109b3576109b2612360565b5b8160080160009054906101000a900460ff1660048111156109d7576109d6612360565b5b14610a17576040517f08c379a0000000000000000000000000000000000000000000000000000000008152600401610a0e906127ba565b60405180910390fd5b60036004811115610a2b57610a2a612360565b5b8160080160009054906101000a900460ff166004811115610a4f57610a4e612360565b5b03610a8f576040517f08c379a0000000000000000000000000000000000000000000000000000000008152600401610a8690612826565b60405180910390fd5b8383826007019182610aa2929190612a82565b5060038160080160006101000a81548160ff02191690836004811115610acb57610aca612360565b5b021790555060008054906101000a900473ffffffffffffffffffffffffffffffffffffffff1673ffffffffffffffffffffffffffffffffffffffff1663a9059cbb8260050160009054906101000a900473ffffffffffffffffffffffffffffffffffffffff1683600401546040518363ffffffff1660e01b8152600401610b53929190612b52565b6020604051808303816000875af1158015610b72573d6000803e3d6000fd5b505050506040513d601f19601f82011682018060405250810190610b969190612ba7565b610bd5576040517f08c379a0000000000000000000000000000000000000000000000000000000008152600401610bcc90612c20565b60405180910390fd5b847f831764ac02a33c193cba23a0de34c986e9b50402bf3c9febf6ff2f63d4c0435d8585604051610c07929190612c7c565b60405180910390a2847f29a00cd7b143153a043355a38ed7fa14305cd81468035c2e2e389897f38980d860405160405180910390a25050505050565b8060026000828152602001908152602001600020600001600060028110610c6d57610c6c6124fd565b5b0160009054906101000a900473ffffffffffffffffffffffffffffffffffffffff1673ffffffffffffffffffffffffffffffffffffffff163373ffffffffffffffffffffffffffffffffffffffff161480610d3d575060026000828152602001908152602001600020600001600160028110610cec57610ceb6124fd565b5b0160009054906101000a900473ffffffffffffffffffffffffffffffffffffffff1673ffffffffffffffffffffffffffffffffffffffff163373ffffffffffffffffffffffffffffffffffffffff16145b610d7c576040517f08c379a0000000000000000000000000000000000000000000000000000000008152600401610d7390612578565b60405180910390fd5b600060026000848152602001908152602001600020905060006004811115610da757610da6612360565b5b8160080160009054906101000a900460ff166004811115610dcb57610dca612360565b5b1480610e0c575060016004811115610de657610de5612360565b5b8160080160009054906101000a900460ff166004811115610e0a57610e09612360565b5b145b610e4b576040517f08c379a0000000000000000000000000000000000000000000000000000000008152600401610e4290612cec565b60405180910390fd5b600081600001600060028110610e6457610e636124fd565b5b0160009054906101000a900473ffffffffffffffffffffffffffffffffffffffff1673ffffffffffffffffffffffffffffffffffffffff163373ffffffffffffffffffffffffffffffffffffffff1614610ef65781600001600060028110610ecf57610ece6124fd565b5b0160009054906101000a900473ffffffffffffffffffffffffffffffffffffffff16610f30565b81600001600160028110610f0d57610f0c6124fd565b5b0160009054906101000a900473ffffffffffffffffffffffffffffffffffffffff165b90508160020160008273ffffffffffffffffffffffffffffffffffffffff1673ffffffffffffffffffffffffffffffffffffffff16815260200190815260200160002060009054906101000a900460ff1615610fc1576040517f08c379a0000000000000000000000000000000000000000000000000000000008152600401610fb890612d58565b60405180910390fd5b8160020160003373ffffffffffffffffffffffffffffffffffffffff1673ffffffffffffffffffffffffffffffffffffffff16815260200190815260200160002060009054906101000a900460ff16156111615760008260020160003373ffffffffffffffffffffffffffffffffffffffff1673ffffffffffffffffffffffffffffffffffffffff16815260200190815260200160002060006101000a81548160ff0219169083151502179055506000826004015490506000836004018190555060008054906101000a900473ffffffffffffffffffffffffffffffffffffffff1673ffffffffffffffffffffffffffffffffffffffff1663a9059cbb33836040518363ffffffff1660e01b81526004016110dd929190612b52565b6020604051808303816000875af11580156110fc573d6000803e3d6000fd5b505050506040513d601f19601f820116820180604052508101906111209190612ba7565b61115f576040517f08c379a000000000000000000000000000000000000000000000000000000000815260040161115690612dc4565b60405180910390fd5b505b60048260080160006101000a81548160ff0219169083600481111561118957611188612360565b5b0217905550837f7fe0314ddd8432eac273e729cc289f5a8f8a7860761b74472f4782fbaccd2c5f60405160405180910390a2837f29a00cd7b143153a043355a38ed7fa14305cd81468035c2e2e389897f38980d860405160405180910390a250505050565b8160026000828152602001908152602001600020600001600060028110611218576112176124fd565b5b0160009054906101000a900473ffffffffffffffffffffffffffffffffffffffff1673ffffffffffffffffffffffffffffffffffffffff163373ffffffffffffffffffffffffffffffffffffffff1614806112e8575060026000828152602001908152602001600020600001600160028110611297576112966124fd565b5b0160009054906101000a900473ffffffffffffffffffffffffffffffffffffffff1673ffffffffffffffffffffffffffffffffffffffff163373ffffffffffffffffffffffffffffffffffffffff16145b611327576040517f08c379a000000000000000000000000000000000000000000000000000000000815260040161131e90612578565b60405180910390fd5b60006002600085815260200190815260200160002090506000600481111561135257611351612360565b5b8160080160009054906101000a900460ff16600481111561137657611375612360565b5b146113b6576040517f08c379a00000000000000000000000000000000000000000000000000000000081526004016113ad90612e30565b60405180910390fd5b8060020160003373ffffffffffffffffffffffffffffffffffffffff1673ffffffffffffffffffffffffffffffffffffffff16815260200190815260200160002060009054906101000a900460ff1615611445576040517f08c379a000000000000000000000000000000000000000000000000000000000815260040161143c90612e9c565b60405180910390fd5b60008311611488576040517f08c379a000000000000000000000000000000000000000000000000000000000815260040161147f90612f08565b60405180910390fd5b60008054906101000a900473ffffffffffffffffffffffffffffffffffffffff1673ffffffffffffffffffffffffffffffffffffffff166323b872dd3330866040518463ffffffff1660e01b81526004016114e593929190612f28565b6020604051808303816000875af1158015611504573d6000803e3d6000fd5b505050506040513d601f19601f820116820180604052508101906115289190612ba7565b611567576040517f08c379a000000000000000000000000000000000000000000000000000000000815260040161155e90612fab565b60405180910390fd5b60018160020160003373ffffffffffffffffffffffffffffffffffffffff1673ffffffffffffffffffffffffffffffffffffffff16815260200190815260200160002060006101000a81548160ff021916908315150217905550828160040160008282546115d59190612ffa565b925050819055503373ffffffffffffffffffffffffffffffffffffffff16847f377ef0adce1eae318afaad309c3b0f6c378fa1a294064deccda8d15ad28858eb856040516116239190612118565b60405180910390a3837f29a00cd7b143153a043355a38ed7fa14305cd81468035c2e2e389897f38980d860405160405180910390a280600201600082600001600060028110611675576116746124fd565b5b0160009054906101000a900473ffffffffffffffffffffffffffffffffffffffff1673ffffffffffffffffffffffffffffffffffffffff1673ffffffffffffffffffffffffffffffffffffffff16815260200190815260200160002060009054906101000a900460ff16801561176e575080600201600082600001600160028110611703576117026124fd565b5b0160009054906101000a900473ffffffffffffffffffffffffffffffffffffffff1673ffffffffffffffffffffffffffffffffffffffff1673ffffffffffffffffffffffffffffffffffffffff16815260200190815260200160002060009054906101000a900460ff165b156117a15760018160080160006101000a81548160ff0219169083600481111561179b5761179a612360565b5b02179055505b50505050565b6117af611e7e565b60006060806000806000806000806000600260008d81526020019081526020016000209050806000018160050160009054906101000a900473ffffffffffffffffffffffffffffffffffffffff16826006018360070184600401548560080160009054906101000a900460ff1686600201600088600001600060028110611839576118386124fd565b5b0160009054906101000a900473ffffffffffffffffffffffffffffffffffffffff1673ffffffffffffffffffffffffffffffffffffffff1673ffffffffffffffffffffffffffffffffffffffff16815260200190815260200160002060009054906101000a900460ff16876002016000896000016001600281106118c0576118bf6124fd565b5b0160009054906101000a900473ffffffffffffffffffffffffffffffffffffffff1673ffffffffffffffffffffffffffffffffffffffff1673ffffffffffffffffffffffffffffffffffffffff16815260200190815260200160002060009054906101000a900460ff168860030160008a600001600060028110611947576119466124fd565b5b0160009054906101000a900473ffffffffffffffffffffffffffffffffffffffff1673ffffffffffffffffffffffffffffffffffffffff1673ffffffffffffffffffffffffffffffffffffffff16815260200190815260200160002060009054906101000a900460ff168960030160008b6000016001600281106119ce576119cd6124fd565b5b0160009054906101000a900473ffffffffffffffffffffffffffffffffffffffff1673ffffffffffffffffffffffffffffffffffffffff1673ffffffffffffffffffffffffffffffffffffffff16815260200190815260200160002060009054906101000a900460ff1689600280602002604051908101604052809291908260028015611aa6576020028201915b8160009054906101000a900473ffffffffffffffffffffffffffffffffffffffff1673ffffffffffffffffffffffffffffffffffffffff1681526020019060010190808311611a5c575b50505050509950878054611ab9906128af565b80601f0160208091040260200160405190810160405280929190818152602001828054611ae5906128af565b8015611b325780601f10611b0757610100808354040283529160200191611b32565b820191906000526020600020905b815481529060010190602001808311611b1557829003601f168201915b50505050509750868054611b45906128af565b80601f0160208091040260200160405190810160405280929190818152602001828054611b71906128af565b8015611bbe5780601f10611b9357610100808354040283529160200191611bbe565b820191906000526020600020905b815481529060010190602001808311611ba157829003601f168201915b505050505096509a509a509a509a509a509a509a509a509a509a50509193959799509193959799565b60008373ffffffffffffffffffffffffffffffffffffffff163373ffffffffffffffffffffffffffffffffffffffff1603611c57576040517f08c379a0000000000000000000000000000000000000000000000000000000008152600401611c4e9061307a565b60405180910390fd5b600060016000815480929190611c6c9061309a565b91905055905060006002600083815260200190815260200160002090503381600001600060028110611ca157611ca06124fd565b5b0160006101000a81548173ffffffffffffffffffffffffffffffffffffffff021916908373ffffffffffffffffffffffffffffffffffffffff1602179055508581600001600160028110611cf857611cf76124fd565b5b0160006101000a81548173ffffffffffffffffffffffffffffffffffffffff021916908373ffffffffffffffffffffffffffffffffffffffff1602179055508484826006019182611d4a929190612a82565b5060008160080160006101000a81548160ff02191690836004811115611d7357611d72612360565b5b021790555060405180604001604052803373ffffffffffffffffffffffffffffffffffffffff1673ffffffffffffffffffffffffffffffffffffffff1681526020018773ffffffffffffffffffffffffffffffffffffffff1673ffffffffffffffffffffffffffffffffffffffff1681525060036000848152602001908152602001600020906002611e06929190611ea0565b50817ff5a652e9be4dc80976de59ea0ab8ef105314d3e99785ac7ed699796f04364f1a33888888604051611e3d94939291906130e2565b60405180910390a2817f29a00cd7b143153a043355a38ed7fa14305cd81468035c2e2e389897f38980d860405160405180910390a281925050509392505050565b6040518060400160405280600290602082028036833780820191505090505090565b828054828255906000526020600020908101928215611f19579160200282015b82811115611f185782518260006101000a81548173ffffffffffffffffffffffffffffffffffffffff021916908373ffffffffffffffffffffffffffffffffffffffff16021790555091602001919060010190611ec0565b5b509050611f269190611f2a565b5090565b5b80821115611f43576000816000905550600101611f2b565b5090565b600073ffffffffffffffffffffffffffffffffffffffff82169050919050565b6000819050919050565b6000611f8c611f87611f8284611f47565b611f67565b611f47565b9050919050565b6000611f9e82611f71565b9050919050565b6000611fb082611f93565b9050919050565b611fc081611fa5565b82525050565b6000602082019050611fdb6000830184611fb7565b92915050565b600080fd5b600080fd5b6000819050919050565b611ffe81611feb565b811461200957600080fd5b50565b60008135905061201b81611ff5565b92915050565b600061202c82611f47565b9050919050565b61203c81612021565b811461204757600080fd5b50565b60008135905061205981612033565b92915050565b6000806040838503121561207657612075611fe1565b5b60006120848582860161200c565b92505060206120958582860161204a565b9150509250929050565b600080604083850312156120b6576120b5611fe1565b5b60006120c48582860161200c565b92505060206120d58582860161200c565b9150509250929050565b6120e881612021565b82525050565b600060208201905061210360008301846120df565b92915050565b61211281611feb565b82525050565b600060208201905061212d6000830184612109565b92915050565b600080fd5b600080fd5b600080fd5b60008083601f84011261215857612157612133565b5b8235905067ffffffffffffffff81111561217557612174612138565b5b6020830191508360018202830111156121915761219061213d565b5b9250929050565b6000806000604084860312156121b1576121b0611fe1565b5b60006121bf8682870161200c565b935050602084013567ffffffffffffffff8111156121e0576121df611fe6565b5b6121ec86828701612142565b92509250509250925092565b60006020828403121561220e5761220d611fe1565b5b600061221c8482850161200c565b91505092915050565b600060029050919050565b600081905092915050565b6000819050919050565b61224e81612021565b82525050565b60006122608383612245565b60208301905092915050565b6000602082019050919050565b61228281612225565b61228c8184612230565b92506122978261223b565b8060005b838110156122c85781516122af8782612254565b96506122ba8361226c565b92505060018101905061229b565b505050505050565b600081519050919050565b600082825260208201905092915050565b60005b8381101561230a5780820151818401526020810190506122ef565b60008484015250505050565b6000601f19601f8301169050919050565b6000612332826122d0565b61233c81856122db565b935061234c8185602086016122ec565b61235581612316565b840191505092915050565b7f4e487b7100000000000000000000000000000000000000000000000000000000600052602160045260246000fd5b600581106123a05761239f612360565b5b50565b60008190506123b18261238f565b919050565b60006123c1826123a3565b9050919050565b6123d1816123b6565b82525050565b60008115159050919050565b6123ec816123d7565b82525050565b600061016082019050612408600083018d612279565b612415604083018c6120df565b8181036060830152612427818b612327565b9050818103608083015261243b818a612327565b905061244a60a0830189612109565b61245760c08301886123c8565b61246460e08301876123e3565b6124726101008301866123e3565b6124806101208301856123e3565b61248e6101408301846123e3565b9b9a5050505050505050505050565b6000806000604084860312156124b6576124b5611fe1565b5b60006124c48682870161204a565b935050602084013567ffffffffffffffff8111156124e5576124e4611fe6565b5b6124f186828701612142565b92509250509250925092565b7f4e487b7100000000000000000000000000000000000000000000000000000000600052603260045260246000fd5b7f4e6f742061207061727479000000000000000000000000000000000000000000600082015250565b6000612562600b836122db565b915061256d8261252c565b602082019050919050565b6000602082019050818103600083015261259181612555565b9050919050565b7f4e6f74206177616974696e67206d65646961746f720000000000000000000000600082015250565b60006125ce6015836122db565b91506125d982612598565b602082019050919050565b600060208201905081810360008301526125fd816125c1565b9050919050565b7f4d65646961746f72206d69736d61746368000000000000000000000000000000600082015250565b600061263a6011836122db565b915061264582612604565b602082019050919050565b600060208201905081810360008301526126698161262d565b9050919050565b7f4d65646961746f722063616e6e6f742062652061207061727479206d656d626560008201527f7200000000000000000000000000000000000000000000000000000000000000602082015250565b60006126cc6021836122db565b91506126d782612670565b604082019050919050565b600060208201905081810360008301526126fb816126bf565b9050919050565b7f4f6e6c79206d65646961746f722063616e2063616c6c20746869730000000000600082015250565b6000612738601b836122db565b915061274382612702565b602082019050919050565b600060208201905081810360008301526127678161272b565b9050919050565b7f44697370757465206e6f74207265616479000000000000000000000000000000600082015250565b60006127a46011836122db565b91506127af8261276e565b602082019050919050565b600060208201905081810360008301526127d381612797565b9050919050565b7f416c7265616479207265736f6c76656400000000000000000000000000000000600082015250565b60006128106010836122db565b915061281b826127da565b602082019050919050565b6000602082019050818103600083015261283f81612803565b9050919050565b600082905092915050565b7f4e487b7100000000000000000000000000000000000000000000000000000000600052604160045260246000fd5b7f4e487b7100000000000000000000000000000000000000000000000000000000600052602260045260246000fd5b600060028204905060018216806128c757607f821691505b6020821081036128da576128d9612880565b5b50919050565b60008190508160005260206000209050919050565b60006020601f8301049050919050565b600082821b905092915050565b6000600883026129427fffffffffffffffffffffffffffffffffffffffffffffffffffffffffffffffff82612905565b61294c8683612905565b95508019841693508086168417925050509392505050565b600061297f61297a61297584611feb565b611f67565b611feb565b9050919050565b6000819050919050565b61299983612964565b6129ad6129a582612986565b848454612912565b825550505050565b600090565b6129c26129b5565b6129cd818484612990565b505050565b5b818110156129f1576129e66000826129ba565b6001810190506129d3565b5050565b601f821115612a3657612a07816128e0565b612a10846128f5565b81016020851015612a1f578190505b612a33612a2b856128f5565b8301826129d2565b50505b505050565b600082821c905092915050565b6000612a5960001984600802612a3b565b1980831691505092915050565b6000612a728383612a48565b9150826002028217905092915050565b612a8c8383612846565b67ffffffffffffffff811115612aa557612aa4612851565b5b612aaf82546128af565b612aba8282856129f5565b6000601f831160018114612ae95760008415612ad7578287013590505b612ae18582612a66565b865550612b49565b601f198416612af7866128e0565b60005b82811015612b1f57848901358255600182019150602085019450602081019050612afa565b86831015612b3c5784890135612b38601f891682612a48565b8355505b6001600288020188555050505b50505050505050565b6000604082019050612b6760008301856120df565b612b746020830184612109565b9392505050565b612b84816123d7565b8114612b8f57600080fd5b50565b600081519050612ba181612b7b565b92915050565b600060208284031215612bbd57612bbc611fe1565b5b6000612bcb84828501612b92565b91505092915050565b7f55534443207061796f7574206661696c65640000000000000000000000000000600082015250565b6000612c0a6012836122db565b9150612c1582612bd4565b602082019050919050565b60006020820190508181036000830152612c3981612bfd565b9050919050565b82818337600083830152505050565b6000612c5b83856122db565b9350612c68838584612c40565b612c7183612316565b840190509392505050565b60006020820190508181036000830152612c97818486612c4f565b90509392505050565b7f43616e6e6f742063616e63656c206e6f77000000000000000000000000000000600082015250565b6000612cd66011836122db565b9150612ce182612ca0565b602082019050919050565b60006020820190508181036000830152612d0581612cc9565b9050919050565b7f4f7468657220706172747920616c726561647920706169640000000000000000600082015250565b6000612d426018836122db565b9150612d4d82612d0c565b602082019050919050565b60006020820190508181036000830152612d7181612d35565b9050919050565b7f5553444320726566756e64206661696c65640000000000000000000000000000600082015250565b6000612dae6012836122db565b9150612db982612d78565b602082019050919050565b60006020820190508181036000830152612ddd81612da1565b9050919050565b7f46756e64696e6720636c6f736564000000000000000000000000000000000000600082015250565b6000612e1a600e836122db565b9150612e2582612de4565b602082019050919050565b60006020820190508181036000830152612e4981612e0d565b9050919050565b7f416c726561647920706169640000000000000000000000000000000000000000600082015250565b6000612e86600c836122db565b9150612e9182612e50565b602082019050919050565b60006020820190508181036000830152612eb581612e79565b9050919050565b7f4d757374206465706f736974206e6f6e2d7a65726f20616d6f756e7400000000600082015250565b6000612ef2601c836122db565b9150612efd82612ebc565b602082019050919050565b60006020820190508181036000830152612f2181612ee5565b9050919050565b6000606082019050612f3d60008301866120df565b612f4a60208301856120df565b612f576040830184612109565b949350505050565b7f5472616e73666572206661696c65640000000000000000000000000000000000600082015250565b6000612f95600f836122db565b9150612fa082612f5f565b602082019050919050565b60006020820190508181036000830152612fc481612f88565b9050919050565b7f4e487b7100000000000000000000000000000000000000000000000000000000600052601160045260246000fd5b600061300582611feb565b915061301083611feb565b925082820190508082111561302857613027612fcb565b5b92915050565b7f43616e6e6f742064697370757465207769746820796f757273656c6600000000600082015250565b6000613064601c836122db565b915061306f8261302e565b602082019050919050565b6000602082019050818103600083015261309381613057565b9050919050565b60006130a582611feb565b91507fffffffffffffffffffffffffffffffffffffffffffffffffffffffffffffffff82036130d7576130d6612fcb565b5b600182019050919050565b60006060820190506130f760008301876120df565b61310460208301866120df565b8181036040830152613117818486612c4f565b90509594505050505056fea2646970667358221220adea7f0b5a5cbc507d02a0bedf33b8bdb401ee7a2bfd4fbdfe667e820e15c97664736f6c63430008140033",
          "opcodes": "PUSH1 0x80 PUSH1 0x40 MSTORE CALLVALUE DUP1 ISZERO PUSH3 0x11 JUMPI PUSH1 0x0 DUP1 REVERT JUMPDEST POP PUSH1 0x40 MLOAD PUSH3 0x3282 CODESIZE SUB DUP1 PUSH3 0x3282 DUP4 CODECOPY DUP2 DUP2 ADD PUSH1 0x40 MSTORE DUP2 ADD SWAP1 PUSH3 0x37 SWAP2 SWAP1 PUSH3 0xE8 JUMP JUMPDEST DUP1 PUSH1 0x0 DUP1 PUSH2 0x100 EXP DUP2 SLOAD DUP2 PUSH20 0xFFFFFFFFFFFFFFFFFFFFFFFFFFFFFFFFFFFFFFFF MUL NOT AND SWAP1 DUP4 PUSH20 0xFFFFFFFFFFFFFFFFFFFFFFFFFFFFFFFFFFFFFFFF AND MUL OR SWAP1 SSTORE POP POP PUSH3 0x11A JUMP JUMPDEST PUSH1 0x0 DUP1 REVERT JUMPDEST PUSH1 0x0 PUSH20 0xFFFFFFFFFFFFFFFFFFFFFFFFFFFFFFFFFFFFFFFF DUP3 AND SWAP1 POP SWAP2 SWAP1 POP JUMP JUMPDEST PUSH1 0x0 PUSH3 0xB0 DUP3 PUSH3 0x83 JUMP JUMPDEST SWAP1 POP SWAP2 SWAP1 POP JUMP JUMPDEST PUSH3 0xC2 DUP2 PUSH3 0xA3 JUMP JUMPDEST DUP2 EQ PUSH3 0xCE JUMPI PUSH1 0x0 DUP1 REVERT JUMPDEST POP JUMP JUMPDEST PUSH1 0x0 DUP2 MLOAD SWAP1 POP PUSH3 0xE2 DUP2 PUSH3 0xB7 JUMP JUMPDEST SWAP3 SWAP2 POP POP JUMP JUMPDEST PUSH1 0x0 PUSH1 0x20 DUP3 DUP5 SUB SLT ISZERO PUSH3 0x101 JUMPI PUSH3 0x100 PUSH3 0x7E JUMP JUMPDEST JUMPDEST PUSH1 0x0 PUSH3 0x111 DUP5 DUP3 DUP6 ADD PUSH3 0xD1 JUMP JUMPDEST SWAP2 POP POP SWAP3 SWAP2 POP POP JUMP JUMPDEST PUSH2 0x3158 DUP1 PUSH3 0x12A PUSH1 0x0 CODECOPY PUSH1 0x0 RETURN INVALID PUSH1 0x80 PUSH1 0x40 MSTORE CALLVALUE DUP1 ISZERO PUSH2 0x10 JUMPI PUSH1 0x0 DUP1 REVERT JUMPDEST POP PUSH1 0x4 CALLDATASIZE LT PUSH2 0x93 JUMPI PUSH1 0x0 CALLDATALOAD PUSH1 0xE0 SHR DUP1 PUSH4 0xCF51B45D GT PUSH2 0x66 JUMPI DUP1 PUSH4 0xCF51B45D EQ PUSH2 0x120 JUMPI DUP1 PUSH4 0xDF02935C EQ PUSH2 0x13C JUMPI DUP1 PUSH4 0xE2BBB158 EQ PUSH2 0x158 JUMPI DUP1 PUSH4 0xE3A96CBD EQ PUSH2 0x174 JUMPI DUP1 PUSH4 0xEAD3489A EQ PUSH2 0x1AD JUMPI PUSH2 0x93 JUMP JUMPDEST DUP1 PUSH4 0x11EAC855 EQ PUSH2 0x98 JUMPI DUP1 PUSH4 0x602EE025 EQ PUSH2 0xB6 JUMPI DUP1 PUSH4 0x70FD07CC EQ PUSH2 0xD2 JUMPI DUP1 PUSH4 0xA28889E1 EQ PUSH2 0x102 JUMPI JUMPDEST PUSH1 0x0 DUP1 REVERT JUMPDEST PUSH2 0xA0 PUSH2 0x1DD JUMP JUMPDEST PUSH1 0x40 MLOAD PUSH2 0xAD SWAP2 SWAP1 PUSH2 0x1FC6 JUMP JUMPDEST PUSH1 0x40 MLOAD DUP1 SWAP2 SUB SWAP1 RETURN JUMPDEST PUSH2 0xD0 PUSH1 0x4 DUP1 CALLDATASIZE SUB DUP2 ADD SWAP1 PUSH2 0xCB SWAP2 SWAP1 PUSH2 0x205F JUMP JUMPDEST PUSH2 0x201 JUMP JUMPDEST STOP JUMPDEST PUSH2 0xEC PUSH1 0x4 DUP1 CALLDATASIZE SUB DUP2 ADD SWAP1 PUSH2 0xE7 SWAP2 SWAP1 PUSH2 0x209F JUMP JUMPDEST PUSH2 0x88F JUMP JUMPDEST PUSH1 0x40 MLOAD PUSH2 0xF9 SWAP2 SWAP1 PUSH2 0x20EE JUMP JUMPDEST PUSH1 0x40 MLOAD DUP1 SWAP2 SUB SWAP1 RETURN JUMPDEST PUSH2 0x10A PUSH2 0x8DD JUMP JUMPDEST PUSH1 0x40 MLOAD PUSH2 0x117 SWAP2 SWAP1 PUSH2 0x2118 JUMP JUMPDEST PUSH1 0x40 MLOAD DUP1 SWAP2 SUB SWAP1 RETURN JUMPDEST PUSH2 0x13A PUSH1 0x4 DUP1 CALLDATASIZE SUB DUP2 ADD SWAP1 PUSH2 0x135 SWAP2 SWAP1 PUSH2 0x2198 JUMP JUMPDEST PUSH2 0x8E3 JUMP JUMPDEST STOP JUMPDEST PUSH2 0x156 PUSH1 0x4 DUP1 CALLDATASIZE SUB DUP2 ADD SWAP1 PUSH2 0x151 SWAP2 SWAP1 PUSH2 0x21F8 JUMP JUMPDEST PUSH2 0xC43 JUMP JUMPDEST STOP JUMPDEST PUSH2 0x172 PUSH1 0x4 DUP1 CALLDATASIZE SUB DUP2 ADD SWAP1 PUSH2 0x16D SWAP2 SWAP1 PUSH2 0x209F JUMP JUMPDEST PUSH2 0x11EE JUMP JUMPDEST STOP JUMPDEST PUSH2 0x18E PUSH1 0x4 DUP1 CALLDATASIZE SUB DUP2 ADD SWAP1 PUSH2 0x189 SWAP2 SWAP1 PUSH2 0x21F8 JUMP JUMPDEST PUSH2 0x17A7 JUMP JUMPDEST PUSH1 0x40 MLOAD PUSH2 0x1A4 SWAP11 SWAP10 SWAP9 SWAP8 SWAP7 SWAP6 SWAP5 SWAP4 SWAP3 SWAP2 SWAP1 PUSH2 0x23F2 JUMP JUMPDEST PUSH1 0x40 MLOAD DUP1 SWAP2 SUB SWAP1 RETURN JUMPDEST PUSH2 0x1C7 PUSH1 0x4 DUP1 CALLDATASIZE SUB DUP2 ADD SWAP1 PUSH2 0x1C2 SWAP2 SWAP1 PUSH2 0x249D JUMP JUMPDEST PUSH2 0x1BE7 JUMP JUMPDEST PUSH1 0x40 MLOAD PUSH2 0x1D4 SWAP2 SWAP1 PUSH2 0x2118 JUMP JUMPDEST PUSH1 0x40 MLOAD DUP1 SWAP2 SUB SWAP1 RETURN JUMPDEST PUSH1 0x0 DUP1 SLOAD SWAP1 PUSH2 0x100 EXP SWAP1 DIV PUSH20 0xFFFFFFFFFFFFFFFFFFFFFFFFFFFFFFFFFFFFFFFF AND DUP2 JUMP JUMPDEST DUP2 PUSH1 0x2 PUSH1 0x0 DUP3 DUP2 MSTORE PUSH1 0x20 ADD SWAP1 DUP2 MSTORE PUSH1 0x20 ADD PUSH1 0x0 KECCAK256 PUSH1 0x0 ADD PUSH1 0x0 PUSH1 0x2 DUP2 LT PUSH2 0x22B JUMPI PUSH2 0x22A PUSH2 0x24FD JUMP JUMPDEST JUMPDEST ADD PUSH1 0x0 SWAP1 SLOAD SWAP1 PUSH2 0x100 EXP SWAP1 DIV PUSH20 0xFFFFFFFFFFFFFFFFFFFFFFFFFFFFFFFFFFFFFFFF AND PUSH20 0xFFFFFFFFFFFFFFFFFFFFFFFFFFFFFFFFFFFFFFFF AND CALLER PUSH20 0xFFFFFFFFFFFFFFFFFFFFFFFFFFFFFFFFFFFFFFFF AND EQ DUP1 PUSH2 0x2FB JUMPI POP PUSH1 0x2 PUSH1 0x0 DUP3 DUP2 MSTORE PUSH1 0x20 ADD SWAP1 DUP2 MSTORE PUSH1 0x20 ADD PUSH1 0x0 KECCAK256 PUSH1 0x0 ADD PUSH1 0x1 PUSH1 0x2 DUP2 LT PUSH2 0x2AA JUMPI PUSH2 0x2A9 PUSH2 0x24FD JUMP JUMPDEST JUMPDEST ADD PUSH1 0x0 SWAP1 SLOAD SWAP1 PUSH2 0x100 EXP SWAP1 DIV PUSH20 0xFFFFFFFFFFFFFFFFFFFFFFFFFFFFFFFFFFFFFFFF AND PUSH20 0xFFFFFFFFFFFFFFFFFFFFFFFFFFFFFFFFFFFFFFFF AND CALLER PUSH20 0xFFFFFFFFFFFFFFFFFFFFFFFFFFFFFFFFFFFFFFFF AND EQ JUMPDEST PUSH2 0x33A JUMPI PUSH1 0x40 MLOAD PUSH32 0x8C379A000000000000000000000000000000000000000000000000000000000 DUP2 MSTORE PUSH1 0x4 ADD PUSH2 0x331 SWAP1 PUSH2 0x2578 JUMP JUMPDEST PUSH1 0x40 MLOAD DUP1 SWAP2 SUB SWAP1 REVERT JUMPDEST PUSH1 0x0 PUSH1 0x2 PUSH1 0x0 DUP6 DUP2 MSTORE PUSH1 0x20 ADD SWAP1 DUP2 MSTORE PUSH1 0x20 ADD PUSH1 0x0 KECCAK256 SWAP1 POP PUSH1 0x1 PUSH1 0x4 DUP2 GT ISZERO PUSH2 0x365 JUMPI PUSH2 0x364 PUSH2 0x2360 JUMP JUMPDEST JUMPDEST DUP2 PUSH1 0x8 ADD PUSH1 0x0 SWAP1 SLOAD SWAP1 PUSH2 0x100 EXP SWAP1 DIV PUSH1 0xFF AND PUSH1 0x4 DUP2 GT ISZERO PUSH2 0x389 JUMPI PUSH2 0x388 PUSH2 0x2360 JUMP JUMPDEST JUMPDEST EQ PUSH2 0x3C9 JUMPI PUSH1 0x40 MLOAD PUSH32 0x8C379A000000000000000000000000000000000000000000000000000000000 DUP2 MSTORE PUSH1 0x4 ADD PUSH2 0x3C0 SWAP1 PUSH2 0x25E4 JUMP JUMPDEST PUSH1 0x40 MLOAD DUP1 SWAP2 SUB SWAP1 REVERT JUMPDEST PUSH1 0x0 PUSH20 0xFFFFFFFFFFFFFFFFFFFFFFFFFFFFFFFFFFFFFFFF AND DUP2 PUSH1 0x5 ADD PUSH1 0x0 SWAP1 SLOAD SWAP1 PUSH2 0x100 EXP SWAP1 DIV PUSH20 0xFFFFFFFFFFFFFFFFFFFFFFFFFFFFFFFFFFFFFFFF AND PUSH20 0xFFFFFFFFFFFFFFFFFFFFFFFFFFFFFFFFFFFFFFFF AND EQ DUP1 PUSH2 0x477 JUMPI POP DUP3 PUSH20 0xFFFFFFFFFFFFFFFFFFFFFFFFFFFFFFFFFFFFFFFF AND DUP2 PUSH1 0x5 ADD PUSH1 0x0 SWAP1 SLOAD SWAP1 PUSH2 0x100 EXP SWAP1 DIV PUSH20 0xFFFFFFFFFFFFFFFFFFFFFFFFFFFFFFFFFFFFFFFF AND PUSH20 0xFFFFFFFFFFFFFFFFFFFFFFFFFFFFFFFFFFFFFFFF AND EQ JUMPDEST PUSH2 0x4B6 JUMPI PUSH1 0x40 MLOAD PUSH32 0x8C379A000000000000000000000000000000000000000000000000000000000 DUP2 MSTORE PUSH1 0x4 ADD PUSH2 0x4AD SWAP1 PUSH2 0x2650 JUMP JUMPDEST PUSH1 0x40 MLOAD DUP1 SWAP2 SUB SWAP1 REVERT JUMPDEST DUP1 PUSH1 0x0 ADD PUSH1 0x0 PUSH1 0x2 DUP2 LT PUSH2 0x4CD JUMPI PUSH2 0x4CC PUSH2 0x24FD JUMP JUMPDEST JUMPDEST ADD PUSH1 0x0 SWAP1 SLOAD SWAP1 PUSH2 0x100 EXP SWAP1 DIV PUSH20 0xFFFFFFFFFFFFFFFFFFFFFFFFFFFFFFFFFFFFFFFF AND PUSH20 0xFFFFFFFFFFFFFFFFFFFFFFFFFFFFFFFFFFFFFFFF AND DUP4 PUSH20 0xFFFFFFFFFFFFFFFFFFFFFFFFFFFFFFFFFFFFFFFF AND EQ ISZERO DUP1 ISZERO PUSH2 0x58E JUMPI POP DUP1 PUSH1 0x0 ADD PUSH1 0x1 PUSH1 0x2 DUP2 LT PUSH2 0x53C JUMPI PUSH2 0x53B PUSH2 0x24FD JUMP JUMPDEST JUMPDEST ADD PUSH1 0x0 SWAP1 SLOAD SWAP1 PUSH2 0x100 EXP SWAP1 DIV PUSH20 0xFFFFFFFFFFFFFFFFFFFFFFFFFFFFFFFFFFFFFFFF AND PUSH20 0xFFFFFFFFFFFFFFFFFFFFFFFFFFFFFFFFFFFFFFFF AND DUP4 PUSH20 0xFFFFFFFFFFFFFFFFFFFFFFFFFFFFFFFFFFFFFFFF AND EQ ISZERO JUMPDEST PUSH2 0x5CD JUMPI PUSH1 0x40 MLOAD PUSH32 0x8C379A000000000000000000000000000000000000000000000000000000000 DUP2 MSTORE PUSH1 0x4 ADD PUSH2 0x5C4 SWAP1 PUSH2 0x26E2 JUMP JUMPDEST PUSH1 0x40 MLOAD DUP1 SWAP2 SUB SWAP1 REVERT JUMPDEST DUP3 DUP2 PUSH1 0x5 ADD PUSH1 0x0 PUSH2 0x100 EXP DUP2 SLOAD DUP2 PUSH20 0xFFFFFFFFFFFFFFFFFFFFFFFFFFFFFFFFFFFFFFFF MUL NOT AND SWAP1 DUP4 PUSH20 0xFFFFFFFFFFFFFFFFFFFFFFFFFFFFFFFFFFFFFFFF AND MUL OR SWAP1 SSTORE POP PUSH1 0x1 DUP2 PUSH1 0x3 ADD PUSH1 0x0 CALLER PUSH20 0xFFFFFFFFFFFFFFFFFFFFFFFFFFFFFFFFFFFFFFFF AND PUSH20 0xFFFFFFFFFFFFFFFFFFFFFFFFFFFFFFFFFFFFFFFF AND DUP2 MSTORE PUSH1 0x20 ADD SWAP1 DUP2 MSTORE PUSH1 0x20 ADD PUSH1 0x0 KECCAK256 PUSH1 0x0 PUSH2 0x100 EXP DUP2 SLOAD DUP2 PUSH1 0xFF MUL NOT AND SWAP1 DUP4 ISZERO ISZERO MUL OR SWAP1 SSTORE POP CALLER PUSH20 0xFFFFFFFFFFFFFFFFFFFFFFFFFFFFFFFFFFFFFFFF AND DUP5 PUSH32 0xB9860328D5325CA7D8F3F5FC1040667291A244D3862E6B2810E6F59685A9568F PUSH1 0x40 MLOAD PUSH1 0x40 MLOAD DUP1 SWAP2 SUB SWAP1 LOG3 DUP4 PUSH32 0x29A00CD7B143153A043355A38ED7FA14305CD81468035C2E2E389897F38980D8 PUSH1 0x40 MLOAD PUSH1 0x40 MLOAD DUP1 SWAP2 SUB SWAP1 LOG2 DUP1 PUSH1 0x3 ADD PUSH1 0x0 DUP3 PUSH1 0x0 ADD PUSH1 0x0 PUSH1 0x2 DUP2 LT PUSH2 0x6F8 JUMPI PUSH2 0x6F7 PUSH2 0x24FD JUMP JUMPDEST JUMPDEST ADD PUSH1 0x0 SWAP1 SLOAD SWAP1 PUSH2 0x100 EXP SWAP1 DIV PUSH20 0xFFFFFFFFFFFFFFFFFFFFFFFFFFFFFFFFFFFFFFFF AND PUSH20 0xFFFFFFFFFFFFFFFFFFFFFFFFFFFFFFFFFFFFFFFF AND PUSH20 0xFFFFFFFFFFFFFFFFFFFFFFFFFFFFFFFFFFFFFFFF AND DUP2 MSTORE PUSH1 0x20 ADD SWAP1 DUP2 MSTORE PUSH1 0x20 ADD PUSH1 0x0 KECCAK256 PUSH1 0x0 SWAP1 SLOAD SWAP1 PUSH2 0x100 EXP SWAP1 DIV PUSH1 0xFF AND DUP1 ISZERO PUSH2 0x7F1 JUMPI POP DUP1 PUSH1 0x3 ADD PUSH1 0x0 DUP3 PUSH1 0x0 ADD PUSH1 0x1 PUSH1 0x2 DUP2 LT PUSH2 0x786 JUMPI PUSH2 0x785 PUSH2 0x24FD JUMP JUMPDEST JUMPDEST ADD PUSH1 0x0 SWAP1 SLOAD SWAP1 PUSH2 0x100 EXP SWAP1 DIV PUSH20 0xFFFFFFFFFFFFFFFFFFFFFFFFFFFFFFFFFFFFFFFF AND PUSH20 0xFFFFFFFFFFFFFFFFFFFFFFFFFFFFFFFFFFFFFFFF AND PUSH20 0xFFFFFFFFFFFFFFFFFFFFFFFFFFFFFFFFFFFFFFFF AND DUP2 MSTORE PUSH1 0x20 ADD SWAP1 DUP2 MSTORE PUSH1 0x20 ADD PUSH1 0x0 KECCAK256 PUSH1 0x0 SWAP1 SLOAD SWAP1 PUSH2 0x100 EXP SWAP1 DIV PUSH1 0xFF AND JUMPDEST ISZERO PUSH2 0x889 JUMPI PUSH1 0x2 DUP2 PUSH1 0x8 ADD PUSH1 0x0 PUSH2 0x100 EXP DUP2 SLOAD DUP2 PUSH1 0xFF MUL NOT AND SWAP1 DUP4 PUSH1 0x4 DUP2 GT ISZERO PUSH2 0x81E JUMPI PUSH2 0x81D PUSH2 0x2360 JUMP JUMPDEST JUMPDEST MUL OR SWAP1 SSTORE POP DUP4 PUSH32 0xBDEC1F29CA9B6D70A64BDF26A79D961FEB840A8D6FAE08F502D436FD481C9EFE DUP5 PUSH1 0x40 MLOAD PUSH2 0x853 SWAP2 SWAP1 PUSH2 0x20EE JUMP JUMPDEST PUSH1 0x40 MLOAD DUP1 SWAP2 SUB SWAP1 LOG2 DUP4 PUSH32 0x29A00CD7B143153A043355A38ED7FA14305CD81468035C2E2E389897F38980D8 PUSH1 0x40 MLOAD PUSH1 0x40 MLOAD DUP1 SWAP2 SUB SWAP1 LOG2 JUMPDEST POP POP POP POP JUMP JUMPDEST PUSH1 0x3 PUSH1 0x20 MSTORE DUP2 PUSH1 0x0 MSTORE PUSH1 0x40 PUSH1 0x0 KECCAK256 DUP2 DUP2 SLOAD DUP2 LT PUSH2 0x8AB JUMPI PUSH1 0x0 DUP1 REVERT JUMPDEST SWAP1 PUSH1 0x0 MSTORE PUSH1 0x20 PUSH1 0x0 KECCAK256 ADD PUSH1 0x0 SWAP2 POP SWAP2 POP SWAP1 SLOAD SWAP1 PUSH2 0x100 EXP SWAP1 DIV PUSH20 0xFFFFFFFFFFFFFFFFFFFFFFFFFFFFFFFFFFFFFFFF AND DUP2 JUMP JUMPDEST PUSH1 0x1 SLOAD DUP2 JUMP JUMPDEST DUP3 PUSH1 0x2 PUSH1 0x0 DUP3 DUP2 MSTORE PUSH1 0x20 ADD SWAP1 DUP2 MSTORE PUSH1 0x20 ADD PUSH1 0x0 KECCAK256 PUSH1 0x5 ADD PUSH1 0x0 SWAP1 SLOAD SWAP1 PUSH2 0x100 EXP SWAP1 DIV PUSH20 0xFFFFFFFFFFFFFFFFFFFFFFFFFFFFFFFFFFFFFFFF AND PUSH20 0xFFFFFFFFFFFFFFFFFFFFFFFFFFFFFFFFFFFFFFFF AND CALLER PUSH20 0xFFFFFFFFFFFFFFFFFFFFFFFFFFFFFFFFFFFFFFFF AND EQ PUSH2 0x988 JUMPI PUSH1 0x40 MLOAD PUSH32 0x8C379A000000000000000000000000000000000000000000000000000000000 DUP2 MSTORE PUSH1 0x4 ADD PUSH2 0x97F SWAP1 PUSH2 0x274E JUMP JUMPDEST PUSH1 0x40 MLOAD DUP1 SWAP2 SUB SWAP1 REVERT JUMPDEST PUSH1 0x0 PUSH1 0x2 PUSH1 0x0 DUP7 DUP2 MSTORE PUSH1 0x20 ADD SWAP1 DUP2 MSTORE PUSH1 0x20 ADD PUSH1 0x0 KECCAK256 SWAP1 POP PUSH1 0x2 PUSH1 0x4 DUP2 GT ISZERO PUSH2 0x9B3 JUMPI PUSH2 0x9B2 PUSH2 0x2360 JUMP JUMPDEST JUMPDEST DUP2 PUSH1 0x8 ADD PUSH1 0x0 SWAP1 SLOAD SWAP1 PUSH2 0x100 EXP SWAP1 DIV PUSH1 0xFF AND PUSH1 0x4 DUP2 GT ISZERO PUSH2 0x9D7 JUMPI PUSH2 0x9D6 PUSH2 0x2360 JUMP JUMPDEST JUMPDEST EQ PUSH2 0xA17 JUMPI PUSH1 0x40 MLOAD PUSH32 0x8C379A000000000000000000000000000000000000000000000000000000000 DUP2 MSTORE PUSH1 0x4 ADD PUSH2 0xA0E SWAP1 PUSH2 0x27BA JUMP JUMPDEST PUSH1 0x40 MLOAD DUP1 SWAP2 SUB SWAP1 REVERT JUMPDEST PUSH1 0x3 PUSH1 0x4 DUP2 GT ISZERO PUSH2 0xA2B JUMPI PUSH2 0xA2A PUSH2 0x2360 JUMP JUMPDEST JUMPDEST DUP2 PUSH1 0x8 ADD PUSH1 0x0 SWAP1 SLOAD SWAP1 PUSH2 0x100 EXP SWAP1 DIV PUSH1 0xFF AND PUSH1 0x4 DUP2 GT ISZERO PUSH2 0xA4F JUMPI PUSH2 0xA4E PUSH2 0x2360 JUMP JUMPDEST JUMPDEST SUB PUSH2 0xA8F JUMPI PUSH1 0x40 MLOAD PUSH32 0x8C379A000000000000000000000000000000000000000000000000000000000 DUP2 MSTORE PUSH1 0x4 ADD PUSH2 0xA86 SWAP1 PUSH2 0x2826 JUMP JUMPDEST PUSH1 0x40 MLOAD DUP1 SWAP2 SUB SWAP1 REVERT JUMPDEST DUP4 DUP4 DUP3 PUSH1 0x7 ADD SWAP2 DUP3 PUSH2 0xAA2 SWAP3 SWAP2 SWAP1 PUSH2 0x2A82 JUMP JUMPDEST POP PUSH1 0x3 DUP2 PUSH1 0x8 ADD PUSH1 0x0 PUSH2 0x100 EXP DUP2 SLOAD DUP2 PUSH1 0xFF MUL NOT AND SWAP1 DUP4 PUSH1 0x4 DUP2 GT ISZERO PUSH2 0xACB JUMPI PUSH2 0xACA PUSH2 0x2360 JUMP JUMPDEST JUMPDEST MUL OR SWAP1 SSTORE POP PUSH1 0x0 DUP1 SLOAD SWAP1 PUSH2 0x100 EXP SWAP1 DIV PUSH20 0xFFFFFFFFFFFFFFFFFFFFFFFFFFFFFFFFFFFFFFFF AND PUSH20 0xFFFFFFFFFFFFFFFFFFFFFFFFFFFFFFFFFFFFFFFF AND PUSH4 0xA9059CBB DUP3 PUSH1 0x5 ADD PUSH1 0x0 SWAP1 SLOAD SWAP1 PUSH2 0x100 EXP SWAP1 DIV PUSH20 0xFFFFFFFFFFFFFFFFFFFFFFFFFFFFFFFFFFFFFFFF AND DUP4 PUSH1 0x4 ADD SLOAD PUSH1 0x40 MLOAD DUP4 PUSH4 0xFFFFFFFF AND PUSH1 0xE0 SHL DUP2 MSTORE PUSH1 0x4 ADD PUSH2 0xB53 SWAP3 SWAP2 SWAP1 PUSH2 0x2B52 JUMP JUMPDEST PUSH1 0x20 PUSH1 0x40 MLOAD DUP1 DUP4 SUB DUP2 PUSH1 0x0 DUP8 GAS CALL ISZERO DUP1 ISZERO PUSH2 0xB72 JUMPI RETURNDATASIZE PUSH1 0x0 DUP1 RETURNDATACOPY RETURNDATASIZE PUSH1 0x0 REVERT JUMPDEST POP POP POP POP PUSH1 0x40 MLOAD RETURNDATASIZE PUSH1 0x1F NOT PUSH1 0x1F DUP3 ADD AND DUP3 ADD DUP1 PUSH1 0x40 MSTORE POP DUP2 ADD SWAP1 PUSH2 0xB96 SWAP2 SWAP1 PUSH2 0x2BA7 JUMP JUMPDEST PUSH2 0xBD5 JUMPI PUSH1 0x40 MLOAD PUSH32 0x8C379A000000000000000000000000000000000000000000000000000000000 DUP2 MSTORE PUSH1 0x4 ADD PUSH2 0xBCC SWAP1 PUSH2 0x2C20 JUMP JUMPDEST PUSH1 0x40 MLOAD DUP1 SWAP2 SUB SWAP1 REVERT JUMPDEST DUP5 PUSH32 0x831764AC02A33C193CBA23A0DE34C986E9B50402BF3C9FEBF6FF2F63D4C0435D DUP6 DUP6 PUSH1 0x40 MLOAD PUSH2 0xC07 SWAP3 SWAP2 SWAP1 PUSH2 0x2C7C JUMP JUMPDEST PUSH1 0x40 MLOAD DUP1 SWAP2 SUB SWAP1 LOG2 DUP5 PUSH32 0x29A00CD7B143153A043355A38ED7FA14305CD81468035C2E2E389897F38980D8 PUSH1 0x40 MLOAD PUSH1 0x40 MLOAD DUP1 SWAP2 SUB SWAP1 LOG2 POP POP POP POP POP JUMP JUMPDEST DUP1 PUSH1 0x2 PUSH1 0x0 DUP3 DUP2 MSTORE PUSH1 0x20 ADD SWAP1 DUP2 MSTORE PUSH1 0x20 ADD PUSH1 0x0 KECCAK256 PUSH1 0x0 ADD PUSH1 0x0 PUSH1 0x2 DUP2 LT PUSH2 0xC6D JUMPI PUSH2 0xC6C PUSH2 0x24FD JUMP JUMPDEST JUMPDEST ADD PUSH1 0x0 SWAP1 SLOAD SWAP1 PUSH2 0x100 EXP SWAP1 DIV PUSH20 0xFFFFFFFFFFFFFFFFFFFFFFFFFFFFFFFFFFFFFFFF AND PUSH20 0xFFFFFFFFFFFFFFFFFFFFFFFFFFFFFFFFFFFFFFFF AND CALLER PUSH20 0xFFFFFFFFFFFFFFFFFFFFFFFFFFFFFFFFFFFFFFFF AND EQ DUP1 PUSH2 0xD3D JUMPI POP PUSH1 0x2 PUSH1 0x0 DUP3 DUP2 MSTORE PUSH1 0x20 ADD SWAP1 DUP2 MSTORE PUSH1 0x20 ADD PUSH1 0x0 KECCAK256 PUSH1 0x0 ADD PUSH1 0x1 PUSH1 0x2 DUP2 LT PUSH2 0xCEC JUMPI PUSH2 0xCEB PUSH2 0x24FD JUMP JUMPDEST JUMPDEST ADD PUSH1 0x0 SWAP1 SLOAD SWAP1 PUSH2 0x100 EXP SWAP1 DIV PUSH20 0xFFFFFFFFFFFFFFFFFFFFFFFFFFFFFFFFFFFFFFFF AND PUSH20 0xFFFFFFFFFFFFFFFFFFFFFFFFFFFFFFFFFFFFFFFF AND CALLER PUSH20 0xFFFFFFFFFFFFFFFFFFFFFFFFFFFFFFFFFFFFFFFF AND EQ JUMPDEST PUSH2 0xD7C JUMPI PUSH1 0x40 MLOAD PUSH32 0x8C379A000000000000000000000000000000000000000000000000000000000 DUP2 MSTORE PUSH1 0x4 ADD PUSH2 0xD73 SWAP1 PUSH2 0x2578 JUMP JUMPDEST PUSH1 0x40 MLOAD DUP1 SWAP2 SUB SWAP1 REVERT JUMPDEST PUSH1 0x0 PUSH1 0x2 PUSH1 0x0 DUP5 DUP2 MSTORE PUSH1 0x20 ADD SWAP1 DUP2 MSTORE PUSH1 0x20 ADD PUSH1 0x0 KECCAK256 SWAP1 POP PUSH1 0x0 PUSH1 0x4 DUP2 GT ISZERO PUSH2 0xDA7 JUMPI PUSH2 0xDA6 PUSH2 0x2360 JUMP JUMPDEST JUMPDEST DUP2 PUSH1 0x8 ADD PUSH1 0x0 SWAP1 SLOAD SWAP1 PUSH2 0x100 EXP SWAP1 DIV PUSH1 0xFF AND PUSH1 0x4 DUP2 GT ISZERO PUSH2 0xDCB JUMPI PUSH2 0xDCA PUSH2 0x2360 JUMP JUMPDEST JUMPDEST EQ DUP1 PUSH2 0xE0C JUMPI POP PUSH1 0x1 PUSH1 0x4 DUP2 GT ISZERO PUSH2 0xDE6 JUMPI PUSH2 0xDE5 PUSH2 0x2360 JUMP JUMPDEST JUMPDEST DUP2 PUSH1 0x8 ADD PUSH1 0x0 SWAP1 SLOAD SWAP1 PUSH2 0x100 EXP SWAP1 DIV PUSH1 0xFF AND PUSH1 0x4 DUP2 GT ISZERO PUSH2 0xE0A JUMPI PUSH2 0xE09 PUSH2 0x2360 JUMP JUMPDEST JUMPDEST EQ JUMPDEST PUSH2 0xE4B JUMPI PUSH1 0x40 MLOAD PUSH32 0x8C379A000000000000000000000000000000000000000000000000000000000 DUP2 MSTORE PUSH1 0x4 ADD PUSH2 0xE42 SWAP1 PUSH2 0x2CEC JUMP JUMPDEST PUSH1 0x40 MLOAD DUP1 SWAP2 SUB SWAP1 REVERT JUMPDEST PUSH1 0x0 DUP2 PUSH1 0x0 ADD PUSH1 0x0 PUSH1 0x2 DUP2 LT PUSH2 0xE64 JUMPI PUSH2 0xE63 PUSH2 0x24FD JUMP JUMPDEST JUMPDEST ADD PUSH1 0x0 SWAP1 SLOAD SWAP1 PUSH2 0x100 EXP SWAP1 DIV PUSH20 0xFFFFFFFFFFFFFFFFFFFFFFFFFFFFFFFFFFFFFFFF AND PUSH20 0xFFFFFFFFFFFFFFFFFFFFFFFFFFFFFFFFFFFFFFFF AND CALLER PUSH20 0xFFFFFFFFFFFFFFFFFFFFFFFFFFFFFFFFFFFFFFFF AND EQ PUSH2 0xEF6 JUMPI DUP2 PUSH1 0x0 ADD PUSH1 0x0 PUSH1 0x2 DUP2 LT PUSH2 0xECF JUMPI PUSH2 0xECE PUSH2 0x24FD JUMP JUMPDEST JUMPDEST ADD PUSH1 0x0 SWAP1 SLOAD SWAP1 PUSH2 0x100 EXP SWAP1 DIV PUSH20 0xFFFFFFFFFFFFFFFFFFFFFFFFFFFFFFFFFFFFFFFF AND PUSH2 0xF30 JUMP JUMPDEST DUP2 PUSH1 0x0 ADD PUSH1 0x1 PUSH1 0x2 DUP2 LT PUSH2 0xF0D JUMPI PUSH2 0xF0C PUSH2 0x24FD JUMP JUMPDEST JUMPDEST ADD PUSH1 0x0 SWAP1 SLOAD SWAP1 PUSH2 0x100 EXP SWAP1 DIV PUSH20 0xFFFFFFFFFFFFFFFFFFFFFFFFFFFFFFFFFFFFFFFF AND JUMPDEST SWAP1 POP DUP2 PUSH1 0x2 ADD PUSH1 0x0 DUP3 PUSH20 0xFFFFFFFFFFFFFFFFFFFFFFFFFFFFFFFFFFFFFFFF AND PUSH20 0xFFFFFFFFFFFFFFFFFFFFFFFFFFFFFFFFFFFFFFFF AND DUP2 MSTORE PUSH1 0x20 ADD SWAP1 DUP2 MSTORE PUSH1 0x20 ADD PUSH1 0x0 KECCAK256 PUSH1 0x0 SWAP1 SLOAD SWAP1 PUSH2 0x100 EXP SWAP1 DIV PUSH1 0xFF AND ISZERO PUSH2 0xFC1 JUMPI PUSH1 0x40 MLOAD PUSH32 0x8C379A000000000000000000000000000000000000000000000000000000000 DUP2 MSTORE PUSH1 0x4 ADD PUSH2 0xFB8 SWAP1 PUSH2 0x2D58 JUMP JUMPDEST PUSH1 0x40 MLOAD DUP1 SWAP2 SUB SWAP1 REVERT JUMPDEST DUP2 PUSH1 0x2 ADD PUSH1 0x0 CALLER PUSH20 0xFFFFFFFFFFFFFFFFFFFFFFFFFFFFFFFFFFFFFFFF AND PUSH20 0xFFFFFFFFFFFFFFFFFFFFFFFFFFFFFFFFFFFFFFFF AND DUP2 MSTORE PUSH1 0x20 ADD SWAP1 DUP2 MSTORE PUSH1 0x20 ADD PUSH1 0x0 KECCAK256 PUSH1 0x0 SWAP1 SLOAD SWAP1 PUSH2 0x100 EXP SWAP1 DIV PUSH1 0xFF AND ISZERO PUSH2 0x1161 JUMPI PUSH1 0x0 DUP3 PUSH1 0x2 ADD PUSH1 0x0 CALLER PUSH20 0xFFFFFFFFFFFFFFFFFFFFFFFFFFFFFFFFFFFFFFFF AND PUSH20 0xFFFFFFFFFFFFFFFFFFFFFFFFFFFFFFFFFFFFFFFF AND DUP2 MSTORE PUSH1 0x20 ADD SWAP1 DUP2 MSTORE PUSH1 0x20 ADD PUSH1 0x0 KECCAK256 PUSH1 0x0 PUSH2 0x100 EXP DUP2 SLOAD DUP2 PUSH1 0xFF MUL NOT AND SWAP1 DUP4 ISZERO ISZERO MUL OR SWAP1 SSTORE POP PUSH1 0x0 DUP3 PUSH1 0x4 ADD SLOAD SWAP1 POP PUSH1 0x0 DUP4 PUSH1 0x4 ADD DUP2 SWAP1 SSTORE POP PUSH1 0x0 DUP1 SLOAD SWAP1 PUSH2 0x100 EXP SWAP1 DIV PUSH20 0xFFFFFFFFFFFFFFFFFFFFFFFFFFFFFFFFFFFFFFFF AND PUSH20 0xFFFFFFFFFFFFFFFFFFFFFFFFFFFFFFFFFFFFFFFF AND PUSH4 0xA9059CBB CALLER DUP4 PUSH1 0x40 MLOAD DUP4 PUSH4 0xFFFFFFFF AND PUSH1 0xE0 SHL DUP2 MSTORE PUSH1 0x4 ADD PUSH2 0x10DD SWAP3 SWAP2 SWAP1 PUSH2 0x2B52 JUMP JUMPDEST PUSH1 0x20 PUSH1 0x40 MLOAD DUP1 DUP4 SUB DUP2 PUSH1 0x0 DUP8 GAS CALL ISZERO DUP1 ISZERO PUSH2 0x10FC JUMPI RETURNDATASIZE PUSH1 0x0 DUP1 RETURNDATACOPY RETURNDATASIZE PUSH1 0x0 REVERT JUMPDEST POP POP POP POP PUSH1 0x40 MLOAD RETURNDATASIZE PUSH1 0x1F NOT PUSH1 0x1F DUP3 ADD AND DUP3 ADD DUP1 PUSH1 0x40 MSTORE POP DUP2 ADD SWAP1 PUSH2 0x1120 SWAP2 SWAP1 PUSH2 0x2BA7 JUMP JUMPDEST PUSH2 0x115F JUMPI PUSH1 0x40 MLOAD PUSH32 0x8C379A000000000000000000000000000000000000000000000000000000000 DUP2 MSTORE PUSH1 0x4 ADD PUSH2 0x1156 SWAP1 PUSH2 0x2DC4 JUMP JUMPDEST PUSH1 0x40 MLOAD DUP1 SWAP2 SUB SWAP1 REVERT JUMPDEST POP JUMPDEST PUSH1 0x4 DUP3 PUSH1 0x8 ADD PUSH1 0x0 PUSH2 0x100 EXP DUP2 SLOAD DUP2 PUSH1 0xFF MUL NOT AND SWAP1 DUP4 PUSH1 0x4 DUP2 GT ISZERO PUSH2 0x1189 JUMPI PUSH2 0x1188 PUSH2 0x2360 JUMP JUMPDEST JUMPDEST MUL OR SWAP1 SSTORE POP DUP4 PUSH32 0x7FE0314DDD8432EAC273E729CC289F5A8F8A7860761B74472F4782FBACCD2C5F PUSH1 0x40 MLOAD PUSH1 0x40 MLOAD DUP1 SWAP2 SUB SWAP1 LOG2 DUP4 PUSH32 0x29A00CD7B143153A043355A38ED7FA14305CD81468035C2E2E389897F38980D8 PUSH1 0x40 MLOAD PUSH1 0x40 MLOAD DUP1 SWAP2 SUB SWAP1 LOG2 POP POP POP POP JUMP JUMPDEST DUP2 PUSH1 0x2 PUSH1 0x0 DUP3 DUP2 MSTORE PUSH1 0x20 ADD SWAP1 DUP2 MSTORE PUSH1 0x20 ADD PUSH1 0x0 KECCAK256 PUSH1 0x0 ADD PUSH1 0x0 PUSH1 0x2 DUP2 LT PUSH2 0x1218 JUMPI PUSH2 0x1217 PUSH2 0x24FD JUMP JUMPDEST JUMPDEST ADD PUSH1 0x0 SWAP1 SLOAD SWAP1 PUSH2 0x100 EXP SWAP1 DIV PUSH20 0xFFFFFFFFFFFFFFFFFFFFFFFFFFFFFFFFFFFFFFFF AND PUSH20 0xFFFFFFFFFFFFFFFFFFFFFFFFFFFFFFFFFFFFFFFF AND CALLER PUSH20 0xFFFFFFFFFFFFFFFFFFFFFFFFFFFFFFFFFFFFFFFF AND EQ DUP1 PUSH2 0x12E8 JUMPI POP PUSH1 0x2 PUSH1 0x0 DUP3 DUP2 MSTORE PUSH1 0x20 ADD SWAP1 DUP2 MSTORE PUSH1 0x20 ADD PUSH1 0x0 KECCAK256 PUSH1 0x0 ADD PUSH1 0x1 PUSH1 0x2 DUP2 LT PUSH2 0x1297 JUMPI PUSH2 0x1296 PUSH2 0x24FD JUMP JUMPDEST JUMPDEST ADD PUSH1 0x0 SWAP1 SLOAD SWAP1 PUSH2 0x100 EXP SWAP1 DIV PUSH20 0xFFFFFFFFFFFFFFFFFFFFFFFFFFFFFFFFFFFFFFFF AND PUSH20 0xFFFFFFFFFFFFFFFFFFFFFFFFFFFFFFFFFFFFFFFF AND CALLER PUSH20 0xFFFFFFFFFFFFFFFFFFFFFFFFFFFFFFFFFFFFFFFF AND EQ JUMPDEST PUSH2 0x1327 JUMPI PUSH1 0x40 MLOAD PUSH32 0x8C379A000000000000000000000000000000000000000000000000000000000 DUP2 MSTORE PUSH1 0x4 ADD PUSH2 0x131E SWAP1 PUSH2 0x2578 JUMP JUMPDEST PUSH1 0x40 MLOAD DUP1 SWAP2 SUB SWAP1 REVERT JUMPDEST PUSH1 0x0 PUSH1 0x2 PUSH1 0x0 DUP6 DUP2 MSTORE PUSH1 0x20 ADD SWAP1 DUP2 MSTORE PUSH1 0x20 ADD PUSH1 0x0 KECCAK256 SWAP1 POP PUSH1 0x0 PUSH1 0x4 DUP2 GT ISZERO PUSH2 0x1352 JUMPI PUSH2 0x1351 PUSH2 0x2360 JUMP JUMPDEST JUMPDEST DUP2 PUSH1 0x8 ADD PUSH1 0x0 SWAP1 SLOAD SWAP1 PUSH2 0x100 EXP SWAP1 DIV PUSH1 0xFF AND PUSH1 0x4 DUP2 GT ISZERO PUSH2 0x1376 JUMPI PUSH2 0x1375 PUSH2 0x2360 JUMP JUMPDEST JUMPDEST EQ PUSH2 0x13B6 JUMPI PUSH1 0x40 MLOAD PUSH32 0x8C379A000000000000000000000000000000000000000000000000000000000 DUP2 MSTORE PUSH1 0x4 ADD PUSH2 0x13AD SWAP1 PUSH2 0x2E30 JUMP JUMPDEST PUSH1 0x40 MLOAD DUP1 SWAP2 SUB SWAP1 REVERT JUMPDEST DUP1 PUSH1 0x2 ADD PUSH1 0x0 CALLER PUSH20 0xFFFFFFFFFFFFFFFFFFFFFFFFFFFFFFFFFFFFFFFF AND PUSH20 0xFFFFFFFFFFFFFFFFFFFFFFFFFFFFFFFFFFFFFFFF AND DUP2 MSTORE PUSH1 0x20 ADD SWAP1 DUP2 MSTORE PUSH1 0x20 ADD PUSH1 0x0 KECCAK256 PUSH1 0x0 SWAP1 SLOAD SWAP1 PUSH2 0x100 EXP SWAP1 DIV PUSH1 0xFF AND ISZERO PUSH2 0x1445 JUMPI PUSH1 0x40 MLOAD PUSH32 0x8C379A000000000000000000000000000000000000000000000000000000000 DUP2 MSTORE PUSH1 0x4 ADD PUSH2 0x143C SWAP1 PUSH2 0x2E9C JUMP JUMPDEST PUSH1 0x40 MLOAD DUP1 SWAP2 SUB SWAP1 REVERT JUMPDEST PUSH1 0x0 DUP4 GT PUSH2 0x1488 JUMPI PUSH1 0x40 MLOAD PUSH32 0x8C379A000000000000000000000000000000000000000000000000000000000 DUP2 MSTORE PUSH1 0x4 ADD PUSH2 0x147F SWAP1 PUSH2 0x2F08 JUMP JUMPDEST PUSH1 0x40 MLOAD DUP1 SWAP2 SUB SWAP1 REVERT JUMPDEST PUSH1 0x0 DUP1 SLOAD SWAP1 PUSH2 0x100 EXP SWAP1 DIV PUSH20 0xFFFFFFFFFFFFFFFFFFFFFFFFFFFFFFFFFFFFFFFF AND PUSH20 0xFFFFFFFFFFFFFFFFFFFFFFFFFFFFFFFFFFFFFFFF AND PUSH4 0x23B872DD CALLER ADDRESS DUP7 PUSH1 0x40 MLOAD DUP5 PUSH4 0xFFFFFFFF AND PUSH1 0xE0 SHL DUP2 MSTORE PUSH1 0x4 ADD PUSH2 0x14E5 SWAP4 SWAP3 SWAP2 SWAP1 PUSH2 0x2F28 JUMP JUMPDEST PUSH1 0x20 PUSH1 0x40 MLOAD DUP1 DUP4 SUB DUP2 PUSH1 0x0 DUP8 GAS CALL ISZERO DUP1 ISZERO PUSH2 0x1504 JUMPI RETURNDATASIZE PUSH1 0x0 DUP1 RETURNDATACOPY RETURNDATASIZE PUSH1 0x0 REVERT JUMPDEST POP POP POP POP PUSH1 0x40 MLOAD RETURNDATASIZE PUSH1 0x1F NOT PUSH1 0x1F DUP3 ADD AND DUP3 ADD DUP1 PUSH1 0x40 MSTORE POP DUP2 ADD SWAP1 PUSH2 0x1528 SWAP2 SWAP1 PUSH2 0x2BA7 JUMP JUMPDEST PUSH2 0x1567 JUMPI PUSH1 0x40 MLOAD PUSH32 0x8C379A000000000000000000000000000000000000000000000000000000000 DUP2 MSTORE PUSH1 0x4 ADD PUSH2 0x155E SWAP1 PUSH2 0x2FAB JUMP JUMPDEST PUSH1 0x40 MLOAD DUP1 SWAP2 SUB SWAP1 REVERT JUMPDEST PUSH1 0x1 DUP2 PUSH1 0x2 ADD PUSH1 0x0 CALLER PUSH20 0xFFFFFFFFFFFFFFFFFFFFFFFFFFFFFFFFFFFFFFFF AND PUSH20 0xFFFFFFFFFFFFFFFFFFFFFFFFFFFFFFFFFFFFFFFF AND DUP2 MSTORE PUSH1 0x20 ADD SWAP1 DUP2 MSTORE PUSH1 0x20 ADD PUSH1 0x0 KECCAK256 PUSH1 0x0 PUSH2 0x100 EXP DUP2 SLOAD DUP2 PUSH1 0xFF MUL NOT AND SWAP1 DUP4 ISZERO ISZERO MUL OR SWAP1 SSTORE POP DUP3 DUP2 PUSH1 0x4 ADD PUSH1 0x0 DUP3 DUP3 SLOAD PUSH2 0x15D5 SWAP2 SWAP1 PUSH2 0x2FFA JUMP JUMPDEST SWAP3 POP POP DUP2 SWAP1 SSTORE POP CALLER PUSH20 0xFFFFFFFFFFFFFFFFFFFFFFFFFFFFFFFFFFFFFFFF AND DUP5 PUSH32 0x377EF0ADCE1EAE318AFAAD309C3B0F6C378FA1A294064DECCDA8D15AD28858EB DUP6 PUSH1 0x40 MLOAD PUSH2 0x1623 SWAP2 SWAP1 PUSH2 0x2118 JUMP JUMPDEST PUSH1 0x40 MLOAD DUP1 SWAP2 SUB SWAP1 LOG3 DUP4 PUSH32 0x29A00CD7B143153A043355A38ED7FA14305CD81468035C2E2E389897F38980D8 PUSH1 0x40 MLOAD PUSH1 0x40 MLOAD DUP1 SWAP2 SUB SWAP1 LOG2 DUP1 PUSH1 0x2 ADD PUSH1 0x0 DUP3 PUSH1 0x0 ADD PUSH1 0x0 PUSH1 0x2 DUP2 LT PUSH2 0x1675 JUMPI PUSH2 0x1674 PUSH2 0x24FD JUMP JUMPDEST JUMPDEST ADD PUSH1 0x0 SWAP1 SLOAD SWAP1 PUSH2 0x100 EXP SWAP1 DIV PUSH20 0xFFFFFFFFFFFFFFFFFFFFFFFFFFFFFFFFFFFFFFFF AND PUSH20 0xFFFFFFFFFFFFFFFFFFFFFFFFFFFFFFFFFFFFFFFF AND PUSH20 0xFFFFFFFFFFFFFFFFFFFFFFFFFFFFFFFFFFFFFFFF AND DUP2 MSTORE PUSH1 0x20 ADD SWAP1 DUP2 MSTORE PUSH1 0x20 ADD PUSH1 0x0 KECCAK256 PUSH1 0x0 SWAP1 SLOAD SWAP1 PUSH2 0x100 EXP SWAP1 DIV PUSH1 0xFF AND DUP1 ISZERO PUSH2 0x176E JUMPI POP DUP1 PUSH1 0x2 ADD PUSH1 0x0 DUP3 PUSH1 0x0 ADD PUSH1 0x1 PUSH1 0x2 DUP2 LT PUSH2 0x1703 JUMPI PUSH2 0x1702 PUSH2 0x24FD JUMP JUMPDEST JUMPDEST ADD PUSH1 0x0 SWAP1 SLOAD SWAP1 PUSH2 0x100 EXP SWAP1 DIV PUSH20 0xFFFFFFFFFFFFFFFFFFFFFFFFFFFFFFFFFFFFFFFF AND PUSH20 0xFFFFFFFFFFFFFFFFFFFFFFFFFFFFFFFFFFFFFFFF AND PUSH20 0xFFFFFFFFFFFFFFFFFFFFFFFFFFFFFFFFFFFFFFFF AND DUP2 MSTORE PUSH1 0x20 ADD SWAP1 DUP2 MSTORE PUSH1 0x20 ADD PUSH1 0x0 KECCAK256 PUSH1 0x0 SWAP1 SLOAD SWAP1 PUSH2 0x100 EXP SWAP1 DIV PUSH1 0xFF AND JUMPDEST ISZERO PUSH2 0x17A1 JUMPI PUSH1 0x1 DUP2 PUSH1 0x8 ADD PUSH1 0x0 PUSH2 0x100 EXP DUP2 SLOAD DUP2 PUSH1 0xFF MUL NOT AND SWAP1 DUP4 PUSH1 0x4 DUP2 GT ISZERO PUSH2 0x179B JUMPI PUSH2 0x179A PUSH2 0x2360 JUMP JUMPDEST JUMPDEST MUL OR SWAP1 SSTORE POP JUMPDEST POP POP POP POP JUMP JUMPDEST PUSH2 0x17AF PUSH2 0x1E7E JUMP JUMPDEST PUSH1 0x0 PUSH1 0x60 DUP1 PUSH1 0x0 DUP1 PUSH1 0x0 DUP1 PUSH1 0x0 DUP1 PUSH1 0x0 PUSH1 0x2 PUSH1 0x0 DUP14 DUP2 MSTORE PUSH1 0x20 ADD SWAP1 DUP2 MSTORE PUSH1 0x20 ADD PUSH1 0x0 KECCAK256 SWAP1 POP DUP1 PUSH1 0x0 ADD DUP2 PUSH1 0x5 ADD PUSH1 0x0 SWAP1 SLOAD SWAP1 PUSH2 0x100 EXP SWAP1 DIV PUSH20 0xFFFFFFFFFFFFFFFFFFFFFFFFFFFFFFFFFFFFFFFF AND DUP3 PUSH1 0x6 ADD DUP4 PUSH1 0x7 ADD DUP5 PUSH1 0x4 ADD SLOAD DUP6 PUSH1 0x8 ADD PUSH1 0x0 SWAP1 SLOAD SWAP1 PUSH2 0x100 EXP SWAP1 DIV PUSH1 0xFF AND DUP7 PUSH1 0x2 ADD PUSH1 0x0 DUP9 PUSH1 0x0 ADD PUSH1 0x0 PUSH1 0x2 DUP2 LT PUSH2 0x1839 JUMPI PUSH2 0x1838 PUSH2 0x24FD JUMP JUMPDEST JUMPDEST ADD PUSH1 0x0 SWAP1 SLOAD SWAP1 PUSH2 0x100 EXP SWAP1 DIV PUSH20 0xFFFFFFFFFFFFFFFFFFFFFFFFFFFFFFFFFFFFFFFF AND PUSH20 0xFFFFFFFFFFFFFFFFFFFFFFFFFFFFFFFFFFFFFFFF AND PUSH20 0xFFFFFFFFFFFFFFFFFFFFFFFFFFFFFFFFFFFFFFFF AND DUP2 MSTORE PUSH1 0x20 ADD SWAP1 DUP2 MSTORE PUSH1 0x20 ADD PUSH1 0x0 KECCAK256 PUSH1 0x0 SWAP1 SLOAD SWAP1 PUSH2 0x100 EXP SWAP1 DIV PUSH1 0xFF AND DUP8 PUSH1 0x2 ADD PUSH1 0x0 DUP10 PUSH1 0x0 ADD PUSH1 0x1 PUSH1 0x2 DUP2 LT PUSH2 0x18C0 JUMPI PUSH2 0x18BF PUSH2 0x24FD JUMP JUMPDEST JUMPDEST ADD PUSH1 0x0 SWAP1 SLOAD SWAP1 PUSH2 0x100 EXP SWAP1 DIV PUSH20 0xFFFFFFFFFFFFFFFFFFFFFFFFFFFFFFFFFFFFFFFF AND PUSH20 0xFFFFFFFFFFFFFFFFFFFFFFFFFFFFFFFFFFFFFFFF AND PUSH20 0xFFFFFFFFFFFFFFFFFFFFFFFFFFFFFFFFFFFFFFFF AND DUP2 MSTORE PUSH1 0x20 ADD SWAP1 DUP2 MSTORE PUSH1 0x20 ADD PUSH1 0x0 KECCAK256 PUSH1 0x0 SWAP1 SLOAD SWAP1 PUSH2 0x100 EXP SWAP1 DIV PUSH1 0xFF AND DUP9 PUSH1 0x3 ADD PUSH1 0x0 DUP11 PUSH1 0x0 ADD PUSH1 0x0 PUSH1 0x2 DUP2 LT PUSH2 0x1947 JUMPI PUSH2 0x1946 PUSH2 0x24FD JUMP JUMPDEST JUMPDEST ADD PUSH1 0x0 SWAP1 SLOAD SWAP1 PUSH2 0x100 EXP SWAP1 DIV PUSH20 0xFFFFFFFFFFFFFFFFFFFFFFFFFFFFFFFFFFFFFFFF AND PUSH20 0xFFFFFFFFFFFFFFFFFFFFFFFFFFFFFFFFFFFFFFFF AND PUSH20 0xFFFFFFFFFFFFFFFFFFFFFFFFFFFFFFFFFFFFFFFF AND DUP2 MSTORE PUSH1 0x20 ADD SWAP1 DUP2 MSTORE PUSH1 0x20 ADD PUSH1 0x0 KECCAK256 PUSH1 0x0 SWAP1 SLOAD SWAP1 PUSH2 0x100 EXP SWAP1 DIV PUSH1 0xFF AND DUP10 PUSH1 0x3 ADD PUSH1 0x0 DUP12 PUSH1 0x0 ADD PUSH1 0x1 PUSH1 0x2 DUP2 LT PUSH2 0x19CE JUMPI PUSH2 0x19CD PUSH2 0x24FD JUMP JUMPDEST JUMPDEST ADD PUSH1 0x0 SWAP1 SLOAD SWAP1 PUSH2 0x100 EXP SWAP1 DIV PUSH20 0xFFFFFFFFFFFFFFFFFFFFFFFFFFFFFFFFFFFFFFFF AND PUSH20 0xFFFFFFFFFFFFFFFFFFFFFFFFFFFFFFFFFFFFFFFF AND PUSH20 0xFFFFFFFFFFFFFFFFFFFFFFFFFFFFFFFFFFFFFFFF AND DUP2 MSTORE PUSH1 0x20 ADD SWAP1 DUP2 MSTORE PUSH1 0x20 ADD PUSH1 0x0 KECCAK256 PUSH1 0x0 SWAP1 SLOAD SWAP1 PUSH2 0x100 EXP SWAP1 DIV PUSH1 0xFF AND DUP10 PUSH1 0x2 DUP1 PUSH1 0x20 MUL PUSH1 0x40 MLOAD SWAP1 DUP2 ADD PUSH1 0x40 MSTORE DUP1 SWAP3 SWAP2 SWAP1 DUP3 PUSH1 0x2 DUP1 ISZERO PUSH2 0x1AA6 JUMPI PUSH1 0x20 MUL DUP3 ADD SWAP2 JUMPDEST DUP2 PUSH1 0x0 SWAP1 SLOAD SWAP1 PUSH2 0x100 EXP SWAP1 DIV PUSH20 0xFFFFFFFFFFFFFFFFFFFFFFFFFFFFFFFFFFFFFFFF AND PUSH20 0xFFFFFFFFFFFFFFFFFFFFFFFFFFFFFFFFFFFFFFFF AND DUP2 MSTORE PUSH1 0x20 ADD SWAP1 PUSH1 0x1 ADD SWAP1 DUP1 DUP4 GT PUSH2 0x1A5C JUMPI JUMPDEST POP POP POP POP POP SWAP10 POP DUP8 DUP1 SLOAD PUSH2 0x1AB9 SWAP1 PUSH2 0x28AF JUMP JUMPDEST DUP1 PUSH1 0x1F ADD PUSH1 0x20 DUP1 SWAP2 DIV MUL PUSH1 0x20 ADD PUSH1 0x40 MLOAD SWAP1 DUP2 ADD PUSH1 0x40 MSTORE DUP1 SWAP3 SWAP2 SWAP1 DUP2 DUP2 MSTORE PUSH1 0x20 ADD DUP3 DUP1 SLOAD PUSH2 0x1AE5 SWAP1 PUSH2 0x28AF JUMP JUMPDEST DUP1 ISZERO PUSH2 0x1B32 JUMPI DUP1 PUSH1 0x1F LT PUSH2 0x1B07 JUMPI PUSH2 0x100 DUP1 DUP4 SLOAD DIV MUL DUP4 MSTORE SWAP2 PUSH1 0x20 ADD SWAP2 PUSH2 0x1B32 JUMP JUMPDEST DUP3 ADD SWAP2 SWAP1 PUSH1 0x0 MSTORE PUSH1 0x20 PUSH1 0x0 KECCAK256 SWAP1 JUMPDEST DUP2 SLOAD DUP2 MSTORE SWAP1 PUSH1 0x1 ADD SWAP1 PUSH1 0x20 ADD DUP1 DUP4 GT PUSH2 0x1B15 JUMPI DUP3 SWAP1 SUB PUSH1 0x1F AND DUP3 ADD SWAP2 JUMPDEST POP POP POP POP POP SWAP8 POP DUP7 DUP1 SLOAD PUSH2 0x1B45 SWAP1 PUSH2 0x28AF JUMP JUMPDEST DUP1 PUSH1 0x1F ADD PUSH1 0x20 DUP1 SWAP2 DIV MUL PUSH1 0x20 ADD PUSH1 0x40 MLOAD SWAP1 DUP2 ADD PUSH1 0x40 MSTORE DUP1 SWAP3 SWAP2 SWAP1 DUP2 DUP2 MSTORE PUSH1 0x20 ADD DUP3 DUP1 SLOAD PUSH2 0x1B71 SWAP1 PUSH2 0x28AF JUMP JUMPDEST DUP1 ISZERO PUSH2 0x1BBE JUMPI DUP1 PUSH1 0x1F LT PUSH2 0x1B93 JUMPI PUSH2 0x100 DUP1 DUP4 SLOAD DIV MUL DUP4 MSTORE SWAP2 PUSH1 0x20 ADD SWAP2 PUSH2 0x1BBE JUMP JUMPDEST DUP3 ADD SWAP2 SWAP1 PUSH1 0x0 MSTORE PUSH1 0x20 PUSH1 0x0 KECCAK256 SWAP1 JUMPDEST DUP2 SLOAD DUP2 MSTORE SWAP1 PUSH1 0x1 ADD SWAP1 PUSH1 0x20 ADD DUP1 DUP4 GT PUSH2 0x1BA1 JUMPI DUP3 SWAP1 SUB PUSH1 0x1F AND DUP3 ADD SWAP2 JUMPDEST POP POP POP POP POP SWAP7 POP SWAP11 POP SWAP11 POP SWAP11 POP SWAP11 POP SWAP11 POP SWAP11 POP SWAP11 POP SWAP11 POP SWAP11 POP SWAP11 POP POP SWAP2 SWAP4 SWAP6 SWAP8 SWAP10 POP SWAP2 SWAP4 SWAP6 SWAP8 SWAP10 JUMP JUMPDEST PUSH1 0x0 DUP4 PUSH20 0xFFFFFFFFFFFFFFFFFFFFFFFFFFFFFFFFFFFFFFFF AND CALLER PUSH20 0xFFFFFFFFFFFFFFFFFFFFFFFFFFFFFFFFFFFFFFFF AND SUB PUSH2 0x1C57 JUMPI PUSH1 0x40 MLOAD PUSH32 0x8C379A000000000000000000000000000000000000000000000000000000000 DUP2 MSTORE PUSH1 0x4 ADD PUSH2 0x1C4E SWAP1 PUSH2 0x307A JUMP JUMPDEST PUSH1 0x40 MLOAD DUP1 SWAP2 SUB SWAP1 REVERT JUMPDEST PUSH1 0x0 PUSH1 0x1 PUSH1 0x0 DUP2 SLOAD DUP1 SWAP3 SWAP2 SWAP1 PUSH2 0x1C6C SWAP1 PUSH2 0x309A JUMP JUMPDEST SWAP2 SWAP1 POP SSTORE SWAP1 POP PUSH1 0x0 PUSH1 0x2 PUSH1 0x0 DUP4 DUP2 MSTORE PUSH1 0x20 ADD SWAP1 DUP2 MSTORE PUSH1 0x20 ADD PUSH1 0x0 KECCAK256 SWAP1 POP CALLER DUP2 PUSH1 0x0 ADD PUSH1 0x0 PUSH1 0x2 DUP2 LT PUSH2 0x1CA1 JUMPI PUSH2 0x1CA0 PUSH2 0x24FD JUMP JUMPDEST JUMPDEST ADD PUSH1 0x0 PUSH2 0x100 EXP DUP2 SLOAD DUP2 PUSH20 0xFFFFFFFFFFFFFFFFFFFFFFFFFFFFFFFFFFFFFFFF MUL NOT AND SWAP1 DUP4 PUSH20 0xFFFFFFFFFFFFFFFFFFFFFFFFFFFFFFFFFFFFFFFF AND MUL OR SWAP1 SSTORE POP DUP6 DUP2 PUSH1 0x0 ADD PUSH1 0x1 PUSH1 0x2 DUP2 LT PUSH2 0x1CF8 JUMPI PUSH2 0x1CF7 PUSH2 0x24FD JUMP JUMPDEST JUMPDEST ADD PUSH1 0x0 PUSH2 0x100 EXP DUP2 SLOAD DUP2 PUSH20 0xFFFFFFFFFFFFFFFFFFFFFFFFFFFFFFFFFFFFFFFF MUL NOT AND SWAP1 DUP4 PUSH20 0xFFFFFFFFFFFFFFFFFFFFFFFFFFFFFFFFFFFFFFFF AND MUL OR SWAP1 SSTORE POP DUP5 DUP5 DUP3 PUSH1 0x6 ADD SWAP2 DUP3 PUSH2 0x1D4A SWAP3 SWAP2 SWAP1 PUSH2 0x2A82 JUMP JUMPDEST POP PUSH1 0x0 DUP2 PUSH1 0x8 ADD PUSH1 0x0 PUSH2 0x100 EXP DUP2 SLOAD DUP2 PUSH1 0xFF MUL NOT AND SWAP1 DUP4 PUSH1 0x4 DUP2 GT ISZERO PUSH2 0x1D73 JUMPI PUSH2 0x1D72 PUSH2 0x2360 JUMP JUMPDEST JUMPDEST MUL OR SWAP1 SSTORE POP PUSH1 0x40 MLOAD DUP1 PUSH1 0x40 ADD PUSH1 0x40 MSTORE DUP1 CALLER PUSH20 0xFFFFFFFFFFFFFFFFFFFFFFFFFFFFFFFFFFFFFFFF AND PUSH20 0xFFFFFFFFFFFFFFFFFFFFFFFFFFFFFFFFFFFFFFFF AND DUP2 MSTORE PUSH1 0x20 ADD DUP8 PUSH20 0xFFFFFFFFFFFFFFFFFFFFFFFFFFFFFFFFFFFFFFFF AND PUSH20 0xFFFFFFFFFFFFFFFFFFFFFFFFFFFFFFFFFFFFFFFF AND DUP2 MSTORE POP PUSH1 0x3 PUSH1 0x0 DUP5 DUP2 MSTORE PUSH1 0x20 ADD SWAP1 DUP2 MSTORE PUSH1 0x20 ADD PUSH1 0x0 KECCAK256 SWAP1 PUSH1 0x2 PUSH2 0x1E06 SWAP3 SWAP2 SWAP1 PUSH2 0x1EA0 JUMP JUMPDEST POP DUP2 PUSH32 0xF5A652E9BE4DC80976DE59EA0AB8EF105314D3E99785AC7ED699796F04364F1A CALLER DUP9 DUP9 DUP9 PUSH1 0x40 MLOAD PUSH2 0x1E3D SWAP5 SWAP4 SWAP3 SWAP2 SWAP1 PUSH2 0x30E2 JUMP JUMPDEST PUSH1 0x40 MLOAD DUP1 SWAP2 SUB SWAP1 LOG2 DUP2 PUSH32 0x29A00CD7B143153A043355A38ED7FA14305CD81468035C2E2E389897F38980D8 PUSH1 0x40 MLOAD PUSH1 0x40 MLOAD DUP1 SWAP2 SUB SWAP1 LOG2 DUP2 SWAP3 POP POP POP SWAP4 SWAP3 POP POP POP JUMP JUMPDEST PUSH1 0x40 MLOAD DUP1 PUSH1 0x40 ADD PUSH1 0x40 MSTORE DUP1 PUSH1 0x2 SWAP1 PUSH1 0x20 DUP3 MUL DUP1 CALLDATASIZE DUP4 CALLDATACOPY DUP1 DUP3 ADD SWAP2 POP POP SWAP1 POP POP SWAP1 JUMP JUMPDEST DUP3 DUP1 SLOAD DUP3 DUP3 SSTORE SWAP1 PUSH1 0x0 MSTORE PUSH1 0x20 PUSH1 0x0 KECCAK256 SWAP1 DUP2 ADD SWAP3 DUP3 ISZERO PUSH2 0x1F19 JUMPI SWAP2 PUSH1 0x20 MUL DUP3 ADD JUMPDEST DUP3 DUP2 GT ISZERO PUSH2 0x1F18 JUMPI DUP3 MLOAD DUP3 PUSH1 0x0 PUSH2 0x100 EXP DUP2 SLOAD DUP2 PUSH20 0xFFFFFFFFFFFFFFFFFFFFFFFFFFFFFFFFFFFFFFFF MUL NOT AND SWAP1 DUP4 PUSH20 0xFFFFFFFFFFFFFFFFFFFFFFFFFFFFFFFFFFFFFFFF AND MUL OR SWAP1 SSTORE POP SWAP2 PUSH1 0x20 ADD SWAP2 SWAP1 PUSH1 0x1 ADD SWAP1 PUSH2 0x1EC0 JUMP JUMPDEST JUMPDEST POP SWAP1 POP PUSH2 0x1F26 SWAP2 SWAP1 PUSH2 0x1F2A JUMP JUMPDEST POP SWAP1 JUMP JUMPDEST JUMPDEST DUP1 DUP3 GT ISZERO PUSH2 0x1F43 JUMPI PUSH1 0x0 DUP2 PUSH1 0x0 SWAP1 SSTORE POP PUSH1 0x1 ADD PUSH2 0x1F2B JUMP JUMPDEST POP SWAP1 JUMP JUMPDEST PUSH1 0x0 PUSH20 0xFFFFFFFFFFFFFFFFFFFFFFFFFFFFFFFFFFFFFFFF DUP3 AND SWAP1 POP SWAP2 SWAP1 POP JUMP JUMPDEST PUSH1 0x0 DUP2 SWAP1 POP SWAP2 SWAP1 POP JUMP JUMPDEST PUSH1 0x0 PUSH2 0x1F8C PUSH2 0x1F87 PUSH2 0x1F82 DUP5 PUSH2 0x1F47 JUMP JUMPDEST PUSH2 0x1F67 JUMP JUMPDEST PUSH2 0x1F47 JUMP JUMPDEST SWAP1 POP SWAP2 SWAP1 POP JUMP JUMPDEST PUSH1 0x0 PUSH2 0x1F9E DUP3 PUSH2 0x1F71 JUMP JUMPDEST SWAP1 POP SWAP2 SWAP1 POP JUMP JUMPDEST PUSH1 0x0 PUSH2 0x1FB0 DUP3 PUSH2 0x1F93 JUMP JUMPDEST SWAP1 POP SWAP2 SWAP1 POP JUMP JUMPDEST PUSH2 0x1FC0 DUP2 PUSH2 0x1FA5 JUMP JUMPDEST DUP3 MSTORE POP POP JUMP JUMPDEST PUSH1 0x0 PUSH1 0x20 DUP3 ADD SWAP1 POP PUSH2 0x1FDB PUSH1 0x0 DUP4 ADD DUP5 PUSH2 0x1FB7 JUMP JUMPDEST SWAP3 SWAP2 POP POP JUMP JUMPDEST PUSH1 0x0 DUP1 REVERT JUMPDEST PUSH1 0x0 DUP1 REVERT JUMPDEST PUSH1 0x0 DUP2 SWAP1 POP SWAP2 SWAP1 POP JUMP JUMPDEST PUSH2 0x1FFE DUP2 PUSH2 0x1FEB JUMP JUMPDEST DUP2 EQ PUSH2 0x2009 JUMPI PUSH1 0x0 DUP1 REVERT JUMPDEST POP JUMP JUMPDEST PUSH1 0x0 DUP2 CALLDATALOAD SWAP1 POP PUSH2 0x201B DUP2 PUSH2 0x1FF5 JUMP JUMPDEST SWAP3 SWAP2 POP POP JUMP JUMPDEST PUSH1 0x0 PUSH2 0x202C DUP3 PUSH2 0x1F47 JUMP JUMPDEST SWAP1 POP SWAP2 SWAP1 POP JUMP JUMPDEST PUSH2 0x203C DUP2 PUSH2 0x2021 JUMP JUMPDEST DUP2 EQ PUSH2 0x2047 JUMPI PUSH1 0x0 DUP1 REVERT JUMPDEST POP JUMP JUMPDEST PUSH1 0x0 DUP2 CALLDATALOAD SWAP1 POP PUSH2 0x2059 DUP2 PUSH2 0x2033 JUMP JUMPDEST SWAP3 SWAP2 POP POP JUMP JUMPDEST PUSH1 0x0 DUP1 PUSH1 0x40 DUP4 DUP6 SUB SLT ISZERO PUSH2 0x2076 JUMPI PUSH2 0x2075 PUSH2 0x1FE1 JUMP JUMPDEST JUMPDEST PUSH1 0x0 PUSH2 0x2084 DUP6 DUP3 DUP7 ADD PUSH2 0x200C JUMP JUMPDEST SWAP3 POP POP PUSH1 0x20 PUSH2 0x2095 DUP6 DUP3 DUP7 ADD PUSH2 0x204A JUMP JUMPDEST SWAP2 POP POP SWAP3 POP SWAP3 SWAP1 POP JUMP JUMPDEST PUSH1 0x0 DUP1 PUSH1 0x40 DUP4 DUP6 SUB SLT ISZERO PUSH2 0x20B6 JUMPI PUSH2 0x20B5 PUSH2 0x1FE1 JUMP JUMPDEST JUMPDEST PUSH1 0x0 PUSH2 0x20C4 DUP6 DUP3 DUP7 ADD PUSH2 0x200C JUMP JUMPDEST SWAP3 POP POP PUSH1 0x20 PUSH2 0x20D5 DUP6 DUP3 DUP7 ADD PUSH2 0x200C JUMP JUMPDEST SWAP2 POP POP SWAP3 POP SWAP3 SWAP1 POP JUMP JUMPDEST PUSH2 0x20E8 DUP2 PUSH2 0x2021 JUMP JUMPDEST DUP3 MSTORE POP POP JUMP JUMPDEST PUSH1 0x0 PUSH1 0x20 DUP3 ADD SWAP1 POP PUSH2 0x2103 PUSH1 0x0 DUP4 ADD DUP5 PUSH2 0x20DF JUMP JUMPDEST SWAP3 SWAP2 POP POP JUMP JUMPDEST PUSH2 0x2112 DUP2 PUSH2 0x1FEB JUMP JUMPDEST DUP3 MSTORE POP POP JUMP JUMPDEST PUSH1 0x0 PUSH1 0x20 DUP3 ADD SWAP1 POP PUSH2 0x212D PUSH1 0x0 DUP4 ADD DUP5 PUSH2 0x2109 JUMP JUMPDEST SWAP3 SWAP2 POP POP JUMP JUMPDEST PUSH1 0x0 DUP1 REVERT JUMPDEST PUSH1 0x0 DUP1 REVERT JUMPDEST PUSH1 0x0 DUP1 REVERT JUMPDEST PUSH1 0x0 DUP1 DUP4 PUSH1 0x1F DUP5 ADD SLT PUSH2 0x2158 JUMPI PUSH2 0x2157 PUSH2 0x2133 JUMP JUMPDEST JUMPDEST DUP3 CALLDATALOAD SWAP1 POP PUSH8 0xFFFFFFFFFFFFFFFF DUP2 GT ISZERO PUSH2 0x2175 JUMPI PUSH2 0x2174 PUSH2 0x2138 JUMP JUMPDEST JUMPDEST PUSH1 0x20 DUP4 ADD SWAP2 POP DUP4 PUSH1 0x1 DUP3 MUL DUP4 ADD GT ISZERO PUSH2 0x2191 JUMPI PUSH2 0x2190 PUSH2 0x213D JUMP JUMPDEST JUMPDEST SWAP3 POP SWAP3 SWAP1 POP JUMP JUMPDEST PUSH1 0x0 DUP1 PUSH1 0x0 PUSH1 0x40 DUP5 DUP7 SUB SLT ISZERO PUSH2 0x21B1 JUMPI PUSH2 0x21B0 PUSH2 0x1FE1 JUMP JUMPDEST JUMPDEST PUSH1 0x0 PUSH2 0x21BF DUP7 DUP3 DUP8 ADD PUSH2 0x200C JUMP JUMPDEST SWAP4 POP POP PUSH1 0x20 DUP5 ADD CALLDATALOAD PUSH8 0xFFFFFFFFFFFFFFFF DUP2 GT ISZERO PUSH2 0x21E0 JUMPI PUSH2 0x21DF PUSH2 0x1FE6 JUMP JUMPDEST JUMPDEST PUSH2 0x21EC DUP7 DUP3 DUP8 ADD PUSH2 0x2142 JUMP JUMPDEST SWAP3 POP SWAP3 POP POP SWAP3 POP SWAP3 POP SWAP3 JUMP JUMPDEST PUSH1 0x0 PUSH1 0x20 DUP3 DUP5 SUB SLT ISZERO PUSH2 0x220E JUMPI PUSH2 0x220D PUSH2 0x1FE1 JUMP JUMPDEST JUMPDEST PUSH1 0x0 PUSH2 0x221C DUP5 DUP3 DUP6 ADD PUSH2 0x200C JUMP JUMPDEST SWAP2 POP POP SWAP3 SWAP2 POP POP JUMP JUMPDEST PUSH1 0x0 PUSH1 0x2 SWAP1 POP SWAP2 SWAP1 POP JUMP JUMPDEST PUSH1 0x0 DUP2 SWAP1 POP SWAP3 SWAP2 POP POP JUMP JUMPDEST PUSH1 0x0 DUP2 SWAP1 POP SWAP2 SWAP1 POP JUMP JUMPDEST PUSH2 0x224E DUP2 PUSH2 0x2021 JUMP JUMPDEST DUP3 MSTORE POP POP JUMP JUMPDEST PUSH1 0x0 PUSH2 0x2260 DUP4 DUP4 PUSH2 0x2245 JUMP JUMPDEST PUSH1 0x20 DUP4 ADD SWAP1 POP SWAP3 SWAP2 POP POP JUMP JUMPDEST PUSH1 0x0 PUSH1 0x20 DUP3 ADD SWAP1 POP SWAP2 SWAP1 POP JUMP JUMPDEST PUSH2 0x2282 DUP2 PUSH2 0x2225 JUMP JUMPDEST PUSH2 0x228C DUP2 DUP5 PUSH2 0x2230 JUMP JUMPDEST SWAP3 POP PUSH2 0x2297 DUP3 PUSH2 0x223B JUMP JUMPDEST DUP1 PUSH1 0x0 JUMPDEST DUP4 DUP2 LT ISZERO PUSH2 0x22C8 JUMPI DUP2 MLOAD PUSH2 0x22AF DUP8 DUP3 PUSH2 0x2254 JUMP JUMPDEST SWAP7 POP PUSH2 0x22BA DUP4 PUSH2 0x226C JUMP JUMPDEST SWAP3 POP POP PUSH1 0x1 DUP2 ADD SWAP1 POP PUSH2 0x229B JUMP JUMPDEST POP POP POP POP POP POP JUMP JUMPDEST PUSH1 0x0 DUP2 MLOAD SWAP1 POP SWAP2 SWAP1 POP JUMP JUMPDEST PUSH1 0x0 DUP3 DUP3 MSTORE PUSH1 0x20 DUP3 ADD SWAP1 POP SWAP3 SWAP2 POP POP JUMP JUMPDEST PUSH1 0x0 JUMPDEST DUP4 DUP2 LT ISZERO PUSH2 0x230A JUMPI DUP1 DUP3 ADD MLOAD DUP2 DUP5 ADD MSTORE PUSH1 0x20 DUP2 ADD SWAP1 POP PUSH2 0x22EF JUMP JUMPDEST PUSH1 0x0 DUP5 DUP5 ADD MSTORE POP POP POP POP JUMP JUMPDEST PUSH1 0x0 PUSH1 0x1F NOT PUSH1 0x1F DUP4 ADD AND SWAP1 POP SWAP2 SWAP1 POP JUMP JUMPDEST PUSH1 0x0 PUSH2 0x2332 DUP3 PUSH2 0x22D0 JUMP JUMPDEST PUSH2 0x233C DUP2 DUP6 PUSH2 0x22DB JUMP JUMPDEST SWAP4 POP PUSH2 0x234C DUP2 DUP6 PUSH1 0x20 DUP7 ADD PUSH2 0x22EC JUMP JUMPDEST PUSH2 0x2355 DUP2 PUSH2 0x2316 JUMP JUMPDEST DUP5 ADD SWAP2 POP POP SWAP3 SWAP2 POP POP JUMP JUMPDEST PUSH32 0x4E487B7100000000000000000000000000000000000000000000000000000000 PUSH1 0x0 MSTORE PUSH1 0x21 PUSH1 0x4 MSTORE PUSH1 0x24 PUSH1 0x0 REVERT JUMPDEST PUSH1 0x5 DUP2 LT PUSH2 0x23A0 JUMPI PUSH2 0x239F PUSH2 0x2360 JUMP JUMPDEST JUMPDEST POP JUMP JUMPDEST PUSH1 0x0 DUP2 SWAP1 POP PUSH2 0x23B1 DUP3 PUSH2 0x238F JUMP JUMPDEST SWAP2 SWAP1 POP JUMP JUMPDEST PUSH1 0x0 PUSH2 0x23C1 DUP3 PUSH2 0x23A3 JUMP JUMPDEST SWAP1 POP SWAP2 SWAP1 POP JUMP JUMPDEST PUSH2 0x23D1 DUP2 PUSH2 0x23B6 JUMP JUMPDEST DUP3 MSTORE POP POP JUMP JUMPDEST PUSH1 0x0 DUP2 ISZERO ISZERO SWAP1 POP SWAP2 SWAP1 POP JUMP JUMPDEST PUSH2 0x23EC DUP2 PUSH2 0x23D7 JUMP JUMPDEST DUP3 MSTORE POP POP JUMP JUMPDEST PUSH1 0x0 PUSH2 0x160 DUP3 ADD SWAP1 POP PUSH2 0x2408 PUSH1 0x0 DUP4 ADD DUP14 PUSH2 0x2279 JUMP JUMPDEST PUSH2 0x2415 PUSH1 0x40 DUP4 ADD DUP13 PUSH2 0x20DF JUMP JUMPDEST DUP2 DUP2 SUB PUSH1 0x60 DUP4 ADD MSTORE PUSH2 0x2427 DUP2 DUP12 PUSH2 0x2327 JUMP JUMPDEST SWAP1 POP DUP2 DUP2 SUB PUSH1 0x80 DUP4 ADD MSTORE PUSH2 0x243B DUP2 DUP11 PUSH2 0x2327 JUMP JUMPDEST SWAP1 POP PUSH2 0x244A PUSH1 0xA0 DUP4 ADD DUP10 PUSH2 0x2109 JUMP JUMPDEST PUSH2 0x2457 PUSH1 0xC0 DUP4 ADD DUP9 PUSH2 0x23C8 JUMP JUMPDEST PUSH2 0x2464 PUSH1 0xE0 DUP4 ADD DUP8 PUSH2 0x23E3 JUMP JUMPDEST PUSH2 0x2472 PUSH2 0x100 DUP4 ADD DUP7 PUSH2 0x23E3 JUMP JUMPDEST PUSH2 0x2480 PUSH2 0x120 DUP4 ADD DUP6 PUSH2 0x23E3 JUMP JUMPDEST PUSH2 0x248E PUSH2 0x140 DUP4 ADD DUP5 PUSH2 0x23E3 JUMP JUMPDEST SWAP12 SWAP11 POP POP POP POP POP POP POP POP POP POP POP JUMP JUMPDEST PUSH1 0x0 DUP1 PUSH1 0x0 PUSH1 0x40 DUP5 DUP7 SUB SLT ISZERO PUSH2 0x24B6 JUMPI PUSH2 0x24B5 PUSH2 0x1FE1 JUMP JUMPDEST JUMPDEST PUSH1 0x0 PUSH2 0x24C4 DUP7 DUP3 DUP8 ADD PUSH2 0x204A JUMP JUMPDEST SWAP4 POP POP PUSH1 0x20 DUP5 ADD CALLDATALOAD PUSH8 0xFFFFFFFFFFFFFFFF DUP2 GT ISZERO PUSH2 0x24E5 JUMPI PUSH2 0x24E4 PUSH2 0x1FE6 JUMP JUMPDEST JUMPDEST PUSH2 0x24F1 DUP7 DUP3 DUP8 ADD PUSH2 0x2142 JUMP JUMPDEST SWAP3 POP SWAP3 POP POP SWAP3 POP SWAP3 POP SWAP3 JUMP JUMPDEST PUSH32 0x4E487B7100000000000000000000000000000000000000000000000000000000 PUSH1 0x0 MSTORE PUSH1 0x32 PUSH1 0x4 MSTORE PUSH1 0x24 PUSH1 0x0 REVERT JUMPDEST PUSH32 0x4E6F742061207061727479000000000000000000000000000000000000000000 PUSH1 0x0 DUP3 ADD MSTORE POP JUMP JUMPDEST PUSH1 0x0 PUSH2 0x2562 PUSH1 0xB DUP4 PUSH2 0x22DB JUMP JUMPDEST SWAP2 POP PUSH2 0x256D DUP3 PUSH2 0x252C JUMP JUMPDEST PUSH1 0x20 DUP3 ADD SWAP1 POP SWAP2 SWAP1 POP JUMP JUMPDEST PUSH1 0x0 PUSH1 0x20 DUP3 ADD SWAP1 POP DUP2 DUP2 SUB PUSH1 0x0 DUP4 ADD MSTORE PUSH2 0x2591 DUP2 PUSH2 0x2555 JUMP JUMPDEST SWAP1 POP SWAP2 SWAP1 POP JUMP JUMPDEST PUSH32 0x4E6F74206177616974696E67206D65646961746F720000000000000000000000 PUSH1 0x0 DUP3 ADD MSTORE POP JUMP JUMPDEST PUSH1 0x0 PUSH2 0x25CE PUSH1 0x15 DUP4 PUSH2 0x22DB JUMP JUMPDEST SWAP2 POP PUSH2 0x25D9 DUP3 PUSH2 0x2598 JUMP JUMPDEST PUSH1 0x20 DUP3 ADD SWAP1 POP SWAP2 SWAP1 POP JUMP JUMPDEST PUSH1 0x0 PUSH1 0x20 DUP3 ADD SWAP1 POP DUP2 DUP2 SUB PUSH1 0x0 DUP4 ADD MSTORE PUSH2 0x25FD DUP2 PUSH2 0x25C1 JUMP JUMPDEST SWAP1 POP SWAP2 SWAP1 POP JUMP JUMPDEST PUSH32 0x4D65646961746F72206D69736D61746368000000000000000000000000000000 PUSH1 0x0 DUP3 ADD MSTORE POP JUMP JUMPDEST PUSH1 0x0 PUSH2 0x263A PUSH1 0x11 DUP4 PUSH2 0x22DB JUMP JUMPDEST SWAP2 POP PUSH2 0x2645 DUP3 PUSH2 0x2604 JUMP JUMPDEST PUSH1 0x20 DUP3 ADD SWAP1 POP SWAP2 SWAP1 POP JUMP JUMPDEST PUSH1 0x0 PUSH1 0x20 DUP3 ADD SWAP1 POP DUP2 DUP2 SUB PUSH1 0x0 DUP4 ADD MSTORE PUSH2 0x2669 DUP2 PUSH2 0x262D JUMP JUMPDEST SWAP1 POP SWAP2 SWAP1 POP JUMP JUMPDEST PUSH32 0x4D65646961746F722063616E6E6F742062652061207061727479206D656D6265 PUSH1 0x0 DUP3 ADD MSTORE PUSH32 0x7200000000000000000000000000000000000000000000000000000000000000 PUSH1 0x20 DUP3 ADD MSTORE POP JUMP JUMPDEST PUSH1 0x0 PUSH2 0x26CC PUSH1 0x21 DUP4 PUSH2 0x22DB JUMP JUMPDEST SWAP2 POP PUSH2 0x26D7 DUP3 PUSH2 0x2670 JUMP JUMPDEST PUSH1 0x40 DUP3 ADD SWAP1 POP SWAP2 SWAP1 POP JUMP JUMPDEST PUSH1 0x0 PUSH1 0x20 DUP3 ADD SWAP1 POP DUP2 DUP2 SUB PUSH1 0x0 DUP4 ADD MSTORE PUSH2 0x26FB DUP2 PUSH2 0x26BF JUMP JUMPDEST SWAP1 POP SWAP2 SWAP1 POP JUMP JUMPDEST PUSH32 0x4F6E6C79206D65646961746F722063616E2063616C6C20746869730000000000 PUSH1 0x0 DUP3 ADD MSTORE POP JUMP JUMPDEST PUSH1 0x0 PUSH2 0x2738 PUSH1 0x1B DUP4 PUSH2 0x22DB JUMP JUMPDEST SWAP2 POP PUSH2 0x2743 DUP3 PUSH2 0x2702 JUMP JUMPDEST PUSH1 0x20 DUP3 ADD SWAP1 POP SWAP2 SWAP1 POP JUMP JUMPDEST PUSH1 0x0 PUSH1 0x20 DUP3 ADD SWAP1 POP DUP2 DUP2 SUB PUSH1 0x0 DUP4 ADD MSTORE PUSH2 0x2767 DUP2 PUSH2 0x272B JUMP JUMPDEST SWAP1 POP SWAP2 SWAP1 POP JUMP JUMPDEST PUSH32 0x44697370757465206E6F74207265616479000000000000000000000000000000 PUSH1 0x0 DUP3 ADD MSTORE POP JUMP JUMPDEST PUSH1 0x0 PUSH2 0x27A4 PUSH1 0x11 DUP4 PUSH2 0x22DB JUMP JUMPDEST SWAP2 POP PUSH2 0x27AF DUP3 PUSH2 0x276E JUMP JUMPDEST PUSH1 0x20 DUP3 ADD SWAP1 POP SWAP2 SWAP1 POP JUMP JUMPDEST PUSH1 0x0 PUSH1 0x20 DUP3 ADD SWAP1 POP DUP2 DUP2 SUB PUSH1 0x0 DUP4 ADD MSTORE PUSH2 0x27D3 DUP2 PUSH2 0x2797 JUMP JUMPDEST SWAP1 POP SWAP2 SWAP1 POP JUMP JUMPDEST PUSH32 0x416C7265616479207265736F6C76656400000000000000000000000000000000 PUSH1 0x0 DUP3 ADD MSTORE POP JUMP JUMPDEST PUSH1 0x0 PUSH2 0x2810 PUSH1 0x10 DUP4 PUSH2 0x22DB JUMP JUMPDEST SWAP2 POP PUSH2 0x281B DUP3 PUSH2 0x27DA JUMP JUMPDEST PUSH1 0x20 DUP3 ADD SWAP1 POP SWAP2 SWAP1 POP JUMP JUMPDEST PUSH1 0x0 PUSH1 0x20 DUP3 ADD SWAP1 POP DUP2 DUP2 SUB PUSH1 0x0 DUP4 ADD MSTORE PUSH2 0x283F DUP2 PUSH2 0x2803 JUMP JUMPDEST SWAP1 POP SWAP2 SWAP1 POP JUMP JUMPDEST PUSH1 0x0 DUP3 SWAP1 POP SWAP3 SWAP2 POP POP JUMP JUMPDEST PUSH32 0x4E487B7100000000000000000000000000000000000000000000000000000000 PUSH1 0x0 MSTORE PUSH1 0x41 PUSH1 0x4 MSTORE PUSH1 0x24 PUSH1 0x0 REVERT JUMPDEST PUSH32 0x4E487B7100000000000000000000000000000000000000000000000000000000 PUSH1 0x0 MSTORE PUSH1 0x22 PUSH1 0x4 MSTORE PUSH1 0x24 PUSH1 0x0 REVERT JUMPDEST PUSH1 0x0 PUSH1 0x2 DUP3 DIV SWAP1 POP PUSH1 0x1 DUP3 AND DUP1 PUSH2 0x28C7 JUMPI PUSH1 0x7F DUP3 AND SWAP2 POP JUMPDEST PUSH1 0x20 DUP3 LT DUP2 SUB PUSH2 0x28DA JUMPI PUSH2 0x28D9 PUSH2 0x2880 JUMP JUMPDEST JUMPDEST POP SWAP2 SWAP1 POP JUMP JUMPDEST PUSH1 0x0 DUP2 SWAP1 POP DUP2 PUSH1 0x0 MSTORE PUSH1 0x20 PUSH1 0x0 KECCAK256 SWAP1 POP SWAP2 SWAP1 POP JUMP JUMPDEST PUSH1 0x0 PUSH1 0x20 PUSH1 0x1F DUP4 ADD DIV SWAP1 POP SWAP2 SWAP1 POP JUMP JUMPDEST PUSH1 0x0 DUP3 DUP3 SHL SWAP1 POP SWAP3 SWAP2 POP POP JUMP JUMPDEST PUSH1 0x0 PUSH1 0x8 DUP4 MUL PUSH2 0x2942 PUSH32 0xFFFFFFFFFFFFFFFFFFFFFFFFFFFFFFFFFFFFFFFFFFFFFFFFFFFFFFFFFFFFFFFF DUP3 PUSH2 0x2905 JUMP JUMPDEST PUSH2 0x294C DUP7 DUP4 PUSH2 0x2905 JUMP JUMPDEST SWAP6 POP DUP1 NOT DUP5 AND SWAP4 POP DUP1 DUP7 AND DUP5 OR SWAP3 POP POP POP SWAP4 SWAP3 POP POP POP JUMP JUMPDEST PUSH1 0x0 PUSH2 0x297F PUSH2 0x297A PUSH2 0x2975 DUP5 PUSH2 0x1FEB JUMP JUMPDEST PUSH2 0x1F67 JUMP JUMPDEST PUSH2 0x1FEB JUMP JUMPDEST SWAP1 POP SWAP2 SWAP1 POP JUMP JUMPDEST PUSH1 0x0 DUP2 SWAP1 POP SWAP2 SWAP1 POP JUMP JUMPDEST PUSH2 0x2999 DUP4 PUSH2 0x2964 JUMP JUMPDEST PUSH2 0x29AD PUSH2 0x29A5 DUP3 PUSH2 0x2986 JUMP JUMPDEST DUP5 DUP5 SLOAD PUSH2 0x2912 JUMP JUMPDEST DUP3 SSTORE POP POP POP POP JUMP JUMPDEST PUSH1 0x0 SWAP1 JUMP JUMPDEST PUSH2 0x29C2 PUSH2 0x29B5 JUMP JUMPDEST PUSH2 0x29CD DUP2 DUP5 DUP5 PUSH2 0x2990 JUMP JUMPDEST POP POP POP JUMP JUMPDEST JUMPDEST DUP2 DUP2 LT ISZERO PUSH2 0x29F1 JUMPI PUSH2 0x29E6 PUSH1 0x0 DUP3 PUSH2 0x29BA JUMP JUMPDEST PUSH1 0x1 DUP2 ADD SWAP1 POP PUSH2 0x29D3 JUMP JUMPDEST POP POP JUMP JUMPDEST PUSH1 0x1F DUP3 GT ISZERO PUSH2 0x2A36 JUMPI PUSH2 0x2A07 DUP2 PUSH2 0x28E0 JUMP JUMPDEST PUSH2 0x2A10 DUP5 PUSH2 0x28F5 JUMP JUMPDEST DUP2 ADD PUSH1 0x20 DUP6 LT ISZERO PUSH2 0x2A1F JUMPI DUP2 SWAP1 POP JUMPDEST PUSH2 0x2A33 PUSH2 0x2A2B DUP6 PUSH2 0x28F5 JUMP JUMPDEST DUP4 ADD DUP3 PUSH2 0x29D2 JUMP JUMPDEST POP POP JUMPDEST POP POP POP JUMP JUMPDEST PUSH1 0x0 DUP3 DUP3 SHR SWAP1 POP SWAP3 SWAP2 POP POP JUMP JUMPDEST PUSH1 0x0 PUSH2 0x2A59 PUSH1 0x0 NOT DUP5 PUSH1 0x8 MUL PUSH2 0x2A3B JUMP JUMPDEST NOT DUP1 DUP4 AND SWAP2 POP POP SWAP3 SWAP2 POP POP JUMP JUMPDEST PUSH1 0x0 PUSH2 0x2A72 DUP4 DUP4 PUSH2 0x2A48 JUMP JUMPDEST SWAP2 POP DUP3 PUSH1 0x2 MUL DUP3 OR SWAP1 POP SWAP3 SWAP2 POP POP JUMP JUMPDEST PUSH2 0x2A8C DUP4 DUP4 PUSH2 0x2846 JUMP JUMPDEST PUSH8 0xFFFFFFFFFFFFFFFF DUP2 GT ISZERO PUSH2 0x2AA5 JUMPI PUSH2 0x2AA4 PUSH2 0x2851 JUMP JUMPDEST JUMPDEST PUSH2 0x2AAF DUP3 SLOAD PUSH2 0x28AF JUMP JUMPDEST PUSH2 0x2ABA DUP3 DUP3 DUP6 PUSH2 0x29F5 JUMP JUMPDEST PUSH1 0x0 PUSH1 0x1F DUP4 GT PUSH1 0x1 DUP2 EQ PUSH2 0x2AE9 JUMPI PUSH1 0x0 DUP5 ISZERO PUSH2 0x2AD7 JUMPI DUP3 DUP8 ADD CALLDATALOAD SWAP1 POP JUMPDEST PUSH2 0x2AE1 DUP6 DUP3 PUSH2 0x2A66 JUMP JUMPDEST DUP7 SSTORE POP PUSH2 0x2B49 JUMP JUMPDEST PUSH1 0x1F NOT DUP5 AND PUSH2 0x2AF7 DUP7 PUSH2 0x28E0 JUMP JUMPDEST PUSH1 0x0 JUMPDEST DUP3 DUP2 LT ISZERO PUSH2 0x2B1F JUMPI DUP5 DUP10 ADD CALLDATALOAD DUP3 SSTORE PUSH1 0x1 DUP3 ADD SWAP2 POP PUSH1 0x20 DUP6 ADD SWAP5 POP PUSH1 0x20 DUP2 ADD SWAP1 POP PUSH2 0x2AFA JUMP JUMPDEST DUP7 DUP4 LT ISZERO PUSH2 0x2B3C JUMPI DUP5 DUP10 ADD CALLDATALOAD PUSH2 0x2B38 PUSH1 0x1F DUP10 AND DUP3 PUSH2 0x2A48 JUMP JUMPDEST DUP4 SSTORE POP JUMPDEST PUSH1 0x1 PUSH1 0x2 DUP9 MUL ADD DUP9 SSTORE POP POP POP JUMPDEST POP POP POP POP POP POP POP JUMP JUMPDEST PUSH1 0x0 PUSH1 0x40 DUP3 ADD SWAP1 POP PUSH2 0x2B67 PUSH1 0x0 DUP4 ADD DUP6 PUSH2 0x20DF JUMP JUMPDEST PUSH2 0x2B74 PUSH1 0x20 DUP4 ADD DUP5 PUSH2 0x2109 JUMP JUMPDEST SWAP4 SWAP3 POP POP POP JUMP JUMPDEST PUSH2 0x2B84 DUP2 PUSH2 0x23D7 JUMP JUMPDEST DUP2 EQ PUSH2 0x2B8F JUMPI PUSH1 0x0 DUP1 REVERT JUMPDEST POP JUMP JUMPDEST PUSH1 0x0 DUP2 MLOAD SWAP1 POP PUSH2 0x2BA1 DUP2 PUSH2 0x2B7B JUMP JUMPDEST SWAP3 SWAP2 POP POP JUMP JUMPDEST PUSH1 0x0 PUSH1 0x20 DUP3 DUP5 SUB SLT ISZERO PUSH2 0x2BBD JUMPI PUSH2 0x2BBC PUSH2 0x1FE1 JUMP JUMPDEST JUMPDEST PUSH1 0x0 PUSH2 0x2BCB DUP5 DUP3 DUP6 ADD PUSH2 0x2B92 JUMP JUMPDEST SWAP2 POP POP SWAP3 SWAP2 POP POP JUMP JUMPDEST PUSH32 0x55534443207061796F7574206661696C65640000000000000000000000000000 PUSH1 0x0 DUP3 ADD MSTORE POP JUMP JUMPDEST PUSH1 0x0 PUSH2 0x2C0A PUSH1 0x12 DUP4 PUSH2 0x22DB JUMP JUMPDEST SWAP2 POP PUSH2 0x2C15 DUP3 PUSH2 0x2BD4 JUMP JUMPDEST PUSH1 0x20 DUP3 ADD SWAP1 POP SWAP2 SWAP1 POP JUMP JUMPDEST PUSH1 0x0 PUSH1 0x20 DUP3 ADD SWAP1 POP DUP2 DUP2 SUB PUSH1 0x0 DUP4 ADD MSTORE PUSH2 0x2C39 DUP2 PUSH2 0x2BFD JUMP JUMPDEST SWAP1 POP SWAP2 SWAP1 POP JUMP JUMPDEST DUP3 DUP2 DUP4 CALLDATACOPY PUSH1 0x0 DUP4 DUP4 ADD MSTORE POP POP POP JUMP JUMPDEST PUSH1 0x0 PUSH2 0x2C5B DUP4 DUP6 PUSH2 0x22DB JUMP JUMPDEST SWAP4 POP PUSH2 0x2C68 DUP4 DUP6 DUP5 PUSH2 0x2C40 JUMP JUMPDEST PUSH2 0x2C71 DUP4 PUSH2 0x2316 JUMP JUMPDEST DUP5 ADD SWAP1 POP SWAP4 SWAP3 POP POP POP JUMP JUMPDEST PUSH1 0x0 PUSH1 0x20 DUP3 ADD SWAP1 POP DUP2 DUP2 SUB PUSH1 0x0 DUP4 ADD MSTORE PUSH2 0x2C97 DUP2 DUP5 DUP7 PUSH2 0x2C4F JUMP JUMPDEST SWAP1 POP SWAP4 SWAP3 POP POP POP JUMP JUMPDEST PUSH32 0x43616E6E6F742063616E63656C206E6F77000000000000000000000000000000 PUSH1 0x0 DUP3 ADD MSTORE POP JUMP JUMPDEST PUSH1 0x0 PUSH2 0x2CD6 PUSH1 0x11 DUP4 PUSH2 0x22DB JUMP JUMPDEST SWAP2 POP PUSH2 0x2CE1 DUP3 PUSH2 0x2CA0 JUMP JUMPDEST PUSH1 0x20 DUP3 ADD SWAP1 POP SWAP2 SWAP1 POP JUMP JUMPDEST PUSH1 0x0 PUSH1 0x20 DUP3 ADD SWAP1 POP DUP2 DUP2 SUB PUSH1 0x0 DUP4 ADD MSTORE PUSH2 0x2D05 DUP2 PUSH2 0x2CC9 JUMP JUMPDEST SWAP1 POP SWAP2 SWAP1 POP JUMP JUMPDEST PUSH32 0x4F7468657220706172747920616C726561647920706169640000000000000000 PUSH1 0x0 DUP3 ADD MSTORE POP JUMP JUMPDEST PUSH1 0x0 PUSH2 0x2D42 PUSH1 0x18 DUP4 PUSH2 0x22DB JUMP JUMPDEST SWAP2 POP PUSH2 0x2D4D DUP3 PUSH2 0x2D0C JUMP JUMPDEST PUSH1 0x20 DUP3 ADD SWAP1 POP SWAP2 SWAP1 POP JUMP JUMPDEST PUSH1 0x0 PUSH1 0x20 DUP3 ADD SWAP1 POP DUP2 DUP2 SUB PUSH1 0x0 DUP4 ADD MSTORE PUSH2 0x2D71 DUP2 PUSH2 0x2D35 JUMP JUMPDEST SWAP1 POP SWAP2 SWAP1 POP JUMP JUMPDEST PUSH32 0x5553444320726566756E64206661696C65640000000000000000000000000000 PUSH1 0x0 DUP3 ADD MSTORE POP JUMP JUMPDEST PUSH1 0x0 PUSH2 0x2DAE PUSH1 0x12 DUP4 PUSH2 0x22DB JUMP JUMPDEST SWAP2 POP PUSH2 0x2DB9 DUP3 PUSH2 0x2D78 JUMP JUMPDEST PUSH1 0x20 DUP3 ADD SWAP1 POP SWAP2 SWAP1 POP JUMP JUMPDEST PUSH1 0x0 PUSH1 0x20 DUP3 ADD SWAP1 POP DUP2 DUP2 SUB PUSH1 0x0 DUP4 ADD MSTORE PUSH2 0x2DDD DUP2 PUSH2 0x2DA1 JUMP JUMPDEST SWAP1 POP SWAP2 SWAP1 POP JUMP JUMPDEST PUSH32 0x46756E64696E6720636C6F736564000000000000000000000000000000000000 PUSH1 0x0 DUP3 ADD MSTORE POP JUMP JUMPDEST PUSH1 0x0 PUSH2 0x2E1A PUSH1 0xE DUP4 PUSH2 0x22DB JUMP JUMPDEST SWAP2 POP PUSH2 0x2E25 DUP3 PUSH2 0x2DE4 JUMP JUMPDEST PUSH1 0x20 DUP3 ADD SWAP1 POP SWAP2 SWAP1 POP JUMP JUMPDEST PUSH1 0x0 PUSH1 0x20 DUP3 ADD SWAP1 POP DUP2 DUP2 SUB PUSH1 0x0 DUP4 ADD MSTORE PUSH2 0x2E49 DUP2 PUSH2 0x2E0D JUMP JUMPDEST SWAP1 POP SWAP2 SWAP1 POP JUMP JUMPDEST PUSH32 0x416C726561647920706169640000000000000000000000000000000000000000 PUSH1 0x0 DUP3 ADD MSTORE POP JUMP JUMPDEST PUSH1 0x0 PUSH2 0x2E86 PUSH1 0xC DUP4 PUSH2 0x22DB JUMP JUMPDEST SWAP2 POP PUSH2 0x2E91 DUP3 PUSH2 0x2E50 JUMP JUMPDEST PUSH1 0x20 DUP3 ADD SWAP1 POP SWAP2 SWAP1 POP JUMP JUMPDEST PUSH1 0x0 PUSH1 0x20 DUP3 ADD SWAP1 POP DUP2 DUP2 SUB PUSH1 0x0 DUP4 ADD MSTORE PUSH2 0x2EB5 DUP2 PUSH2 0x2E79 JUMP JUMPDEST SWAP1 POP SWAP2 SWAP1 POP JUMP JUMPDEST PUSH32 0x4D757374206465706F736974206E6F6E2D7A65726F20616D6F756E7400000000 PUSH1 0x0 DUP3 ADD MSTORE POP JUMP JUMPDEST PUSH1 0x0 PUSH2 0x2EF2 PUSH1 0x1C DUP4 PUSH2 0x22DB JUMP JUMPDEST SWAP2 POP PUSH2 0x2EFD DUP3 PUSH2 0x2EBC JUMP JUMPDEST PUSH1 0x20 DUP3 ADD SWAP1 POP SWAP2 SWAP1 POP JUMP JUMPDEST PUSH1 0x0 PUSH1 0x20 DUP3 ADD SWAP1 POP DUP2 DUP2 SUB PUSH1 0x0 DUP4 ADD MSTORE PUSH2 0x2F21 DUP2 PUSH2 0x2EE5 JUMP JUMPDEST SWAP1 POP SWAP2 SWAP1 POP JUMP JUMPDEST PUSH1 0x0 PUSH1 0x60 DUP3 ADD SWAP1 POP PUSH2 0x2F3D PUSH1 0x0 DUP4 ADD DUP7 PUSH2 0x20DF JUMP JUMPDEST PUSH2 0x2F4A PUSH1 0x20 DUP4 ADD DUP6 PUSH2 0x20DF JUMP JUMPDEST PUSH2 0x2F57 PUSH1 0x40 DUP4 ADD DUP5 PUSH2 0x2109 JUMP JUMPDEST SWAP5 SWAP4 POP POP POP POP JUMP JUMPDEST PUSH32 0x5472616E73666572206661696C65640000000000000000000000000000000000 PUSH1 0x0 DUP3 ADD MSTORE POP JUMP JUMPDEST PUSH1 0x0 PUSH2 0x2F95 PUSH1 0xF DUP4 PUSH2 0x22DB JUMP JUMPDEST SWAP2 POP PUSH2 0x2FA0 DUP3 PUSH2 0x2F5F JUMP JUMPDEST PUSH1 0x20 DUP3 ADD SWAP1 POP SWAP2 SWAP1 POP JUMP JUMPDEST PUSH1 0x0 PUSH1 0x20 DUP3 ADD SWAP1 POP DUP2 DUP2 SUB PUSH1 0x0 DUP4 ADD MSTORE PUSH2 0x2FC4 DUP2 PUSH2 0x2F88 JUMP JUMPDEST SWAP1 POP SWAP2 SWAP1 POP JUMP JUMPDEST PUSH32 0x4E487B7100000000000000000000000000000000000000000000000000000000 PUSH1 0x0 MSTORE PUSH1 0x11 PUSH1 0x4 MSTORE PUSH1 0x24 PUSH1 0x0 REVERT JUMPDEST PUSH1 0x0 PUSH2 0x3005 DUP3 PUSH2 0x1FEB JUMP JUMPDEST SWAP2 POP PUSH2 0x3010 DUP4 PUSH2 0x1FEB JUMP JUMPDEST SWAP3 POP DUP3 DUP3 ADD SWAP1 POP DUP1 DUP3 GT ISZERO PUSH2 0x3028 JUMPI PUSH2 0x3027 PUSH2 0x2FCB JUMP JUMPDEST JUMPDEST SWAP3 SWAP2 POP POP JUMP JUMPDEST PUSH32 0x43616E6E6F742064697370757465207769746820796F757273656C6600000000 PUSH1 0x0 DUP3 ADD MSTORE POP JUMP JUMPDEST PUSH1 0x0 PUSH2 0x3064 PUSH1 0x1C DUP4 PUSH2 0x22DB JUMP JUMPDEST SWAP2 POP PUSH2 0x306F DUP3 PUSH2 0x302E JUMP JUMPDEST PUSH1 0x20 DUP3 ADD SWAP1 POP SWAP2 SWAP1 POP JUMP JUMPDEST PUSH1 0x0 PUSH1 0x20 DUP3 ADD SWAP1 POP DUP2 DUP2 SUB PUSH1 0x0 DUP4 ADD MSTORE PUSH2 0x3093 DUP2 PUSH2 0x3057 JUMP JUMPDEST SWAP1 POP SWAP2 SWAP1 POP JUMP JUMPDEST PUSH1 0x0 PUSH2 0x30A5 DUP3 PUSH2 0x1FEB JUMP JUMPDEST SWAP2 POP PUSH32 0xFFFFFFFFFFFFFFFFFFFFFFFFFFFFFFFFFFFFFFFFFFFFFFFFFFFFFFFFFFFFFFFF DUP3 SUB PUSH2 0x30D7 JUMPI PUSH2 0x30D6 PUSH2 0x2FCB JUMP JUMPDEST JUMPDEST PUSH1 0x1 DUP3 ADD SWAP1 POP SWAP2 SWAP1 POP JUMP JUMPDEST PUSH1 0x0 PUSH1 0x60 DUP3 ADD SWAP1 POP PUSH2 0x30F7 PUSH1 0x0 DUP4 ADD DUP8 PUSH2 0x20DF JUMP JUMPDEST PUSH2 0x3104 PUSH1 0x20 DUP4 ADD DUP7 PUSH2 0x20DF JUMP JUMPDEST DUP2 DUP2 SUB PUSH1 0x40 DUP4 ADD MSTORE PUSH2 0x3117 DUP2 DUP5 DUP7 PUSH2 0x2C4F JUMP JUMPDEST SWAP1 POP SWAP6 SWAP5 POP POP POP POP POP JUMP INVALID LOG2 PUSH5 0x6970667358 0x22 SLT KECCAK256 0xAD 0xEA PUSH32 0xB5A5CBC507D02A0BEDF33B8BDB401EE7A2BFD4FBDFE667E820E15C97664736F PUSH13 0x63430008140033000000000000 "
        },
        "methodIdentifiers": {
          "cancelDispute(uint256)": "df02935c",
          "confirmMediator(uint256,address)": "602ee025",
          "createDispute(address,string)": "ead3489a",
          "deposit(uint256,uint256)": "e2bbb158",
          "disputeCount()": "a28889e1",
          "disputePartiesView(uint256,uint256)": "70fd07cc",
          "getDispute(uint256)": "e3a96cbd",
          "resolveDispute(uint256,string)": "cf51b45d",
          "usdcToken()": "11eac855"
        }
      }
    }
  }
}