{
  "_format": "hh-sol-artifact-1",
  "contractName": "DisputeResolutionV2",
  "sourceName": "contracts/DisputeResolution.sol",
  "abi": [
    {
      "inputs": [
        {
          "internalType": "address",
          "name": "_usdcToken",
          "type": "address"
        }
      ],
      "stateMutability": "nonpayable",
      "type": "constructor"
    },
    {
      "anonymous": false,
      "inputs": [
        {
          "indexed": true,
          "internalType": "uint256",
          "name": "id",
          "type": "uint256"
        },
        {
          "indexed": true,
          "internalType": "address",
          "name": "from",
          "type": "address"
        },
        {
          "indexed": false,
          "internalType": "uint256",
          "name": "amount",
          "type": "uint256"
        }
      ],
      "name": "DepositMade",
      "type": "event"
    },
    {
      "anonymous": false,
      "inputs": [
        {
          "indexed": true,
          "internalType": "uint256",
          "name": "id",
          "type": "uint256"
        }
      ],
      "name": "DisputeCancelled",
      "type": "event"
    },
    {
      "anonymous": false,
      "inputs": [
        {
          "indexed": true,
          "internalType": "uint256",
          "name": "id",
          "type": "uint256"
        },
        {
          "indexed": false,
          "internalType": "address",
          "name": "party1",
          "type": "address"
        },
        {
          "indexed": false,
          "internalType": "address",
          "name": "party2",
          "type": "address"
        },
        {
          "indexed": false,
          "internalType": "string",
          "name": "ipfsHash",
          "type": "string"
        }
      ],
      "name": "DisputeCreated",
      "type": "event"
    },
    {
      "anonymous": false,
      "inputs": [
        {
          "indexed": true,
          "internalType": "uint256",
          "name": "id",
          "type": "uint256"
        },
        {
          "indexed": false,
          "internalType": "string",
          "name": "resolutionIPFS",
          "type": "string"
        }
      ],
      "name": "DisputeResolved",
      "type": "event"
    },
    {
      "anonymous": false,
      "inputs": [
        {
          "indexed": true,
          "internalType": "uint256",
          "name": "id",
          "type": "uint256"
        }
      ],
      "name": "DisputeUpdated",
      "type": "event"
    },
    {
      "anonymous": false,
      "inputs": [
        {
          "indexed": true,
          "internalType": "uint256",
          "name": "id",
          "type": "uint256"
        },
        {
          "indexed": true,
          "internalType": "address",
          "name": "party",
          "type": "address"
        }
      ],
      "name": "MediatorConfirmed",
      "type": "event"
    },
    {
      "anonymous": false,
      "inputs": [
        {
          "indexed": true,
          "internalType": "uint256",
          "name": "id",
          "type": "uint256"
        },
        {
          "indexed": false,
          "internalType": "address",
          "name": "mediator",
          "type": "address"
        }
      ],
      "name": "MediatorSet",
      "type": "event"
    },
    {
      "inputs": [
        {
          "internalType": "uint256",
          "name": "id",
          "type": "uint256"
        }
      ],
      "name": "cancelDispute",
      "outputs": [],
      "stateMutability": "nonpayable",
      "type": "function"
    },
    {
      "inputs": [
        {
          "internalType": "uint256",
          "name": "id",
          "type": "uint256"
        },
        {
          "internalType": "address",
          "name": "_mediator",
          "type": "address"
        }
      ],
      "name": "confirmMediator",
      "outputs": [],
      "stateMutability": "nonpayable",
      "type": "function"
    },
    {
      "inputs": [
        {
          "internalType": "uint256",
          "name": "id",
          "type": "uint256"
        }
      ],
      "name": "contributeAdditionalDeposit",
      "outputs": [],
      "stateMutability": "nonpayable",
      "type": "function"
    },
    {
      "inputs": [
        {
          "internalType": "address",
          "name": "_otherParty",
          "type": "address"
        },
        {
          "internalType": "string",
          "name": "_problemIPFS",
          "type": "string"
        }
      ],
      "name": "createDispute",
      "outputs": [
        {
          "internalType": "uint256",
          "name": "",
          "type": "uint256"
        }
      ],
      "stateMutability": "nonpayable",
      "type": "function"
    },
    {
      "inputs": [
        {
          "internalType": "uint256",
          "name": "id",
          "type": "uint256"
        },
        {
          "internalType": "uint256",
          "name": "amount",
          "type": "uint256"
        }
      ],
      "name": "deposit",
      "outputs": [],
      "stateMutability": "nonpayable",
      "type": "function"
    },
    {
      "inputs": [],
      "name": "disputeCount",
      "outputs": [
        {
          "internalType": "uint256",
          "name": "",
          "type": "uint256"
        }
      ],
      "stateMutability": "view",
      "type": "function"
    },
    {
      "inputs": [
        {
          "internalType": "uint256",
          "name": "",
          "type": "uint256"
        },
        {
          "internalType": "uint256",
          "name": "",
          "type": "uint256"
        }
      ],
      "name": "disputePartiesView",
      "outputs": [
        {
          "internalType": "address",
          "name": "",
          "type": "address"
        }
      ],
      "stateMutability": "view",
      "type": "function"
    },
    {
      "inputs": [
        {
          "internalType": "uint256",
          "name": "id",
          "type": "uint256"
        }
      ],
      "name": "getDispute",
      "outputs": [
        {
          "internalType": "address[2]",
          "name": "parties",
          "type": "address[2]"
        },
        {
          "internalType": "address",
          "name": "mediator",
          "type": "address"
        },
        {
          "internalType": "string",
          "name": "problemIPFS",
          "type": "string"
        },
        {
          "internalType": "string",
          "name": "resolutionIPFS",
          "type": "string"
        },
        {
          "internalType": "uint256",
          "name": "totalLockedAmount",
          "type": "uint256"
        },
        {
          "internalType": "enum DisputeResolutionV2.DisputeStatus",
          "name": "status",
          "type": "uint8"
        },
        {
          "internalType": "bool",
          "name": "paid1",
          "type": "bool"
        },
        {
          "internalType": "bool",
          "name": "paid2",
          "type": "bool"
        },
        {
          "internalType": "bool",
          "name": "confirmed1",
          "type": "bool"
        },
        {
          "internalType": "bool",
          "name": "confirmed2",
          "type": "bool"
        }
      ],
      "stateMutability": "view",
      "type": "function"
    },
    {
      "inputs": [
        {
          "internalType": "uint256",
          "name": "id",
          "type": "uint256"
        },
        {
          "internalType": "uint256",
          "name": "amount",
          "type": "uint256"
        }
      ],
      "name": "requestAdditionalDeposit",
      "outputs": [],
      "stateMutability": "nonpayable",
      "type": "function"
    },
    {
      "inputs": [
        {
          "internalType": "uint256",
          "name": "id",
          "type": "uint256"
        },
        {
          "internalType": "string",
          "name": "_resolutionIPFS",
          "type": "string"
        }
      ],
      "name": "resolveDispute",
      "outputs": [],
      "stateMutability": "nonpayable",
      "type": "function"
    },
    {
      "inputs": [],
      "name": "usdcToken",
      "outputs": [
        {
          "internalType": "contract IERC20",
          "name": "",
          "type": "address"
        }
      ],
      "stateMutability": "view",
      "type": "function"
    }
  ],
  "bytecode": "0x60806040523480156200001157600080fd5b5060405162004100380380620041008339818101604052810190620000379190620000e8565b806000806101000a81548173ffffffffffffffffffffffffffffffffffffffff021916908373ffffffffffffffffffffffffffffffffffffffff160217905550506200011a565b600080fd5b600073ffffffffffffffffffffffffffffffffffffffff82169050919050565b6000620000b08262000083565b9050919050565b620000c281620000a3565b8114620000ce57600080fd5b50565b600081519050620000e281620000b7565b92915050565b6000602082840312156200010157620001006200007e565b5b60006200011184828501620000d1565b91505092915050565b613fd6806200012a6000396000f3fe608060405234801561001057600080fd5b50600436106100a95760003560e01c8063ad17564711610071578063ad17564714610152578063cf51b45d1461016e578063df02935c1461018a578063e2bbb158146101a6578063e3a96cbd146101c2578063ead3489a146101fb576100a9565b806311eac855146100ae578063596e8fe3146100cc578063602ee025146100e857806370fd07cc14610104578063a28889e114610134575b600080fd5b6100b661022b565b6040516100c39190612b5c565b60405180910390f35b6100e660048036038101906100e19190612bb7565b61024f565b005b61010260048036038101906100fd9190612c35565b61065e565b005b61011e60048036038101906101199190612bb7565b610cec565b60405161012b9190612c84565b60405180910390f35b61013c610d3a565b6040516101499190612cae565b60405180910390f35b61016c60048036038101906101679190612cc9565b610d40565b005b61018860048036038101906101839190612d5b565b6114a6565b005b6101a4600480360381019061019f9190612cc9565b611806565b005b6101c060048036038101906101bb9190612bb7565b611db1565b005b6101dc60048036038101906101d79190612cc9565b61236a565b6040516101f29a99989796959493929190612f88565b60405180910390f35b61021560048036038101906102109190613033565b6127aa565b6040516102229190612cae565b60405180910390f35b60008054906101000a900473ffffffffffffffffffffffffffffffffffffffff1681565b816002600082815260200190815260200160002060000160006002811061027957610278613093565b5b0160009054906101000a900473ffffffffffffffffffffffffffffffffffffffff1673ffffffffffffffffffffffffffffffffffffffff163373ffffffffffffffffffffffffffffffffffffffff1614806103495750600260008281526020019081526020016000206000016001600281106102f8576102f7613093565b5b0160009054906101000a900473ffffffffffffffffffffffffffffffffffffffff1673ffffffffffffffffffffffffffffffffffffffff163373ffffffffffffffffffffffffffffffffffffffff16145b610388576040517f08c379a000000000000000000000000000000000000000000000000000000000815260040161037f9061310e565b60405180910390fd5b600082116103cb576040517f08c379a00000000000000000000000000000000000000000000000000000000081526004016103c29061317a565b60405180910390fd5b6000600260008581526020019081526020016000209050600360048111156103f6576103f5612ef6565b5b8160090160009054906101000a900460ff16600481111561041a57610419612ef6565b5b1415801561045d575060048081111561043657610435612ef6565b5b8160090160009054906101000a900460ff16600481111561045a57610459612ef6565b5b14155b61049c576040517f08c379a0000000000000000000000000000000000000000000000000000000008152600401610493906131e6565b60405180910390fd5b600060026000868152602001908152602001600020600401600080815260200190815260200160002090506000816000015414806104e1575080600001548160020154145b610520576040517f08c379a000000000000000000000000000000000000000000000000000000000815260040161051790613252565b60405180910390fd5b83816000018190555060008160010160008460000160006002811061054857610547613093565b5b0160009054906101000a900473ffffffffffffffffffffffffffffffffffffffff1673ffffffffffffffffffffffffffffffffffffffff1673ffffffffffffffffffffffffffffffffffffffff16815260200190815260200160002060006101000a81548160ff0219169083151502179055506000816001016000846000016001600281106105da576105d9613093565b5b0160009054906101000a900473ffffffffffffffffffffffffffffffffffffffff1673ffffffffffffffffffffffffffffffffffffffff1673ffffffffffffffffffffffffffffffffffffffff16815260200190815260200160002060006101000a81548160ff021916908315150217905550600081600201819055505050505050565b816002600082815260200190815260200160002060000160006002811061068857610687613093565b5b0160009054906101000a900473ffffffffffffffffffffffffffffffffffffffff1673ffffffffffffffffffffffffffffffffffffffff163373ffffffffffffffffffffffffffffffffffffffff16148061075857506002600082815260200190815260200160002060000160016002811061070757610706613093565b5b0160009054906101000a900473ffffffffffffffffffffffffffffffffffffffff1673ffffffffffffffffffffffffffffffffffffffff163373ffffffffffffffffffffffffffffffffffffffff16145b610797576040517f08c379a000000000000000000000000000000000000000000000000000000000815260040161078e9061310e565b60405180910390fd5b6000600260008581526020019081526020016000209050600160048111156107c2576107c1612ef6565b5b8160090160009054906101000a900460ff1660048111156107e6576107e5612ef6565b5b14610826576040517f08c379a000000000000000000000000000000000000000000000000000000000815260040161081d906132be565b60405180910390fd5b600073ffffffffffffffffffffffffffffffffffffffff168160060160009054906101000a900473ffffffffffffffffffffffffffffffffffffffff1673ffffffffffffffffffffffffffffffffffffffff1614806108d457508273ffffffffffffffffffffffffffffffffffffffff168160060160009054906101000a900473ffffffffffffffffffffffffffffffffffffffff1673ffffffffffffffffffffffffffffffffffffffff16145b610913576040517f08c379a000000000000000000000000000000000000000000000000000000000815260040161090a9061332a565b60405180910390fd5b8060000160006002811061092a57610929613093565b5b0160009054906101000a900473ffffffffffffffffffffffffffffffffffffffff1673ffffffffffffffffffffffffffffffffffffffff168373ffffffffffffffffffffffffffffffffffffffff16141580156109eb57508060000160016002811061099957610998613093565b5b0160009054906101000a900473ffffffffffffffffffffffffffffffffffffffff1673ffffffffffffffffffffffffffffffffffffffff168373ffffffffffffffffffffffffffffffffffffffff1614155b610a2a576040517f08c379a0000000000000000000000000000000000000000000000000000000008152600401610a21906133bc565b60405180910390fd5b828160060160006101000a81548173ffffffffffffffffffffffffffffffffffffffff021916908373ffffffffffffffffffffffffffffffffffffffff16021790555060018160030160003373ffffffffffffffffffffffffffffffffffffffff1673ffffffffffffffffffffffffffffffffffffffff16815260200190815260200160002060006101000a81548160ff0219169083151502179055503373ffffffffffffffffffffffffffffffffffffffff16847fb9860328d5325ca7d8f3f5fc1040667291a244d3862e6b2810e6f59685a9568f60405160405180910390a3837f29a00cd7b143153a043355a38ed7fa14305cd81468035c2e2e389897f38980d860405160405180910390a280600301600082600001600060028110610b5557610b54613093565b5b0160009054906101000a900473ffffffffffffffffffffffffffffffffffffffff1673ffffffffffffffffffffffffffffffffffffffff1673ffffffffffffffffffffffffffffffffffffffff16815260200190815260200160002060009054906101000a900460ff168015610c4e575080600301600082600001600160028110610be357610be2613093565b5b0160009054906101000a900473ffffffffffffffffffffffffffffffffffffffff1673ffffffffffffffffffffffffffffffffffffffff1673ffffffffffffffffffffffffffffffffffffffff16815260200190815260200160002060009054906101000a900460ff165b15610ce65760028160090160006101000a81548160ff02191690836004811115610c7b57610c7a612ef6565b5b0217905550837fbdec1f29ca9b6d70a64bdf26a79d961feb840a8d6fae08f502d436fd481c9efe84604051610cb09190612c84565b60405180910390a2837f29a00cd7b143153a043355a38ed7fa14305cd81468035c2e2e389897f38980d860405160405180910390a25b50505050565b60036020528160005260406000208181548110610d0857600080fd5b906000526020600020016000915091509054906101000a900473ffffffffffffffffffffffffffffffffffffffff1681565b60015481565b8060026000828152602001908152602001600020600001600060028110610d6a57610d69613093565b5b0160009054906101000a900473ffffffffffffffffffffffffffffffffffffffff1673ffffffffffffffffffffffffffffffffffffffff163373ffffffffffffffffffffffffffffffffffffffff161480610e3a575060026000828152602001908152602001600020600001600160028110610de957610de8613093565b5b0160009054906101000a900473ffffffffffffffffffffffffffffffffffffffff1673ffffffffffffffffffffffffffffffffffffffff163373ffffffffffffffffffffffffffffffffffffffff16145b610e79576040517f08c379a0000000000000000000000000000000000000000000000000000000008152600401610e709061310e565b60405180910390fd5b600060026000848152602001908152602001600020905060036004811115610ea457610ea3612ef6565b5b8160090160009054906101000a900460ff166004811115610ec857610ec7612ef6565b5b14158015610f0b5750600480811115610ee457610ee3612ef6565b5b8160090160009054906101000a900460ff166004811115610f0857610f07612ef6565b5b14155b610f4a576040517f08c379a0000000000000000000000000000000000000000000000000000000008152600401610f4190613428565b60405180910390fd5b600060026000858152602001908152602001600020600401600080815260200190815260200160002090506000816000015411610fbc576040517f08c379a0000000000000000000000000000000000000000000000000000000008152600401610fb390613494565b60405180910390fd5b8060010160003373ffffffffffffffffffffffffffffffffffffffff1673ffffffffffffffffffffffffffffffffffffffff16815260200190815260200160002060009054906101000a900460ff161561104b576040517f08c379a000000000000000000000000000000000000000000000000000000000815260040161104290613500565b60405180910390fd5b60006002826000015461105e919061357e565b905060008054906101000a900473ffffffffffffffffffffffffffffffffffffffff1673ffffffffffffffffffffffffffffffffffffffff166323b872dd3330846040518463ffffffff1660e01b81526004016110bd939291906135af565b6020604051808303816000875af11580156110dc573d6000803e3d6000fd5b505050506040513d601f19601f820116820180604052508101906111009190613612565b61113f576040517f08c379a00000000000000000000000000000000000000000000000000000000081526004016111369061368b565b60405180910390fd5b60018260010160003373ffffffffffffffffffffffffffffffffffffffff1673ffffffffffffffffffffffffffffffffffffffff16815260200190815260200160002060006101000a81548160ff021916908315150217905550808260020160008282546111ad91906136ab565b92505081905550808360050160008282546111c891906136ab565b925050819055503373ffffffffffffffffffffffffffffffffffffffff16857f377ef0adce1eae318afaad309c3b0f6c378fa1a294064deccda8d15ad28858eb836040516112169190612cae565b60405180910390a3847f29a00cd7b143153a043355a38ed7fa14305cd81468035c2e2e389897f38980d860405160405180910390a28160010160008460000160006002811061126857611267613093565b5b0160009054906101000a900473ffffffffffffffffffffffffffffffffffffffff1673ffffffffffffffffffffffffffffffffffffffff1673ffffffffffffffffffffffffffffffffffffffff16815260200190815260200160002060009054906101000a900460ff1680156113615750816001016000846000016001600281106112f6576112f5613093565b5b0160009054906101000a900473ffffffffffffffffffffffffffffffffffffffff1673ffffffffffffffffffffffffffffffffffffffff1673ffffffffffffffffffffffffffffffffffffffff16815260200190815260200160002060009054906101000a900460ff165b1561149f57600082600001819055506000826002018190555060008260010160008560000160006002811061139957611398613093565b5b0160009054906101000a900473ffffffffffffffffffffffffffffffffffffffff1673ffffffffffffffffffffffffffffffffffffffff1673ffffffffffffffffffffffffffffffffffffffff16815260200190815260200160002060006101000a81548160ff02191690831515021790555060008260010160008560000160016002811061142b5761142a613093565b5b0160009054906101000a900473ffffffffffffffffffffffffffffffffffffffff1673ffffffffffffffffffffffffffffffffffffffff1673ffffffffffffffffffffffffffffffffffffffff16815260200190815260200160002060006101000a81548160ff0219169083151502179055505b5050505050565b826002600082815260200190815260200160002060060160009054906101000a900473ffffffffffffffffffffffffffffffffffffffff1673ffffffffffffffffffffffffffffffffffffffff163373ffffffffffffffffffffffffffffffffffffffff161461154b576040517f08c379a00000000000000000000000000000000000000000000000000000000081526004016115429061372b565b60405180910390fd5b60006002600086815260200190815260200160002090506002600481111561157657611575612ef6565b5b8160090160009054906101000a900460ff16600481111561159a57611599612ef6565b5b146115da576040517f08c379a00000000000000000000000000000000000000000000000000000000081526004016115d190613797565b60405180910390fd5b600360048111156115ee576115ed612ef6565b5b8160090160009054906101000a900460ff16600481111561161257611611612ef6565b5b03611652576040517f08c379a000000000000000000000000000000000000000000000000000000000815260040161164990613803565b60405180910390fd5b8383826008019182611665929190613a5f565b5060038160090160006101000a81548160ff0219169083600481111561168e5761168d612ef6565b5b021790555060008054906101000a900473ffffffffffffffffffffffffffffffffffffffff1673ffffffffffffffffffffffffffffffffffffffff1663a9059cbb8260060160009054906101000a900473ffffffffffffffffffffffffffffffffffffffff1683600501546040518363ffffffff1660e01b8152600401611716929190613b2f565b6020604051808303816000875af1158015611735573d6000803e3d6000fd5b505050506040513d601f19601f820116820180604052508101906117599190613612565b611798576040517f08c379a000000000000000000000000000000000000000000000000000000000815260040161178f90613ba4565b60405180910390fd5b847f831764ac02a33c193cba23a0de34c986e9b50402bf3c9febf6ff2f63d4c0435d85856040516117ca929190613c00565b60405180910390a2847f29a00cd7b143153a043355a38ed7fa14305cd81468035c2e2e389897f38980d860405160405180910390a25050505050565b80600260008281526020019081526020016000206000016000600281106118305761182f613093565b5b0160009054906101000a900473ffffffffffffffffffffffffffffffffffffffff1673ffffffffffffffffffffffffffffffffffffffff163373ffffffffffffffffffffffffffffffffffffffff1614806119005750600260008281526020019081526020016000206000016001600281106118af576118ae613093565b5b0160009054906101000a900473ffffffffffffffffffffffffffffffffffffffff1673ffffffffffffffffffffffffffffffffffffffff163373ffffffffffffffffffffffffffffffffffffffff16145b61193f576040517f08c379a00000000000000000000000000000000000000000000000000000000081526004016119369061310e565b60405180910390fd5b60006002600084815260200190815260200160002090506000600481111561196a57611969612ef6565b5b8160090160009054906101000a900460ff16600481111561198e5761198d612ef6565b5b14806119cf5750600160048111156119a9576119a8612ef6565b5b8160090160009054906101000a900460ff1660048111156119cd576119cc612ef6565b5b145b611a0e576040517f08c379a0000000000000000000000000000000000000000000000000000000008152600401611a0590613c70565b60405180910390fd5b600081600001600060028110611a2757611a26613093565b5b0160009054906101000a900473ffffffffffffffffffffffffffffffffffffffff1673ffffffffffffffffffffffffffffffffffffffff163373ffffffffffffffffffffffffffffffffffffffff1614611ab95781600001600060028110611a9257611a91613093565b5b0160009054906101000a900473ffffffffffffffffffffffffffffffffffffffff16611af3565b81600001600160028110611ad057611acf613093565b5b0160009054906101000a900473ffffffffffffffffffffffffffffffffffffffff165b90508160020160008273ffffffffffffffffffffffffffffffffffffffff1673ffffffffffffffffffffffffffffffffffffffff16815260200190815260200160002060009054906101000a900460ff1615611b84576040517f08c379a0000000000000000000000000000000000000000000000000000000008152600401611b7b90613cdc565b60405180910390fd5b8160020160003373ffffffffffffffffffffffffffffffffffffffff1673ffffffffffffffffffffffffffffffffffffffff16815260200190815260200160002060009054906101000a900460ff1615611d245760008260020160003373ffffffffffffffffffffffffffffffffffffffff1673ffffffffffffffffffffffffffffffffffffffff16815260200190815260200160002060006101000a81548160ff0219169083151502179055506000826005015490506000836005018190555060008054906101000a900473ffffffffffffffffffffffffffffffffffffffff1673ffffffffffffffffffffffffffffffffffffffff1663a9059cbb33836040518363ffffffff1660e01b8152600401611ca0929190613b2f565b6020604051808303816000875af1158015611cbf573d6000803e3d6000fd5b505050506040513d601f19601f82011682018060405250810190611ce39190613612565b611d22576040517f08c379a0000000000000000000000000000000000000000000000000000000008152600401611d1990613d48565b60405180910390fd5b505b60048260090160006101000a81548160ff02191690836004811115611d4c57611d4b612ef6565b5b0217905550837f7fe0314ddd8432eac273e729cc289f5a8f8a7860761b74472f4782fbaccd2c5f60405160405180910390a2837f29a00cd7b143153a043355a38ed7fa14305cd81468035c2e2e389897f38980d860405160405180910390a250505050565b8160026000828152602001908152602001600020600001600060028110611ddb57611dda613093565b5b0160009054906101000a900473ffffffffffffffffffffffffffffffffffffffff1673ffffffffffffffffffffffffffffffffffffffff163373ffffffffffffffffffffffffffffffffffffffff161480611eab575060026000828152602001908152602001600020600001600160028110611e5a57611e59613093565b5b0160009054906101000a900473ffffffffffffffffffffffffffffffffffffffff1673ffffffffffffffffffffffffffffffffffffffff163373ffffffffffffffffffffffffffffffffffffffff16145b611eea576040517f08c379a0000000000000000000000000000000000000000000000000000000008152600401611ee19061310e565b60405180910390fd5b600060026000858152602001908152602001600020905060006004811115611f1557611f14612ef6565b5b8160090160009054906101000a900460ff166004811115611f3957611f38612ef6565b5b14611f79576040517f08c379a0000000000000000000000000000000000000000000000000000000008152600401611f7090613db4565b60405180910390fd5b8060020160003373ffffffffffffffffffffffffffffffffffffffff1673ffffffffffffffffffffffffffffffffffffffff16815260200190815260200160002060009054906101000a900460ff1615612008576040517f08c379a0000000000000000000000000000000000000000000000000000000008152600401611fff90613500565b60405180910390fd5b6000831161204b576040517f08c379a000000000000000000000000000000000000000000000000000000000815260040161204290613e20565b60405180910390fd5b60008054906101000a900473ffffffffffffffffffffffffffffffffffffffff1673ffffffffffffffffffffffffffffffffffffffff166323b872dd3330866040518463ffffffff1660e01b81526004016120a8939291906135af565b6020604051808303816000875af11580156120c7573d6000803e3d6000fd5b505050506040513d601f19601f820116820180604052508101906120eb9190613612565b61212a576040517f08c379a000000000000000000000000000000000000000000000000000000000815260040161212190613e8c565b60405180910390fd5b60018160020160003373ffffffffffffffffffffffffffffffffffffffff1673ffffffffffffffffffffffffffffffffffffffff16815260200190815260200160002060006101000a81548160ff0219169083151502179055508281600501600082825461219891906136ab565b925050819055503373ffffffffffffffffffffffffffffffffffffffff16847f377ef0adce1eae318afaad309c3b0f6c378fa1a294064deccda8d15ad28858eb856040516121e69190612cae565b60405180910390a3837f29a00cd7b143153a043355a38ed7fa14305cd81468035c2e2e389897f38980d860405160405180910390a28060020160008260000160006002811061223857612237613093565b5b0160009054906101000a900473ffffffffffffffffffffffffffffffffffffffff1673ffffffffffffffffffffffffffffffffffffffff1673ffffffffffffffffffffffffffffffffffffffff16815260200190815260200160002060009054906101000a900460ff1680156123315750806002016000826000016001600281106122c6576122c5613093565b5b0160009054906101000a900473ffffffffffffffffffffffffffffffffffffffff1673ffffffffffffffffffffffffffffffffffffffff1673ffffffffffffffffffffffffffffffffffffffff16815260200190815260200160002060009054906101000a900460ff165b156123645760018160090160006101000a81548160ff0219169083600481111561235e5761235d612ef6565b5b02179055505b50505050565b612372612a14565b60006060806000806000806000806000600260008d81526020019081526020016000209050806000018160060160009054906101000a900473ffffffffffffffffffffffffffffffffffffffff16826007018360080184600501548560090160009054906101000a900460ff16866002016000886000016000600281106123fc576123fb613093565b5b0160009054906101000a900473ffffffffffffffffffffffffffffffffffffffff1673ffffffffffffffffffffffffffffffffffffffff1673ffffffffffffffffffffffffffffffffffffffff16815260200190815260200160002060009054906101000a900460ff168760020160008960000160016002811061248357612482613093565b5b0160009054906101000a900473ffffffffffffffffffffffffffffffffffffffff1673ffffffffffffffffffffffffffffffffffffffff1673ffffffffffffffffffffffffffffffffffffffff16815260200190815260200160002060009054906101000a900460ff168860030160008a60000160006002811061250a57612509613093565b5b0160009054906101000a900473ffffffffffffffffffffffffffffffffffffffff1673ffffffffffffffffffffffffffffffffffffffff1673ffffffffffffffffffffffffffffffffffffffff16815260200190815260200160002060009054906101000a900460ff168960030160008b60000160016002811061259157612590613093565b5b0160009054906101000a900473ffffffffffffffffffffffffffffffffffffffff1673ffffffffffffffffffffffffffffffffffffffff1673ffffffffffffffffffffffffffffffffffffffff16815260200190815260200160002060009054906101000a900460ff1689600280602002604051908101604052809291908260028015612669576020028201915b8160009054906101000a900473ffffffffffffffffffffffffffffffffffffffff1673ffffffffffffffffffffffffffffffffffffffff168152602001906001019080831161261f575b5050505050995087805461267c9061388c565b80601f01602080910402602001604051908101604052809291908181526020018280546126a89061388c565b80156126f55780601f106126ca576101008083540402835291602001916126f5565b820191906000526020600020905b8154815290600101906020018083116126d857829003601f168201915b505050505097508680546127089061388c565b80601f01602080910402602001604051908101604052809291908181526020018280546127349061388c565b80156127815780601f1061275657610100808354040283529160200191612781565b820191906000526020600020905b81548152906001019060200180831161276457829003601f168201915b505050505096509a509a509a509a509a509a509a509a509a509a50509193959799509193959799565b60008373ffffffffffffffffffffffffffffffffffffffff163373ffffffffffffffffffffffffffffffffffffffff160361281a576040517f08c379a000000000000000000000000000000000000000000000000000000000815260040161281190613ef8565b60405180910390fd5b60006001600081548092919061282f90613f18565b9190505590506000600260008381526020019081526020016000209050338160000160006002811061286457612863613093565b5b0160006101000a81548173ffffffffffffffffffffffffffffffffffffffff021916908373ffffffffffffffffffffffffffffffffffffffff16021790555085816000016001600281106128bb576128ba613093565b5b0160006101000a81548173ffffffffffffffffffffffffffffffffffffffff021916908373ffffffffffffffffffffffffffffffffffffffff160217905550848482600701918261290d929190613a5f565b5060008160090160006101000a81548160ff0219169083600481111561293657612935612ef6565b5b021790555060405180604001604052803373ffffffffffffffffffffffffffffffffffffffff1673ffffffffffffffffffffffffffffffffffffffff1681526020018773ffffffffffffffffffffffffffffffffffffffff1673ffffffffffffffffffffffffffffffffffffffff16815250600360008481526020019081526020016000209060026129c9929190612a36565b50817ff5a652e9be4dc80976de59ea0ab8ef105314d3e99785ac7ed699796f04364f1a33888888604051612a009493929190613f60565b60405180910390a281925050509392505050565b6040518060400160405280600290602082028036833780820191505090505090565b828054828255906000526020600020908101928215612aaf579160200282015b82811115612aae5782518260006101000a81548173ffffffffffffffffffffffffffffffffffffffff021916908373ffffffffffffffffffffffffffffffffffffffff16021790555091602001919060010190612a56565b5b509050612abc9190612ac0565b5090565b5b80821115612ad9576000816000905550600101612ac1565b5090565b600073ffffffffffffffffffffffffffffffffffffffff82169050919050565b6000819050919050565b6000612b22612b1d612b1884612add565b612afd565b612add565b9050919050565b6000612b3482612b07565b9050919050565b6000612b4682612b29565b9050919050565b612b5681612b3b565b82525050565b6000602082019050612b716000830184612b4d565b92915050565b600080fd5b600080fd5b6000819050919050565b612b9481612b81565b8114612b9f57600080fd5b50565b600081359050612bb181612b8b565b92915050565b60008060408385031215612bce57612bcd612b77565b5b6000612bdc85828601612ba2565b9250506020612bed85828601612ba2565b9150509250929050565b6000612c0282612add565b9050919050565b612c1281612bf7565b8114612c1d57600080fd5b50565b600081359050612c2f81612c09565b92915050565b60008060408385031215612c4c57612c4b612b77565b5b6000612c5a85828601612ba2565b9250506020612c6b85828601612c20565b9150509250929050565b612c7e81612bf7565b82525050565b6000602082019050612c996000830184612c75565b92915050565b612ca881612b81565b82525050565b6000602082019050612cc36000830184612c9f565b92915050565b600060208284031215612cdf57612cde612b77565b5b6000612ced84828501612ba2565b91505092915050565b600080fd5b600080fd5b600080fd5b60008083601f840112612d1b57612d1a612cf6565b5b8235905067ffffffffffffffff811115612d3857612d37612cfb565b5b602083019150836001820283011115612d5457612d53612d00565b5b9250929050565b600080600060408486031215612d7457612d73612b77565b5b6000612d8286828701612ba2565b935050602084013567ffffffffffffffff811115612da357612da2612b7c565b5b612daf86828701612d05565b92509250509250925092565b600060029050919050565b600081905092915050565b6000819050919050565b612de481612bf7565b82525050565b6000612df68383612ddb565b60208301905092915050565b6000602082019050919050565b612e1881612dbb565b612e228184612dc6565b9250612e2d82612dd1565b8060005b83811015612e5e578151612e458782612dea565b9650612e5083612e02565b925050600181019050612e31565b505050505050565b600081519050919050565b600082825260208201905092915050565b60005b83811015612ea0578082015181840152602081019050612e85565b60008484015250505050565b6000601f19601f8301169050919050565b6000612ec882612e66565b612ed28185612e71565b9350612ee2818560208601612e82565b612eeb81612eac565b840191505092915050565b7f4e487b7100000000000000000000000000000000000000000000000000000000600052602160045260246000fd5b60058110612f3657612f35612ef6565b5b50565b6000819050612f4782612f25565b919050565b6000612f5782612f39565b9050919050565b612f6781612f4c565b82525050565b60008115159050919050565b612f8281612f6d565b82525050565b600061016082019050612f9e600083018d612e0f565b612fab604083018c612c75565b8181036060830152612fbd818b612ebd565b90508181036080830152612fd1818a612ebd565b9050612fe060a0830189612c9f565b612fed60c0830188612f5e565b612ffa60e0830187612f79565b613008610100830186612f79565b613016610120830185612f79565b613024610140830184612f79565b9b9a5050505050505050505050565b60008060006040848603121561304c5761304b612b77565b5b600061305a86828701612c20565b935050602084013567ffffffffffffffff81111561307b5761307a612b7c565b5b61308786828701612d05565b92509250509250925092565b7f4e487b7100000000000000000000000000000000000000000000000000000000600052603260045260246000fd5b7f4e6f742061207061727479000000000000000000000000000000000000000000600082015250565b60006130f8600b83612e71565b9150613103826130c2565b602082019050919050565b60006020820190508181036000830152613127816130eb565b9050919050565b7f416d6f756e74206d75737420626520706f736974697665000000000000000000600082015250565b6000613164601783612e71565b915061316f8261312e565b602082019050919050565b6000602082019050818103600083015261319381613157565b9050919050565b7f43616e6e6f74206164642066756e647300000000000000000000000000000000600082015250565b60006131d0601083612e71565b91506131db8261319a565b602082019050919050565b600060208201905081810360008301526131ff816131c3565b9050919050565b7f50726576696f7573206465706f736974206e6f7420636f6d706c657465640000600082015250565b600061323c601e83612e71565b915061324782613206565b602082019050919050565b6000602082019050818103600083015261326b8161322f565b9050919050565b7f4e6f74206177616974696e67206d65646961746f720000000000000000000000600082015250565b60006132a8601583612e71565b91506132b382613272565b602082019050919050565b600060208201905081810360008301526132d78161329b565b9050919050565b7f4d65646961746f72206d69736d61746368000000000000000000000000000000600082015250565b6000613314601183612e71565b915061331f826132de565b602082019050919050565b6000602082019050818103600083015261334381613307565b9050919050565b7f4d65646961746f722063616e6e6f742062652061207061727479206d656d626560008201527f7200000000000000000000000000000000000000000000000000000000000000602082015250565b60006133a6602183612e71565b91506133b18261334a565b604082019050919050565b600060208201905081810360008301526133d581613399565b9050919050565b7f43616e6e6f74206465706f736974000000000000000000000000000000000000600082015250565b6000613412600e83612e71565b915061341d826133dc565b602082019050919050565b6000602082019050818103600083015261344181613405565b9050919050565b7f4e6f206163746976652072657175657374000000000000000000000000000000600082015250565b600061347e601183612e71565b915061348982613448565b602082019050919050565b600060208201905081810360008301526134ad81613471565b9050919050565b7f416c726561647920706169640000000000000000000000000000000000000000600082015250565b60006134ea600c83612e71565b91506134f5826134b4565b602082019050919050565b60006020820190508181036000830152613519816134dd565b9050919050565b7f4e487b7100000000000000000000000000000000000000000000000000000000600052601260045260246000fd5b7f4e487b7100000000000000000000000000000000000000000000000000000000600052601160045260246000fd5b600061358982612b81565b915061359483612b81565b9250826135a4576135a3613520565b5b828204905092915050565b60006060820190506135c46000830186612c75565b6135d16020830185612c75565b6135de6040830184612c9f565b949350505050565b6135ef81612f6d565b81146135fa57600080fd5b50565b60008151905061360c816135e6565b92915050565b60006020828403121561362857613627612b77565b5b6000613636848285016135fd565b91505092915050565b7f55534443207472616e73666572206661696c6564000000000000000000000000600082015250565b6000613675601483612e71565b91506136808261363f565b602082019050919050565b600060208201905081810360008301526136a481613668565b9050919050565b60006136b682612b81565b91506136c183612b81565b92508282019050808211156136d9576136d861354f565b5b92915050565b7f4f6e6c79206d65646961746f722063616e2063616c6c20746869730000000000600082015250565b6000613715601b83612e71565b9150613720826136df565b602082019050919050565b6000602082019050818103600083015261374481613708565b9050919050565b7f44697370757465206e6f74207265616479000000000000000000000000000000600082015250565b6000613781601183612e71565b915061378c8261374b565b602082019050919050565b600060208201905081810360008301526137b081613774565b9050919050565b7f416c7265616479207265736f6c76656400000000000000000000000000000000600082015250565b60006137ed601083612e71565b91506137f8826137b7565b602082019050919050565b6000602082019050818103600083015261381c816137e0565b9050919050565b600082905092915050565b7f4e487b7100000000000000000000000000000000000000000000000000000000600052604160045260246000fd5b7f4e487b7100000000000000000000000000000000000000000000000000000000600052602260045260246000fd5b600060028204905060018216806138a457607f821691505b6020821081036138b7576138b661385d565b5b50919050565b60008190508160005260206000209050919050565b60006020601f8301049050919050565b600082821b905092915050565b60006008830261391f7fffffffffffffffffffffffffffffffffffffffffffffffffffffffffffffffff826138e2565b61392986836138e2565b95508019841693508086168417925050509392505050565b600061395c61395761395284612b81565b612afd565b612b81565b9050919050565b6000819050919050565b61397683613941565b61398a61398282613963565b8484546138ef565b825550505050565b600090565b61399f613992565b6139aa81848461396d565b505050565b5b818110156139ce576139c3600082613997565b6001810190506139b0565b5050565b601f821115613a13576139e4816138bd565b6139ed846138d2565b810160208510156139fc578190505b613a10613a08856138d2565b8301826139af565b50505b505050565b600082821c905092915050565b6000613a3660001984600802613a18565b1980831691505092915050565b6000613a4f8383613a25565b9150826002028217905092915050565b613a698383613823565b67ffffffffffffffff811115613a8257613a8161382e565b5b613a8c825461388c565b613a978282856139d2565b6000601f831160018114613ac65760008415613ab4578287013590505b613abe8582613a43565b865550613b26565b601f198416613ad4866138bd565b60005b82811015613afc57848901358255600182019150602085019450602081019050613ad7565b86831015613b195784890135613b15601f891682613a25565b8355505b6001600288020188555050505b50505050505050565b6000604082019050613b446000830185612c75565b613b516020830184612c9f565b9392505050565b7f55534443207061796f7574206661696c65640000000000000000000000000000600082015250565b6000613b8e601283612e71565b9150613b9982613b58565b602082019050919050565b60006020820190508181036000830152613bbd81613b81565b9050919050565b82818337600083830152505050565b6000613bdf8385612e71565b9350613bec838584613bc4565b613bf583612eac565b840190509392505050565b60006020820190508181036000830152613c1b818486613bd3565b90509392505050565b7f43616e6e6f742063616e63656c206e6f77000000000000000000000000000000600082015250565b6000613c5a601183612e71565b9150613c6582613c24565b602082019050919050565b60006020820190508181036000830152613c8981613c4d565b9050919050565b7f4f7468657220706172747920616c726561647920706169640000000000000000600082015250565b6000613cc6601883612e71565b9150613cd182613c90565b602082019050919050565b60006020820190508181036000830152613cf581613cb9565b9050919050565b7f5553444320726566756e64206661696c65640000000000000000000000000000600082015250565b6000613d32601283612e71565b9150613d3d82613cfc565b602082019050919050565b60006020820190508181036000830152613d6181613d25565b9050919050565b7f46756e64696e6720636c6f736564000000000000000000000000000000000000600082015250565b6000613d9e600e83612e71565b9150613da982613d68565b602082019050919050565b60006020820190508181036000830152613dcd81613d91565b9050919050565b7f4d757374206465706f736974206e6f6e2d7a65726f20616d6f756e7400000000600082015250565b6000613e0a601c83612e71565b9150613e1582613dd4565b602082019050919050565b60006020820190508181036000830152613e3981613dfd565b9050919050565b7f5472616e73666572206661696c65640000000000000000000000000000000000600082015250565b6000613e76600f83612e71565b9150613e8182613e40565b602082019050919050565b60006020820190508181036000830152613ea581613e69565b9050919050565b7f43616e6e6f742064697370757465207769746820796f757273656c6600000000600082015250565b6000613ee2601c83612e71565b9150613eed82613eac565b602082019050919050565b60006020820190508181036000830152613f1181613ed5565b9050919050565b6000613f2382612b81565b91507fffffffffffffffffffffffffffffffffffffffffffffffffffffffffffffffff8203613f5557613f5461354f565b5b600182019050919050565b6000606082019050613f756000830187612c75565b613f826020830186612c75565b8181036040830152613f95818486613bd3565b90509594505050505056fea2646970667358221220224840986448576f4144f59f2692189ba3602c671d3980eb43de37163cbcca0e64736f6c63430008140033",
  "linkReferences": {},
  "deployedLinkReferences": {}
}