{
  "_format": "hh-sol-artifact-1",
  "contractName": "DisputeResolutionV2",
  "sourceName": "contracts/DisputeResolution.sol",
  "abi": [
    {
      "inputs": [
        {
          "internalType": "address",
          "name": "_usdcToken",
          "type": "address"
        }
      ],
      "stateMutability": "nonpayable",
      "type": "constructor"
    },
    {
      "anonymous": false,
      "inputs": [
        {
          "indexed": true,
          "internalType": "uint256",
          "name": "id",
          "type": "uint256"
        },
        {
          "indexed": true,
          "internalType": "address",
          "name": "from",
          "type": "address"
        },
        {
          "indexed": false,
          "internalType": "uint256",
          "name": "amount",
          "type": "uint256"
        }
      ],
      "name": "DepositMade",
      "type": "event"
    },
    {
      "anonymous": false,
      "inputs": [
        {
          "indexed": true,
          "internalType": "uint256",
          "name": "id",
          "type": "uint256"
        }
      ],
      "name": "DisputeCancelled",
      "type": "event"
    },
    {
      "anonymous": false,
      "inputs": [
        {
          "indexed": true,
          "internalType": "uint256",
          "name": "id",
          "type": "uint256"
        },
        {
          "indexed": false,
          "internalType": "address",
          "name": "party1",
          "type": "address"
        },
        {
          "indexed": false,
          "internalType": "address",
          "name": "party2",
          "type": "address"
        },
        {
          "indexed": false,
          "internalType": "string",
          "name": "ipfsHash",
          "type": "string"
        }
      ],
      "name": "DisputeCreated",
      "type": "event"
    },
    {
      "anonymous": false,
      "inputs": [
        {
          "indexed": true,
          "internalType": "uint256",
          "name": "id",
          "type": "uint256"
        },
        {
          "indexed": false,
          "internalType": "string",
          "name": "resolutionIPFS",
          "type": "string"
        }
      ],
      "name": "DisputeResolved",
      "type": "event"
    },
    {
      "anonymous": false,
      "inputs": [
        {
          "indexed": true,
          "internalType": "uint256",
          "name": "id",
          "type": "uint256"
        }
      ],
      "name": "DisputeUpdated",
      "type": "event"
    },
    {
      "anonymous": false,
      "inputs": [
        {
          "indexed": true,
          "internalType": "uint256",
          "name": "id",
          "type": "uint256"
        },
        {
          "indexed": true,
          "internalType": "address",
          "name": "party",
          "type": "address"
        }
      ],
      "name": "MediatorConfirmed",
      "type": "event"
    },
    {
      "anonymous": false,
      "inputs": [
        {
          "indexed": true,
          "internalType": "uint256",
          "name": "id",
          "type": "uint256"
        },
        {
          "indexed": false,
          "internalType": "address",
          "name": "mediator",
          "type": "address"
        }
      ],
      "name": "MediatorSet",
      "type": "event"
    },
    {
      "inputs": [
        {
          "internalType": "uint256",
          "name": "id",
          "type": "uint256"
        }
      ],
      "name": "cancelDispute",
      "outputs": [],
      "stateMutability": "nonpayable",
      "type": "function"
    },
    {
      "inputs": [
        {
          "internalType": "uint256",
          "name": "id",
          "type": "uint256"
        },
        {
          "internalType": "address",
          "name": "_mediator",
          "type": "address"
        }
      ],
      "name": "confirmMediator",
      "outputs": [],
      "stateMutability": "nonpayable",
      "type": "function"
    },
    {
      "inputs": [
        {
          "internalType": "uint256",
          "name": "id",
          "type": "uint256"
        }
      ],
      "name": "contributeAdditionalDeposit",
      "outputs": [],
      "stateMutability": "nonpayable",
      "type": "function"
    },
    {
      "inputs": [
        {
          "internalType": "address",
          "name": "_otherParty",
          "type": "address"
        },
        {
          "internalType": "string",
          "name": "_problemIPFS",
          "type": "string"
        }
      ],
      "name": "createDispute",
      "outputs": [
        {
          "internalType": "uint256",
          "name": "",
          "type": "uint256"
        }
      ],
      "stateMutability": "nonpayable",
      "type": "function"
    },
    {
      "inputs": [
        {
          "internalType": "uint256",
          "name": "id",
          "type": "uint256"
        },
        {
          "internalType": "uint256",
          "name": "amount",
          "type": "uint256"
        }
      ],
      "name": "deposit",
      "outputs": [],
      "stateMutability": "nonpayable",
      "type": "function"
    },
    {
      "inputs": [],
      "name": "disputeCount",
      "outputs": [
        {
          "internalType": "uint256",
          "name": "",
          "type": "uint256"
        }
      ],
      "stateMutability": "view",
      "type": "function"
    },
    {
      "inputs": [
        {
          "internalType": "uint256",
          "name": "",
          "type": "uint256"
        },
        {
          "internalType": "uint256",
          "name": "",
          "type": "uint256"
        }
      ],
      "name": "disputePartiesView",
      "outputs": [
        {
          "internalType": "address",
          "name": "",
          "type": "address"
        }
      ],
      "stateMutability": "view",
      "type": "function"
    },
    {
      "inputs": [
        {
          "internalType": "uint256",
          "name": "id",
          "type": "uint256"
        }
      ],
      "name": "getDispute",
      "outputs": [
        {
          "internalType": "address[2]",
          "name": "parties",
          "type": "address[2]"
        },
        {
          "internalType": "address",
          "name": "mediator",
          "type": "address"
        },
        {
          "internalType": "string",
          "name": "problemIPFS",
          "type": "string"
        },
        {
          "internalType": "string",
          "name": "resolutionIPFS",
          "type": "string"
        },
        {
          "internalType": "uint256",
          "name": "totalLockedAmount",
          "type": "uint256"
        },
        {
          "internalType": "enum DisputeResolutionV2.DisputeStatus",
          "name": "status",
          "type": "uint8"
        },
        {
          "internalType": "bool",
          "name": "paid1",
          "type": "bool"
        },
        {
          "internalType": "bool",
          "name": "paid2",
          "type": "bool"
        },
        {
          "internalType": "bool",
          "name": "confirmed1",
          "type": "bool"
        },
        {
          "internalType": "bool",
          "name": "confirmed2",
          "type": "bool"
        }
      ],
      "stateMutability": "view",
      "type": "function"
    },
    {
      "inputs": [
        {
          "internalType": "uint256",
          "name": "id",
          "type": "uint256"
        },
        {
          "internalType": "uint256",
          "name": "amount",
          "type": "uint256"
        }
      ],
      "name": "requestAdditionalDeposit",
      "outputs": [],
      "stateMutability": "nonpayable",
      "type": "function"
    },
    {
      "inputs": [
        {
          "internalType": "uint256",
          "name": "id",
          "type": "uint256"
        },
        {
          "internalType": "string",
          "name": "_resolutionIPFS",
          "type": "string"
        }
      ],
      "name": "resolveDispute",
      "outputs": [],
      "stateMutability": "nonpayable",
      "type": "function"
    },
    {
      "inputs": [],
      "name": "usdcToken",
      "outputs": [
        {
          "internalType": "contract IERC20",
          "name": "",
          "type": "address"
        }
      ],
      "stateMutability": "view",
      "type": "function"
    }
  ],
  "bytecode": "0x60806040523480156200001157600080fd5b506040516200412d3803806200412d8339818101604052810190620000379190620000e8565b806000806101000a81548173ffffffffffffffffffffffffffffffffffffffff021916908373ffffffffffffffffffffffffffffffffffffffff160217905550506200011a565b600080fd5b600073ffffffffffffffffffffffffffffffffffffffff82169050919050565b6000620000b08262000083565b9050919050565b620000c281620000a3565b8114620000ce57600080fd5b50565b600081519050620000e281620000b7565b92915050565b6000602082840312156200010157620001006200007e565b5b60006200011184828501620000d1565b91505092915050565b614003806200012a6000396000f3fe608060405234801561001057600080fd5b50600436106100a95760003560e01c8063ad17564711610071578063ad17564714610152578063cf51b45d1461016e578063df02935c1461018a578063e2bbb158146101a6578063e3a96cbd146101c2578063ead3489a146101fb576100a9565b806311eac855146100ae578063596e8fe3146100cc578063602ee025146100e857806370fd07cc14610104578063a28889e114610134575b600080fd5b6100b661022b565b6040516100c39190612b89565b60405180910390f35b6100e660048036038101906100e19190612be4565b61024f565b005b61010260048036038101906100fd9190612c62565b61065e565b005b61011e60048036038101906101199190612be4565b610cec565b60405161012b9190612cb1565b60405180910390f35b61013c610d3a565b6040516101499190612cdb565b60405180910390f35b61016c60048036038101906101679190612cf6565b610d40565b005b61018860048036038101906101839190612d88565b6114a6565b005b6101a4600480360381019061019f9190612cf6565b611806565b005b6101c060048036038101906101bb9190612be4565b611db1565b005b6101dc60048036038101906101d79190612cf6565b61236a565b6040516101f29a99989796959493929190612fb5565b60405180910390f35b61021560048036038101906102109190613060565b6127aa565b6040516102229190612cdb565b60405180910390f35b60008054906101000a900473ffffffffffffffffffffffffffffffffffffffff1681565b8160026000828152602001908152602001600020600001600060028110610279576102786130c0565b5b0160009054906101000a900473ffffffffffffffffffffffffffffffffffffffff1673ffffffffffffffffffffffffffffffffffffffff163373ffffffffffffffffffffffffffffffffffffffff1614806103495750600260008281526020019081526020016000206000016001600281106102f8576102f76130c0565b5b0160009054906101000a900473ffffffffffffffffffffffffffffffffffffffff1673ffffffffffffffffffffffffffffffffffffffff163373ffffffffffffffffffffffffffffffffffffffff16145b610388576040517f08c379a000000000000000000000000000000000000000000000000000000000815260040161037f9061313b565b60405180910390fd5b600082116103cb576040517f08c379a00000000000000000000000000000000000000000000000000000000081526004016103c2906131a7565b60405180910390fd5b6000600260008581526020019081526020016000209050600360048111156103f6576103f5612f23565b5b8160090160009054906101000a900460ff16600481111561041a57610419612f23565b5b1415801561045d575060048081111561043657610435612f23565b5b8160090160009054906101000a900460ff16600481111561045a57610459612f23565b5b14155b61049c576040517f08c379a000000000000000000000000000000000000000000000000000000000815260040161049390613213565b60405180910390fd5b600060026000868152602001908152602001600020600401600080815260200190815260200160002090506000816000015414806104e1575080600001548160020154145b610520576040517f08c379a00000000000000000000000000000000000000000000000000000000081526004016105179061327f565b60405180910390fd5b838160000181905550600081600101600084600001600060028110610548576105476130c0565b5b0160009054906101000a900473ffffffffffffffffffffffffffffffffffffffff1673ffffffffffffffffffffffffffffffffffffffff1673ffffffffffffffffffffffffffffffffffffffff16815260200190815260200160002060006101000a81548160ff0219169083151502179055506000816001016000846000016001600281106105da576105d96130c0565b5b0160009054906101000a900473ffffffffffffffffffffffffffffffffffffffff1673ffffffffffffffffffffffffffffffffffffffff1673ffffffffffffffffffffffffffffffffffffffff16815260200190815260200160002060006101000a81548160ff021916908315150217905550600081600201819055505050505050565b8160026000828152602001908152602001600020600001600060028110610688576106876130c0565b5b0160009054906101000a900473ffffffffffffffffffffffffffffffffffffffff1673ffffffffffffffffffffffffffffffffffffffff163373ffffffffffffffffffffffffffffffffffffffff161480610758575060026000828152602001908152602001600020600001600160028110610707576107066130c0565b5b0160009054906101000a900473ffffffffffffffffffffffffffffffffffffffff1673ffffffffffffffffffffffffffffffffffffffff163373ffffffffffffffffffffffffffffffffffffffff16145b610797576040517f08c379a000000000000000000000000000000000000000000000000000000000815260040161078e9061313b565b60405180910390fd5b6000600260008581526020019081526020016000209050600160048111156107c2576107c1612f23565b5b8160090160009054906101000a900460ff1660048111156107e6576107e5612f23565b5b14610826576040517f08c379a000000000000000000000000000000000000000000000000000000000815260040161081d906132eb565b60405180910390fd5b600073ffffffffffffffffffffffffffffffffffffffff168160060160009054906101000a900473ffffffffffffffffffffffffffffffffffffffff1673ffffffffffffffffffffffffffffffffffffffff1614806108d457508273ffffffffffffffffffffffffffffffffffffffff168160060160009054906101000a900473ffffffffffffffffffffffffffffffffffffffff1673ffffffffffffffffffffffffffffffffffffffff16145b610913576040517f08c379a000000000000000000000000000000000000000000000000000000000815260040161090a90613357565b60405180910390fd5b8060000160006002811061092a576109296130c0565b5b0160009054906101000a900473ffffffffffffffffffffffffffffffffffffffff1673ffffffffffffffffffffffffffffffffffffffff168373ffffffffffffffffffffffffffffffffffffffff16141580156109eb575080600001600160028110610999576109986130c0565b5b0160009054906101000a900473ffffffffffffffffffffffffffffffffffffffff1673ffffffffffffffffffffffffffffffffffffffff168373ffffffffffffffffffffffffffffffffffffffff1614155b610a2a576040517f08c379a0000000000000000000000000000000000000000000000000000000008152600401610a21906133e9565b60405180910390fd5b828160060160006101000a81548173ffffffffffffffffffffffffffffffffffffffff021916908373ffffffffffffffffffffffffffffffffffffffff16021790555060018160030160003373ffffffffffffffffffffffffffffffffffffffff1673ffffffffffffffffffffffffffffffffffffffff16815260200190815260200160002060006101000a81548160ff0219169083151502179055503373ffffffffffffffffffffffffffffffffffffffff16847fb9860328d5325ca7d8f3f5fc1040667291a244d3862e6b2810e6f59685a9568f60405160405180910390a3837f29a00cd7b143153a043355a38ed7fa14305cd81468035c2e2e389897f38980d860405160405180910390a280600301600082600001600060028110610b5557610b546130c0565b5b0160009054906101000a900473ffffffffffffffffffffffffffffffffffffffff1673ffffffffffffffffffffffffffffffffffffffff1673ffffffffffffffffffffffffffffffffffffffff16815260200190815260200160002060009054906101000a900460ff168015610c4e575080600301600082600001600160028110610be357610be26130c0565b5b0160009054906101000a900473ffffffffffffffffffffffffffffffffffffffff1673ffffffffffffffffffffffffffffffffffffffff1673ffffffffffffffffffffffffffffffffffffffff16815260200190815260200160002060009054906101000a900460ff165b15610ce65760028160090160006101000a81548160ff02191690836004811115610c7b57610c7a612f23565b5b0217905550837fbdec1f29ca9b6d70a64bdf26a79d961feb840a8d6fae08f502d436fd481c9efe84604051610cb09190612cb1565b60405180910390a2837f29a00cd7b143153a043355a38ed7fa14305cd81468035c2e2e389897f38980d860405160405180910390a25b50505050565b60036020528160005260406000208181548110610d0857600080fd5b906000526020600020016000915091509054906101000a900473ffffffffffffffffffffffffffffffffffffffff1681565b60015481565b8060026000828152602001908152602001600020600001600060028110610d6a57610d696130c0565b5b0160009054906101000a900473ffffffffffffffffffffffffffffffffffffffff1673ffffffffffffffffffffffffffffffffffffffff163373ffffffffffffffffffffffffffffffffffffffff161480610e3a575060026000828152602001908152602001600020600001600160028110610de957610de86130c0565b5b0160009054906101000a900473ffffffffffffffffffffffffffffffffffffffff1673ffffffffffffffffffffffffffffffffffffffff163373ffffffffffffffffffffffffffffffffffffffff16145b610e79576040517f08c379a0000000000000000000000000000000000000000000000000000000008152600401610e709061313b565b60405180910390fd5b600060026000848152602001908152602001600020905060036004811115610ea457610ea3612f23565b5b8160090160009054906101000a900460ff166004811115610ec857610ec7612f23565b5b14158015610f0b5750600480811115610ee457610ee3612f23565b5b8160090160009054906101000a900460ff166004811115610f0857610f07612f23565b5b14155b610f4a576040517f08c379a0000000000000000000000000000000000000000000000000000000008152600401610f4190613455565b60405180910390fd5b600060026000858152602001908152602001600020600401600080815260200190815260200160002090506000816000015411610fbc576040517f08c379a0000000000000000000000000000000000000000000000000000000008152600401610fb3906134c1565b60405180910390fd5b8060010160003373ffffffffffffffffffffffffffffffffffffffff1673ffffffffffffffffffffffffffffffffffffffff16815260200190815260200160002060009054906101000a900460ff161561104b576040517f08c379a00000000000000000000000000000000000000000000000000000000081526004016110429061352d565b60405180910390fd5b60006002826000015461105e91906135ab565b905060008054906101000a900473ffffffffffffffffffffffffffffffffffffffff1673ffffffffffffffffffffffffffffffffffffffff166323b872dd3330846040518463ffffffff1660e01b81526004016110bd939291906135dc565b6020604051808303816000875af11580156110dc573d6000803e3d6000fd5b505050506040513d601f19601f82011682018060405250810190611100919061363f565b61113f576040517f08c379a0000000000000000000000000000000000000000000000000000000008152600401611136906136b8565b60405180910390fd5b60018260010160003373ffffffffffffffffffffffffffffffffffffffff1673ffffffffffffffffffffffffffffffffffffffff16815260200190815260200160002060006101000a81548160ff021916908315150217905550808260020160008282546111ad91906136d8565b92505081905550808360050160008282546111c891906136d8565b925050819055503373ffffffffffffffffffffffffffffffffffffffff16857f377ef0adce1eae318afaad309c3b0f6c378fa1a294064deccda8d15ad28858eb836040516112169190612cdb565b60405180910390a3847f29a00cd7b143153a043355a38ed7fa14305cd81468035c2e2e389897f38980d860405160405180910390a281600101600084600001600060028110611268576112676130c0565b5b0160009054906101000a900473ffffffffffffffffffffffffffffffffffffffff1673ffffffffffffffffffffffffffffffffffffffff1673ffffffffffffffffffffffffffffffffffffffff16815260200190815260200160002060009054906101000a900460ff1680156113615750816001016000846000016001600281106112f6576112f56130c0565b5b0160009054906101000a900473ffffffffffffffffffffffffffffffffffffffff1673ffffffffffffffffffffffffffffffffffffffff1673ffffffffffffffffffffffffffffffffffffffff16815260200190815260200160002060009054906101000a900460ff165b1561149f576000826000018190555060008260020181905550600082600101600085600001600060028110611399576113986130c0565b5b0160009054906101000a900473ffffffffffffffffffffffffffffffffffffffff1673ffffffffffffffffffffffffffffffffffffffff1673ffffffffffffffffffffffffffffffffffffffff16815260200190815260200160002060006101000a81548160ff02191690831515021790555060008260010160008560000160016002811061142b5761142a6130c0565b5b0160009054906101000a900473ffffffffffffffffffffffffffffffffffffffff1673ffffffffffffffffffffffffffffffffffffffff1673ffffffffffffffffffffffffffffffffffffffff16815260200190815260200160002060006101000a81548160ff0219169083151502179055505b5050505050565b826002600082815260200190815260200160002060060160009054906101000a900473ffffffffffffffffffffffffffffffffffffffff1673ffffffffffffffffffffffffffffffffffffffff163373ffffffffffffffffffffffffffffffffffffffff161461154b576040517f08c379a000000000000000000000000000000000000000000000000000000000815260040161154290613758565b60405180910390fd5b60006002600086815260200190815260200160002090506002600481111561157657611575612f23565b5b8160090160009054906101000a900460ff16600481111561159a57611599612f23565b5b146115da576040517f08c379a00000000000000000000000000000000000000000000000000000000081526004016115d1906137c4565b60405180910390fd5b600360048111156115ee576115ed612f23565b5b8160090160009054906101000a900460ff16600481111561161257611611612f23565b5b03611652576040517f08c379a000000000000000000000000000000000000000000000000000000000815260040161164990613830565b60405180910390fd5b8383826008019182611665929190613a8c565b5060038160090160006101000a81548160ff0219169083600481111561168e5761168d612f23565b5b021790555060008054906101000a900473ffffffffffffffffffffffffffffffffffffffff1673ffffffffffffffffffffffffffffffffffffffff1663a9059cbb8260060160009054906101000a900473ffffffffffffffffffffffffffffffffffffffff1683600501546040518363ffffffff1660e01b8152600401611716929190613b5c565b6020604051808303816000875af1158015611735573d6000803e3d6000fd5b505050506040513d601f19601f82011682018060405250810190611759919061363f565b611798576040517f08c379a000000000000000000000000000000000000000000000000000000000815260040161178f90613bd1565b60405180910390fd5b847f831764ac02a33c193cba23a0de34c986e9b50402bf3c9febf6ff2f63d4c0435d85856040516117ca929190613c2d565b60405180910390a2847f29a00cd7b143153a043355a38ed7fa14305cd81468035c2e2e389897f38980d860405160405180910390a25050505050565b80600260008281526020019081526020016000206000016000600281106118305761182f6130c0565b5b0160009054906101000a900473ffffffffffffffffffffffffffffffffffffffff1673ffffffffffffffffffffffffffffffffffffffff163373ffffffffffffffffffffffffffffffffffffffff1614806119005750600260008281526020019081526020016000206000016001600281106118af576118ae6130c0565b5b0160009054906101000a900473ffffffffffffffffffffffffffffffffffffffff1673ffffffffffffffffffffffffffffffffffffffff163373ffffffffffffffffffffffffffffffffffffffff16145b61193f576040517f08c379a00000000000000000000000000000000000000000000000000000000081526004016119369061313b565b60405180910390fd5b60006002600084815260200190815260200160002090506000600481111561196a57611969612f23565b5b8160090160009054906101000a900460ff16600481111561198e5761198d612f23565b5b14806119cf5750600160048111156119a9576119a8612f23565b5b8160090160009054906101000a900460ff1660048111156119cd576119cc612f23565b5b145b611a0e576040517f08c379a0000000000000000000000000000000000000000000000000000000008152600401611a0590613c9d565b60405180910390fd5b600081600001600060028110611a2757611a266130c0565b5b0160009054906101000a900473ffffffffffffffffffffffffffffffffffffffff1673ffffffffffffffffffffffffffffffffffffffff163373ffffffffffffffffffffffffffffffffffffffff1614611ab95781600001600060028110611a9257611a916130c0565b5b0160009054906101000a900473ffffffffffffffffffffffffffffffffffffffff16611af3565b81600001600160028110611ad057611acf6130c0565b5b0160009054906101000a900473ffffffffffffffffffffffffffffffffffffffff165b90508160020160008273ffffffffffffffffffffffffffffffffffffffff1673ffffffffffffffffffffffffffffffffffffffff16815260200190815260200160002060009054906101000a900460ff1615611b84576040517f08c379a0000000000000000000000000000000000000000000000000000000008152600401611b7b90613d09565b60405180910390fd5b8160020160003373ffffffffffffffffffffffffffffffffffffffff1673ffffffffffffffffffffffffffffffffffffffff16815260200190815260200160002060009054906101000a900460ff1615611d245760008260020160003373ffffffffffffffffffffffffffffffffffffffff1673ffffffffffffffffffffffffffffffffffffffff16815260200190815260200160002060006101000a81548160ff0219169083151502179055506000826005015490506000836005018190555060008054906101000a900473ffffffffffffffffffffffffffffffffffffffff1673ffffffffffffffffffffffffffffffffffffffff1663a9059cbb33836040518363ffffffff1660e01b8152600401611ca0929190613b5c565b6020604051808303816000875af1158015611cbf573d6000803e3d6000fd5b505050506040513d601f19601f82011682018060405250810190611ce3919061363f565b611d22576040517f08c379a0000000000000000000000000000000000000000000000000000000008152600401611d1990613d75565b60405180910390fd5b505b60048260090160006101000a81548160ff02191690836004811115611d4c57611d4b612f23565b5b0217905550837f7fe0314ddd8432eac273e729cc289f5a8f8a7860761b74472f4782fbaccd2c5f60405160405180910390a2837f29a00cd7b143153a043355a38ed7fa14305cd81468035c2e2e389897f38980d860405160405180910390a250505050565b8160026000828152602001908152602001600020600001600060028110611ddb57611dda6130c0565b5b0160009054906101000a900473ffffffffffffffffffffffffffffffffffffffff1673ffffffffffffffffffffffffffffffffffffffff163373ffffffffffffffffffffffffffffffffffffffff161480611eab575060026000828152602001908152602001600020600001600160028110611e5a57611e596130c0565b5b0160009054906101000a900473ffffffffffffffffffffffffffffffffffffffff1673ffffffffffffffffffffffffffffffffffffffff163373ffffffffffffffffffffffffffffffffffffffff16145b611eea576040517f08c379a0000000000000000000000000000000000000000000000000000000008152600401611ee19061313b565b60405180910390fd5b600060026000858152602001908152602001600020905060006004811115611f1557611f14612f23565b5b8160090160009054906101000a900460ff166004811115611f3957611f38612f23565b5b14611f79576040517f08c379a0000000000000000000000000000000000000000000000000000000008152600401611f7090613de1565b60405180910390fd5b8060020160003373ffffffffffffffffffffffffffffffffffffffff1673ffffffffffffffffffffffffffffffffffffffff16815260200190815260200160002060009054906101000a900460ff1615612008576040517f08c379a0000000000000000000000000000000000000000000000000000000008152600401611fff9061352d565b60405180910390fd5b6000831161204b576040517f08c379a000000000000000000000000000000000000000000000000000000000815260040161204290613e4d565b60405180910390fd5b60008054906101000a900473ffffffffffffffffffffffffffffffffffffffff1673ffffffffffffffffffffffffffffffffffffffff166323b872dd3330866040518463ffffffff1660e01b81526004016120a8939291906135dc565b6020604051808303816000875af11580156120c7573d6000803e3d6000fd5b505050506040513d601f19601f820116820180604052508101906120eb919061363f565b61212a576040517f08c379a000000000000000000000000000000000000000000000000000000000815260040161212190613eb9565b60405180910390fd5b60018160020160003373ffffffffffffffffffffffffffffffffffffffff1673ffffffffffffffffffffffffffffffffffffffff16815260200190815260200160002060006101000a81548160ff0219169083151502179055508281600501600082825461219891906136d8565b925050819055503373ffffffffffffffffffffffffffffffffffffffff16847f377ef0adce1eae318afaad309c3b0f6c378fa1a294064deccda8d15ad28858eb856040516121e69190612cdb565b60405180910390a3837f29a00cd7b143153a043355a38ed7fa14305cd81468035c2e2e389897f38980d860405160405180910390a280600201600082600001600060028110612238576122376130c0565b5b0160009054906101000a900473ffffffffffffffffffffffffffffffffffffffff1673ffffffffffffffffffffffffffffffffffffffff1673ffffffffffffffffffffffffffffffffffffffff16815260200190815260200160002060009054906101000a900460ff1680156123315750806002016000826000016001600281106122c6576122c56130c0565b5b0160009054906101000a900473ffffffffffffffffffffffffffffffffffffffff1673ffffffffffffffffffffffffffffffffffffffff1673ffffffffffffffffffffffffffffffffffffffff16815260200190815260200160002060009054906101000a900460ff165b156123645760018160090160006101000a81548160ff0219169083600481111561235e5761235d612f23565b5b02179055505b50505050565b612372612a41565b60006060806000806000806000806000600260008d81526020019081526020016000209050806000018160060160009054906101000a900473ffffffffffffffffffffffffffffffffffffffff16826007018360080184600501548560090160009054906101000a900460ff16866002016000886000016000600281106123fc576123fb6130c0565b5b0160009054906101000a900473ffffffffffffffffffffffffffffffffffffffff1673ffffffffffffffffffffffffffffffffffffffff1673ffffffffffffffffffffffffffffffffffffffff16815260200190815260200160002060009054906101000a900460ff1687600201600089600001600160028110612483576124826130c0565b5b0160009054906101000a900473ffffffffffffffffffffffffffffffffffffffff1673ffffffffffffffffffffffffffffffffffffffff1673ffffffffffffffffffffffffffffffffffffffff16815260200190815260200160002060009054906101000a900460ff168860030160008a60000160006002811061250a576125096130c0565b5b0160009054906101000a900473ffffffffffffffffffffffffffffffffffffffff1673ffffffffffffffffffffffffffffffffffffffff1673ffffffffffffffffffffffffffffffffffffffff16815260200190815260200160002060009054906101000a900460ff168960030160008b600001600160028110612591576125906130c0565b5b0160009054906101000a900473ffffffffffffffffffffffffffffffffffffffff1673ffffffffffffffffffffffffffffffffffffffff1673ffffffffffffffffffffffffffffffffffffffff16815260200190815260200160002060009054906101000a900460ff1689600280602002604051908101604052809291908260028015612669576020028201915b8160009054906101000a900473ffffffffffffffffffffffffffffffffffffffff1673ffffffffffffffffffffffffffffffffffffffff168152602001906001019080831161261f575b5050505050995087805461267c906138b9565b80601f01602080910402602001604051908101604052809291908181526020018280546126a8906138b9565b80156126f55780601f106126ca576101008083540402835291602001916126f5565b820191906000526020600020905b8154815290600101906020018083116126d857829003601f168201915b50505050509750868054612708906138b9565b80601f0160208091040260200160405190810160405280929190818152602001828054612734906138b9565b80156127815780601f1061275657610100808354040283529160200191612781565b820191906000526020600020905b81548152906001019060200180831161276457829003601f168201915b505050505096509a509a509a509a509a509a509a509a509a509a50509193959799509193959799565b60008373ffffffffffffffffffffffffffffffffffffffff163373ffffffffffffffffffffffffffffffffffffffff160361281a576040517f08c379a000000000000000000000000000000000000000000000000000000000815260040161281190613f25565b60405180910390fd5b60006001600081548092919061282f90613f45565b91905055905060006002600083815260200190815260200160002090503381600001600060028110612864576128636130c0565b5b0160006101000a81548173ffffffffffffffffffffffffffffffffffffffff021916908373ffffffffffffffffffffffffffffffffffffffff16021790555085816000016001600281106128bb576128ba6130c0565b5b0160006101000a81548173ffffffffffffffffffffffffffffffffffffffff021916908373ffffffffffffffffffffffffffffffffffffffff160217905550848482600701918261290d929190613a8c565b5060008160090160006101000a81548160ff0219169083600481111561293657612935612f23565b5b021790555060405180604001604052803373ffffffffffffffffffffffffffffffffffffffff1673ffffffffffffffffffffffffffffffffffffffff1681526020018773ffffffffffffffffffffffffffffffffffffffff1673ffffffffffffffffffffffffffffffffffffffff16815250600360008481526020019081526020016000209060026129c9929190612a63565b50817ff5a652e9be4dc80976de59ea0ab8ef105314d3e99785ac7ed699796f04364f1a33888888604051612a009493929190613f8d565b60405180910390a2817f29a00cd7b143153a043355a38ed7fa14305cd81468035c2e2e389897f38980d860405160405180910390a281925050509392505050565b6040518060400160405280600290602082028036833780820191505090505090565b828054828255906000526020600020908101928215612adc579160200282015b82811115612adb5782518260006101000a81548173ffffffffffffffffffffffffffffffffffffffff021916908373ffffffffffffffffffffffffffffffffffffffff16021790555091602001919060010190612a83565b5b509050612ae99190612aed565b5090565b5b80821115612b06576000816000905550600101612aee565b5090565b600073ffffffffffffffffffffffffffffffffffffffff82169050919050565b6000819050919050565b6000612b4f612b4a612b4584612b0a565b612b2a565b612b0a565b9050919050565b6000612b6182612b34565b9050919050565b6000612b7382612b56565b9050919050565b612b8381612b68565b82525050565b6000602082019050612b9e6000830184612b7a565b92915050565b600080fd5b600080fd5b6000819050919050565b612bc181612bae565b8114612bcc57600080fd5b50565b600081359050612bde81612bb8565b92915050565b60008060408385031215612bfb57612bfa612ba4565b5b6000612c0985828601612bcf565b9250506020612c1a85828601612bcf565b9150509250929050565b6000612c2f82612b0a565b9050919050565b612c3f81612c24565b8114612c4a57600080fd5b50565b600081359050612c5c81612c36565b92915050565b60008060408385031215612c7957612c78612ba4565b5b6000612c8785828601612bcf565b9250506020612c9885828601612c4d565b9150509250929050565b612cab81612c24565b82525050565b6000602082019050612cc66000830184612ca2565b92915050565b612cd581612bae565b82525050565b6000602082019050612cf06000830184612ccc565b92915050565b600060208284031215612d0c57612d0b612ba4565b5b6000612d1a84828501612bcf565b91505092915050565b600080fd5b600080fd5b600080fd5b60008083601f840112612d4857612d47612d23565b5b8235905067ffffffffffffffff811115612d6557612d64612d28565b5b602083019150836001820283011115612d8157612d80612d2d565b5b9250929050565b600080600060408486031215612da157612da0612ba4565b5b6000612daf86828701612bcf565b935050602084013567ffffffffffffffff811115612dd057612dcf612ba9565b5b612ddc86828701612d32565b92509250509250925092565b600060029050919050565b600081905092915050565b6000819050919050565b612e1181612c24565b82525050565b6000612e238383612e08565b60208301905092915050565b6000602082019050919050565b612e4581612de8565b612e4f8184612df3565b9250612e5a82612dfe565b8060005b83811015612e8b578151612e728782612e17565b9650612e7d83612e2f565b925050600181019050612e5e565b505050505050565b600081519050919050565b600082825260208201905092915050565b60005b83811015612ecd578082015181840152602081019050612eb2565b60008484015250505050565b6000601f19601f8301169050919050565b6000612ef582612e93565b612eff8185612e9e565b9350612f0f818560208601612eaf565b612f1881612ed9565b840191505092915050565b7f4e487b7100000000000000000000000000000000000000000000000000000000600052602160045260246000fd5b60058110612f6357612f62612f23565b5b50565b6000819050612f7482612f52565b919050565b6000612f8482612f66565b9050919050565b612f9481612f79565b82525050565b60008115159050919050565b612faf81612f9a565b82525050565b600061016082019050612fcb600083018d612e3c565b612fd8604083018c612ca2565b8181036060830152612fea818b612eea565b90508181036080830152612ffe818a612eea565b905061300d60a0830189612ccc565b61301a60c0830188612f8b565b61302760e0830187612fa6565b613035610100830186612fa6565b613043610120830185612fa6565b613051610140830184612fa6565b9b9a5050505050505050505050565b60008060006040848603121561307957613078612ba4565b5b600061308786828701612c4d565b935050602084013567ffffffffffffffff8111156130a8576130a7612ba9565b5b6130b486828701612d32565b92509250509250925092565b7f4e487b7100000000000000000000000000000000000000000000000000000000600052603260045260246000fd5b7f4e6f742061207061727479000000000000000000000000000000000000000000600082015250565b6000613125600b83612e9e565b9150613130826130ef565b602082019050919050565b6000602082019050818103600083015261315481613118565b9050919050565b7f416d6f756e74206d75737420626520706f736974697665000000000000000000600082015250565b6000613191601783612e9e565b915061319c8261315b565b602082019050919050565b600060208201905081810360008301526131c081613184565b9050919050565b7f43616e6e6f74206164642066756e647300000000000000000000000000000000600082015250565b60006131fd601083612e9e565b9150613208826131c7565b602082019050919050565b6000602082019050818103600083015261322c816131f0565b9050919050565b7f50726576696f7573206465706f736974206e6f7420636f6d706c657465640000600082015250565b6000613269601e83612e9e565b915061327482613233565b602082019050919050565b600060208201905081810360008301526132988161325c565b9050919050565b7f4e6f74206177616974696e67206d65646961746f720000000000000000000000600082015250565b60006132d5601583612e9e565b91506132e08261329f565b602082019050919050565b60006020820190508181036000830152613304816132c8565b9050919050565b7f4d65646961746f72206d69736d61746368000000000000000000000000000000600082015250565b6000613341601183612e9e565b915061334c8261330b565b602082019050919050565b6000602082019050818103600083015261337081613334565b9050919050565b7f4d65646961746f722063616e6e6f742062652061207061727479206d656d626560008201527f7200000000000000000000000000000000000000000000000000000000000000602082015250565b60006133d3602183612e9e565b91506133de82613377565b604082019050919050565b60006020820190508181036000830152613402816133c6565b9050919050565b7f43616e6e6f74206465706f736974000000000000000000000000000000000000600082015250565b600061343f600e83612e9e565b915061344a82613409565b602082019050919050565b6000602082019050818103600083015261346e81613432565b9050919050565b7f4e6f206163746976652072657175657374000000000000000000000000000000600082015250565b60006134ab601183612e9e565b91506134b682613475565b602082019050919050565b600060208201905081810360008301526134da8161349e565b9050919050565b7f416c726561647920706169640000000000000000000000000000000000000000600082015250565b6000613517600c83612e9e565b9150613522826134e1565b602082019050919050565b600060208201905081810360008301526135468161350a565b9050919050565b7f4e487b7100000000000000000000000000000000000000000000000000000000600052601260045260246000fd5b7f4e487b7100000000000000000000000000000000000000000000000000000000600052601160045260246000fd5b60006135b682612bae565b91506135c183612bae565b9250826135d1576135d061354d565b5b828204905092915050565b60006060820190506135f16000830186612ca2565b6135fe6020830185612ca2565b61360b6040830184612ccc565b949350505050565b61361c81612f9a565b811461362757600080fd5b50565b60008151905061363981613613565b92915050565b60006020828403121561365557613654612ba4565b5b60006136638482850161362a565b91505092915050565b7f55534443207472616e73666572206661696c6564000000000000000000000000600082015250565b60006136a2601483612e9e565b91506136ad8261366c565b602082019050919050565b600060208201905081810360008301526136d181613695565b9050919050565b60006136e382612bae565b91506136ee83612bae565b92508282019050808211156137065761370561357c565b5b92915050565b7f4f6e6c79206d65646961746f722063616e2063616c6c20746869730000000000600082015250565b6000613742601b83612e9e565b915061374d8261370c565b602082019050919050565b6000602082019050818103600083015261377181613735565b9050919050565b7f44697370757465206e6f74207265616479000000000000000000000000000000600082015250565b60006137ae601183612e9e565b91506137b982613778565b602082019050919050565b600060208201905081810360008301526137dd816137a1565b9050919050565b7f416c7265616479207265736f6c76656400000000000000000000000000000000600082015250565b600061381a601083612e9e565b9150613825826137e4565b602082019050919050565b600060208201905081810360008301526138498161380d565b9050919050565b600082905092915050565b7f4e487b7100000000000000000000000000000000000000000000000000000000600052604160045260246000fd5b7f4e487b7100000000000000000000000000000000000000000000000000000000600052602260045260246000fd5b600060028204905060018216806138d157607f821691505b6020821081036138e4576138e361388a565b5b50919050565b60008190508160005260206000209050919050565b60006020601f8301049050919050565b600082821b905092915050565b60006008830261394c7fffffffffffffffffffffffffffffffffffffffffffffffffffffffffffffffff8261390f565b613956868361390f565b95508019841693508086168417925050509392505050565b600061398961398461397f84612bae565b612b2a565b612bae565b9050919050565b6000819050919050565b6139a38361396e565b6139b76139af82613990565b84845461391c565b825550505050565b600090565b6139cc6139bf565b6139d781848461399a565b505050565b5b818110156139fb576139f06000826139c4565b6001810190506139dd565b5050565b601f821115613a4057613a11816138ea565b613a1a846138ff565b81016020851015613a29578190505b613a3d613a35856138ff565b8301826139dc565b50505b505050565b600082821c905092915050565b6000613a6360001984600802613a45565b1980831691505092915050565b6000613a7c8383613a52565b9150826002028217905092915050565b613a968383613850565b67ffffffffffffffff811115613aaf57613aae61385b565b5b613ab982546138b9565b613ac48282856139ff565b6000601f831160018114613af35760008415613ae1578287013590505b613aeb8582613a70565b865550613b53565b601f198416613b01866138ea565b60005b82811015613b2957848901358255600182019150602085019450602081019050613b04565b86831015613b465784890135613b42601f891682613a52565b8355505b6001600288020188555050505b50505050505050565b6000604082019050613b716000830185612ca2565b613b7e6020830184612ccc565b9392505050565b7f55534443207061796f7574206661696c65640000000000000000000000000000600082015250565b6000613bbb601283612e9e565b9150613bc682613b85565b602082019050919050565b60006020820190508181036000830152613bea81613bae565b9050919050565b82818337600083830152505050565b6000613c0c8385612e9e565b9350613c19838584613bf1565b613c2283612ed9565b840190509392505050565b60006020820190508181036000830152613c48818486613c00565b90509392505050565b7f43616e6e6f742063616e63656c206e6f77000000000000000000000000000000600082015250565b6000613c87601183612e9e565b9150613c9282613c51565b602082019050919050565b60006020820190508181036000830152613cb681613c7a565b9050919050565b7f4f7468657220706172747920616c726561647920706169640000000000000000600082015250565b6000613cf3601883612e9e565b9150613cfe82613cbd565b602082019050919050565b60006020820190508181036000830152613d2281613ce6565b9050919050565b7f5553444320726566756e64206661696c65640000000000000000000000000000600082015250565b6000613d5f601283612e9e565b9150613d6a82613d29565b602082019050919050565b60006020820190508181036000830152613d8e81613d52565b9050919050565b7f46756e64696e6720636c6f736564000000000000000000000000000000000000600082015250565b6000613dcb600e83612e9e565b9150613dd682613d95565b602082019050919050565b60006020820190508181036000830152613dfa81613dbe565b9050919050565b7f4d757374206465706f736974206e6f6e2d7a65726f20616d6f756e7400000000600082015250565b6000613e37601c83612e9e565b9150613e4282613e01565b602082019050919050565b60006020820190508181036000830152613e6681613e2a565b9050919050565b7f5472616e73666572206661696c65640000000000000000000000000000000000600082015250565b6000613ea3600f83612e9e565b9150613eae82613e6d565b602082019050919050565b60006020820190508181036000830152613ed281613e96565b9050919050565b7f43616e6e6f742064697370757465207769746820796f757273656c6600000000600082015250565b6000613f0f601c83612e9e565b9150613f1a82613ed9565b602082019050919050565b60006020820190508181036000830152613f3e81613f02565b9050919050565b6000613f5082612bae565b91507fffffffffffffffffffffffffffffffffffffffffffffffffffffffffffffffff8203613f8257613f8161357c565b5b600182019050919050565b6000606082019050613fa26000830187612ca2565b613faf6020830186612ca2565b8181036040830152613fc2818486613c00565b90509594505050505056fea26469706673582212207b7120c7283315ddc25130dc60fcccb754805acba6aa6bcffe4d6ab03c31d74e64736f6c63430008140033",
  "linkReferences": {},
  "deployedLinkReferences": {}
}